S02B00006D796F2D636F72652D6170706C69636174696F6E2D5245565F442D6E6F2D636865636B73756D2E680B
S224010000000001206D220100658502007D8502007D8502007D8502007D8502007D85020029
S2240100207D8502007D8502007D8502007D8502007D8502007D8502007D8502007D8502009A
S224010040E58E0200198F02004D8F0200818F02007D8502007D8502007D8502007D8502007B
S2240100607D8502007D8502007D8502007D8502007D8502007D8502007D8502007D8502005A
S224010080758E02007D8502007D8502007D8502007D8502007D8502007D8502007D85020039
S2240100A05D9302007D8502007D8502007D8502007D8502007D8502007D850200CD830200DE
S2240100C0CD8302007D8502007D8502007D8502007D8502007D8502007D850200D54C01008E
S2240100E07D850200897F02007D8502007D8502007D8502007D8502007D8502007D850200D4
S2240101007D8502007D8502007D8502007D8502007D8502007D8502007D8502007D850200B9
S2240101207D8502007D850200B579010071F5010091F50100B1F50100E5F5010045F60100D6
S2240101407D8502007D8502007D8502007D8502007D8502007D8502007D8502007D85020079
S2240101607D850200917701007D8502007D8502007D8502007D8502007D8502007D85020054
S2140101807D8502007D85020001000200BB0302009E
S2240101F8FFFFFFFF609205006D0000007B0D0A20202276657273696F6E223A207B0D0A2059
S224010218202020226D616A6F72223A20312C0D0A20202020226D696E6F72223A20322C0D87
S2240102380A20202020227061746368223A203935352C0D0A202020202268617264776172F7
S220010258655F7265766973696F6E223A20320D0A20207D0D0A7D0D0A0000000024
S2240104100000000000000000000000000000000000000000000000000000000000000000C6
S2240104300000000000000000000000000000000000000000000000000000000000000000A6
S224010450000000000000000000000000000000000000000000000000000000000000000086
S224010470000000000000000000000000000000000000000000000000000000000000000066
S22401100081F0004102E000BF83F0004330B54FEA41044FEA430594EA050F08BF90EA020FF9
S2240110201FBF54EA000C55EA020C7FEA645C7FEA655C00F0E2804FEA5454D4EB5555B8BFCF
S2240110406D420CDD2C4480EA020281EA030382EA000083EA010180EA020281EA0303362D86
S22401106088BF30BD11F0004F4FEA01314FF4801C4CEA113102D0404261EB410113F0004FF0
S2240110804FEA03334CEA133302D0524263EB430394EA050F00F0A780A4F10104D5F1200E2E
S2240110A00DDB02FA0EFC22FA05F2801841F1000103FA0EF2801843FA05F359410EE0A5F176
S2240110C020050EF1200E012A03FA0EFC28BF4CF0020C43FA05F3C01851EBE37101F0004582
S2240110E007D54FF0000EDCF1000C7EEB00006EEB0101B1F5801F1BD3B1F5001F0CD34908FC
S2240111005FEA30004FEA3C0C04F101044FEA445212F5800F80F09A80BCF1004F08BF5FEADA
S224011120500C50F1000041EB045141EA050130BD5FEA4C0C404141EB010111F4801FA4F1E4
S2240111400104E9D191F0000F04BF01460020B1FA81F308BF2033A3F10B03B3F120020CDA89
S2240111600C3208DD02F1140CC2F10C0201FA0CF021FA02F10CE002F11402D8BFC2F1200C02
S22401118001FA02F120FA0CFCDCBF41EA0C019040E41AA2BF01EB0451294330BD6FEA04043C
S2240111A01F3C1CDA0C340EDC04F11404C4F1200220FA04F001FA02F340EA030021FA04F38D
S2240111C045EA030130BDC4F10C04C4F1200220FA02F001FA04F340EA0300294630BD21FAAB
S2240111E004F0294630BD94F0000F83F4801306BF81F480110134013D4EE77FEA645C18BF89
S2240112007FEA655C29D094EA050F08BF90EA020F05D054EA000C04BF1946104630BD91EAC2
S224011220030F1EBF0021002030BD5FEA545C05D14000494128BF41F0004130BD14F580041F
S2240112403CBF01F5801130BD01F0004545F0FE4141F470014FF0000030BD7FEA645C1ABF9B
S224011260194610467FEA655C1CBF0B46024650EA013406BF52EA033591EA030F41F400218A
S22401128030BD00BF90F0000F04BF0021704730B54FF4806404F132044FF000054FF00001B7
S2240112A050E700BF90F0000F04BF0021704730B54FF4806404F1320410F0004548BF404203
S2240112C04FF000013EE700BF42004FEAE2014FEA31014FEA02701FBF12F07F4393F07F4F7D
S2240112E081F06051704792F0000F14BF93F07F4F704730B54FF4607401F0004521F000411F
S22401130020E700BF50EA010208BF704730B54FF000050AE050EA010208BF704730B511F092
S224011320004502D5404261EB41014FF4806404F132045FEA915C3FF4DCAE4FF003025FEAA9
S224011340DC0C18BF03325FEADC0C18BF033202EBDC02C2F1200300FA03FC20FA02F001FAB5
S22401136003FE40EA0E0021FA02F11444C1E600BF70B54FF0FF0C4CF4E06C1CEA11541DBF20
S2240113801CEA135594EA0C0F95EA0C0F00F0DEF82C4481EA030621EA4C5123EA4C5350EA6E
S2240113A0013518BF52EA033541F4801143F4801338D0A0FB02CE4FF00005E1FB02E506F0A6
S2240113C00042E0FB03E54FF00006E1FB03569CF0000F18BF4EF0010EA4F1FF04B6F5007F07
S2240113E064F5407404D25FEA4E0E6D4146EB060642EAC62141EA55514FEAC52040EA5E509A
S2240114004FEACE2EB4F1FD0C88BFBCF5E06F1ED8BEF1004F08BF5FEA500E50F1000041EBCD
S224011420045170BD06F0004646EA010140EA020081EA0301B4EB5C04C2BFD4EB0C0541EAA0
S224011440045170BD41F480114FF0000E013C00F3AB8014F1360FDEBF002001F0004170BD30
S224011460C4F10004203C35DA0C341BDC04F11404C4F1200500FA05F320FA04F001FA05F232
S22401148040EA020001F0004221F0004110EBD37021FA04F642EB06015EEA430E08BF20EAA4
S2240114A0D37070BDC4F10C04C4F1200500FA04F320FA05F001FA04F240EA020001F00041C8
S2240114C010EBD37041F100015EEA430E08BF20EAD37070BDC4F1200500FA05F24EEA020EA8
S2240114E020FA04F301FA05F243EA020321FA04F001F0004121FA04F220EA020000EBD37025
S2240115005EEA430E08BF20EAD37070BD94F0000F0FD101F00046400041EB010111F4801F2F
S22401152008BF013CF7D041EA060195F0000F18BF704703F00046520043EB030313F4801F21
S22401154008BF013DF7D043EA0603704794EA0C0F0CEA135518BF95EA0C0F0CD050EA410607
S22401156018BF52EA4306D1D181EA030101F000414FF0000070BD50EA410606BF104619465F
S22401158052EA430619D094EA0C0F02D150EA013613D195EA0C0F05D152EA03361CBF104600
S2240115A019460AD181EA030101F0004141F0FE4141F470014FF0000070BD41F0FE4141F423
S2240115C0780170BD70B54FF0FF0C4CF4E06C1CEA11541DBF1CEA135594EA0C0F95EA0C0F7C
S2240115E000F0A7F8A4EB050481EA030E52EA03354FEA013100F088804FEA03334FF08055E8
S22401160045EA131343EA12634FEA022245EA111545EA10654FEA00260EF000419D4208BF33
S224011620964244F1FD0404F5407402D25B084FEA3202B61A65EB03055B084FEA32024FF40A
S22401164080104FF4002CB6EB020E75EB030E22BFB61A754640EA0C005B084FEA3202B6EB50
S224011660020E75EB030E22BFB61A754640EA5C005B084FEA3202B6EB020E75EB030E22BF1E
S224011680B61A754640EA9C005B084FEA3202B6EB020E75EB030E22BFB61A754640EADC008F
S2240116A055EA060E18D04FEA051545EA16754FEA06164FEAC30343EA52734FEAC2025FEA50
S2240116C01C1CC0D111F4801F0BD141EA00014FF000004FF0004CB6E711F4801F04BF01437D
S2240116E00020B4F1FD0C88BFBCF5E06F3FF6AFAEB5EB030C04BFB6EB020C5FEA500C50F136
S224011700000041EB045170BD0EF0004E4EEA113114EB5C04C2BFD4EB0C0541EA045170BDF2
S22401172041F480114FF0000E013C90E645EA060E8DE60CEA135594EA0C0F08BF95EA0C0FCF
S2240117403FF43BAF94EA0C0F0AD150EA01347FF434AF95EA0C0F7FF425AF104619462CE784
S22401176095EA0C0F06D152EA03353FF4FDAE1046194622E750EA410618BF52EA43067FF492
S224011780C5AE50EA41047FF40DAF52EA43057FF4EBAE12E74FF0FF3C06E000BF4FF0010C2E
S2240117A002E000BF4FF0010C4DF804CD4FEA410C7FEA6C5C4FEA430C18BF7FEA6C5C1BD0EE
S2240117C001B050EA410C0CBF52EA430C91EA030F02BF90EA020F0020704710F1000F91EA3A
S2240117E0030F58BF994208BF90422CBFD8176FEAE37040F0010070474FEA410C7FEA6C5C21
S22401180002D150EA013C07D14FEA430C7FEA6C5CD6D152EA033CD3D05DF8040B704700BF48
S2240118208446104662468C461946634600E000BF01B5FFF7B7FF002848BF10F1000F01BD02
S2240118404DF808EDFFF7F4FF0CBF012000205DF808FB00BF4DF808EDFFF7EAFF34BF01200F
S22401186000205DF808FB00BF4DF808EDFFF7E0FF94BF012000205DF808FB00BF4DF808ED37
S224011880FFF7CEFF94BF012000205DF808FB00BF4DF808EDFFF7C4FF34BF012000205DF858
S2240118A008FB00BF4FEA410212F5001215D211D56FF47873B3EB625212D94FEAC12343F023
S2240118C0004343EA505311F0004F23FA02F018BF404270474FF00000704750EA013005D149
S2240118E011F0004008BF6FF0004070474FF00000704700BF4FEA4102B2F1E04324BFB3F502
S224011900001CDCF1FE5C0DD901F0004C4FEAC0024CEA5070B2F1004F40EB830008BF20F0F3
S2240119200100704711F0804F21D113F13872BCBF01F00040704741F480114FEA5252C2F1C0
S2240119401802C2F1200C10FA0CF320FA02F018BF40F001004FEAC1234FEAD32303FA0CFC1A
S22401196040EA0C0023FA02F34FEA4303CCE77FEA625307D150EA01331EBF4FF0FE4040F4F5
S2240119804000704701F0004040F0FE4040F40000704700BF80F0004002E000BF81F00041FE
S2240119A042001FBF5FEA410392EA030F7FEA226C7FEA236C6AD04FEA1262D2EB1363C1BF5D
S2240119C0D218414048404140B8BF5B42192B88BF704710F0004F40F4000020F07F4018BF0E
S2240119E0404211F0004F41F4000121F07F4118BF494292EA030F3FD0A2F1010241FA03FC39
S224011A0010EB0C00C3F1200301FA03F100F0004302D5494260EB4000B0F5000F13D3B0F198
S224011A20807F06D340084FEA310102F10102FE2A51D2B1F1004F40EBC25008BF20F00100CE
S224011A4040EA03007047490040EB000010F4000FA2F10102EDD1B0FA80FCACF1080CB2EB4D
S224011A600C0200FA0CF0AABF00EBC25052421843BCBFD0401843704792F0000F81F4000163
S224011A8006BF80F400000132013BB5E74FEA41037FEA226C18BF7FEA236C21D092EA030F3A
S224011AA004D092F0000F08BF0846704790EA010F1CBF0020704712F07F4F04D1400028BFE7
S224011AC040F00040704712F100723CBF00F50000704700F0004343F0FE4040F4000070472E
S224011AE07FEA226216BF08467FEA23630146420206BF5FEA412390EA010F40F480007047EF
S224011B004FF0000304E000BF10F0004348BF40425FEA000C08BF704743F0964301464FF0A9
S224011B2000001CE050EA010208BF70474FF000030AE000BF50EA010208BF704711F00043FE
S224011B4002D5404261EB41015FEA010C02BF84460146002043F0B64308BFA3F18053A3F55E
S224011B600003BCFA8CF2083AA3EBC25310DB01FA02FC634400FA02FCC2F12002BCF1004FEF
S224011B8020FA02F243EB020008BF20F00100704702F1200201FA02FCC2F1200250EA4C0009
S224011BA021FA02F243EB020008BF20EADC70704773B96AB9002908BF0028BCBF00204FF0CB
S224011BC00041C4BF6FF000414FF0FF3000F08AB882B0EC462DE9005000F058F8DDF804E038
S224011BE002B00CBC704700BF4BB942B9002908BF002802D04FF0FF31084600F073B882B0FC
S224011C00EC462DE9005000F057F8DDF804E002B00CBC704707EE900AF5EEC07AF1EE10FA68
S224011C2008B503D4BDE8084000F00CB8B1EE670A10EE100A00F006F8424261EB41031046E9
S224011C40194608BD70B5FFF73FFB00230022C3F6F05304460D46FFF78BFB00F045F8064632
S224011C60FFF710FB00230022C4F2F013FFF780FB02460B4620462946FFF7C6F900F034F8AF
S224011C80002202431046314670BD00BFF8B5164604460D461F4600F047F806FB01F300FBF4
S224011CA00737A6FB0023FB18A21A65EB0303069CC4E90023F8BD00BFF8B5164604460D466B
S224011CC01F4600F08FF900FB07F7A0FB062306FB0177FB18A21A65EB0303069CC4E9002354
S224011CE0F8BD00BF704700BF4A0011D212F5001211D20DD56FF47873B3EB62520ED44FEA2E
S224011D00C12343F0004343EA505323FA02F070474FF00000704750EA013002D14FF0FF302B
S224011D2070474FF00000704700292DE9F00F1D46C0F29D800024002DC0F2948080460F464E
S224011D4094461E46E3BB8A4255D9B2FA82F747B1C7F1200520FA05F601FA07F1BA40314337
S224011D60B840170CB1FBF7F6030C1FFA82FC07FB16110CFB06F543EA01439D4208D9711E18
S224011D809B1880F013819D4240F21081023E9B18591BB1FBF7F507FB151380B20CFB05FC81
S224011DA040EA03418C4507D96B1E8A1880F00081944540F2FD80023D45EA0641002503E09D
S224011DC08B420CD9002529460A462B4614B1524263EB430310461946BDE8F00F7047B3FA4C
S224011DE083F5002D40F087808B4201D38242EAD800250121E8E712B90126B6FBF2F2B2FA91
S224011E0082F6002E39D18E1A130C1FFA82FC0125B6FBF3F703FB17614FEA10490CFB07F8DF
S224011E2049EA0146B04506D9791EB61802D2B04500F2D3800F46C8EB0606B6FBF3F103FB34
S224011E40116380B20CFB01FC40EA03439C4506D94E1E9A1802D2944500F2C280314641EA01
S224011E600741B1E7E443524263EB430366E7404261EB41014FF0FF345DE7B240C6F1200948
S224011E8021FA09F720FA09F5130C01FA06F1B7FBF3F845EA01091FFA82FC03FB18774FEAC5
S224011EA019410CFB08F541EA0747B040BD420AD9BF1808F1FF3680F08E80BD4240F28B80B4
S224011EC0A8F10208BF18791BB1FBF3F503FB15171FFA89F90CFB05F649EA07418E4206D969
S224011EE06F1E891871D28E426FD9023D89188E1B45EA08458CE7C5F1200122FA01F306FAF4
S224011F0005F61E4327FA01F24FEA164907FA05F720FA01F1B2FBF9F80F433B0C1FFA86FADA
S224011F2009FB18220AFB08FB43EA024293450CFA05FC08D9921908F1FF314AD2934548D93B
S224011F40A8F102089219CBEB0203B3FBF9F109FB1132BFB20AFB01FA47EA02439A4506D9EE
S224011F604A1E9B1933D29A4531D902399B1941EA08410F0C1FFA8CF808FB07F68AB24FEAC1
S224011F801C4C08FB02F80CFB026202EB18420CFB07FC964288BF0CF5803CCAEB03030CEB8C
S224011FA0124C63450ED305D000250DE70E46EFE61D4601E71FFA88F800FA05F008EB024510
S224011FC0A842F1D201390025FEE63D468FE71146CDE78846B7E7B04675E7023FB6182AE729
S224011FE002393CE72DE9F007144605460E46002B3DD18A4249D9B2FA82F747B1C7F120015A
S22401200020FA01F206FA07F6BC401643BD40220CB6FBF2F02F0CA1B202FB106601FB00F3AD
S22401202047EA0646B34208D9471E361980F0F880B34240F2F58002383619F61AB6FBF2F3E0
S22401204002FB1362ADB201FB03F145EA0242914207D95E1E121980F0E580914240F2E280B0
S224012060023B43EA00400021BDE8F00770478B4243D8B3FA83F4002C42D18B4202D382428B
S22401208000F2DF8000210120EEE712B90127B7FBF2F4B4FA84F2002A40F088800A1B230C6D
S2240120A0A7B20121B2FBF3F603FB16224FEA154C07FB06F04CEA0242904207D9121906F1F3
S2240120C0FF3C02D2904200F2CE806646121AB2FBF3F003FB1023ADB207FB00F745EA034373
S2240120E09F4207D9421E1B1980F09E809F4240F29B80023840EA0640B6E700210846B3E779
S224012100C4F1200622FA06F503FA04F32B434FEA134C21FA06F501FA04F120FA06F6B5FB01
S224012120FCF746EA010A1FFA83F80CFB17554FEA1A4108FB07F941EA0545A94502FA04F278
S22401214003D97E1EED187FD33746C9EB0501B1FBFCF60CFB16151FFA8AFA08FB06F84AEAD1
S2240121600541884503D9751EC91873D32E4646EA0746370C1FFA82FC0CFB07F5120CB3B25F
S2240121800CFB03FC02FB035303EB1C4302FB07F29D4288BF02F58032C8EB010102EB1342D7
S2240121A091424BD342D0304600215DE79440C2F1200521FA05F6230C20FA05F701FA02F146
S2240121C0B6FBF3FC39430D0CA7B203FB1C6645EA064607FB0CF8B04500FA02F508D9361954
S2240121E00CF1FF303DD2B0453BD9ACF1020C3619C8EB0602B2FBF3F003FB10268AB242EAB4
S224012200064207FB00F1914206D9461E121926D2914224D902381219521A40EA0C4141E704
S22401222038460AE733461CE7104663E71FFA8CFC00FA04F00CEB03439842B4D2701E002132
S22401224012E7214620460FE7A9457FF67DAF023FED187AE7884589D9023EC91887E7304652
S224012260DAE78446C4E7023E12192FE721F0B2FC16F006FA40F240204CF2CC32C1F6FF70E8
S224012280C2F200020021121A1CF0AAFD21F07EFC21F0B2FC21F018FC21F0BCFC40F24021B7
S2240122A0C1F6FF71002017F0ABFB1CF04BFD00BFFEE700BF40F25C2140F2492240F2482384
S2240122C0C1F6FF71C1F6FF72C1F6FF7310B4002064240C701070187010BC704740F2442374
S2240122E0C1F6FF7340F25D221968C1F6FF72013110701960704700BF2DE9F001B54A4FF06F
S2240123000108B8F1100F10465FFA88F337D002EB080512F8084015F8015CA542414608F198
S224012320FF3C25D2013B13F0010F15D0D9B202F808504B1E02F80C40C55C445CA5429C461B
S2240123400AD315E0075D465DB74211D257551655C55C445CA5420BD2555413F0FF0502F87C
S2240123600C4005F1FF34E1B201F1FF339C46E9D108F10108B8F1100F5FFA88F3C7D11178D0
S22401238055789448A942847800F08D80A54200F06481C078A94238BF2946844200F05A81D4
S2240123A001258C422B4600D9214601251479A04200F0C4809D4200F21D8100F0AC800125F8
S2240123C05079844200F0C0809D4200F20B8100F09D8001259479A04200F0BC809D4200F2BC
S2240123E0F48000F08E800125D079844200F0B8809D4200F207817FD00125147AA04200F0DA
S224012400B5809D4200F2028172D00125507A844200F0B2809D4200F2D48065D00125947A85
S224012420A04200F0AF809D4200F2F88058D00125D07A844200F0AC809D4200F2F3804BD073
S2240124400125147BA04200F0A9809D4200F2EE803ED00125507B844200F0A6809D4200F2DB
S224012460D98031D00124927B904200F0A3809C4200F2C48024D00120984200F2A08000F0E0
S224012480E480554A1368994201D3591EC9B2534802788A4200F0CE80514B01700021197041
S2240124A0BDE8F0017047A1423AD0D0780223012584423CD09D4200F299807FF476AF70E79E
S2240124C08842D8D90146D6E78C42CBD92146C9E78842BED90146BCE78C42B1D92146AFE74E
S2240124E08842A4D90146A2E78C4297D9214695E788428AD9014688E78C427FF67DAF2146E5
S2240125007AE788427FF66FAF01466CE78C427FF660AF21465DE788427FF651AF01464EE7A5
S22401252002200C460023451CD0788442C2D1681CC5B220461479A0427FF43CAF681CC5B2D3
S224012540507984427FF440AF6C1CE5B29479A0427FF444AF681CC5B2D07984427FF448AF9C
S2240125606C1CE5B2147AA0427FF44BAF681CC5B2507A84427FF44EAF6C1CE5B2947AA0424F
S2240125807FF451AF681CC5B2D07A84427FF454AF6C1CE5B2147BA0427FF457AF681CC5B23D
S2240125A0507B84427FF45AAF927B6C1C9042E4B27FF45DAF601CC0B298427FF660AF1146E9
S2240125C05FE72B462146012529E72B46014601250AE700BF4C02FF1FF43C03005E02FF1FF6
S2240125E04902FF1F2B4621460125F3E62B4621460125DBE62B4601460125E1E60146234681
S224012600012039E72B4621460125F6E62B4601460125FBE621462B46012424E72B4601461A
S224012620012505E72B46214601250AE72B46014601250FE70B480278531CDAB2072A027054
S2240126407FF62EAF084801702AE7914238BF1146C9B216E701231D4669E701231846451CFD
S22401266062E700BF4902FF1F5C02FF1FF8B51A4C23680F2B0ED9194D19482A780078511C5A
S224012680CBB218492B700F2B885405D8002000222260F8BD0020F8BD134F144EFFF72CFE96
S2240126A03A7811200121B21800F0C6FD3878335C052B0CD90F2B06D8012003F0B5FD00213F
S2240126C029700120E3E7002003F0AEFDF7E7022003F0AAFDF3E700BF4402FF1F4802FF1FB3
S2240126E05D02FF1F4C02FF1F5C02FF1F8C3C0300F8B53D4B3D4D1A682B68002A50D03C4FFB
S2240127003C4E396803EB4300C3EBC0043A4B01EB410218191401D1F1010138BF0021027895
S2240127203960C027375501233419DB26C02A52D0DB2A54D0E254012101330EE0DB2F42D04A
S2240127400131E754425C0133C02A12D0DB2A3ED00131E2540133172913D0475CC02FEDD146
S2240127600131E654425C0133DC27E7540133C02AECD1E6540133DC220131E25401331729B4
S224012780EBD1C026581CE65487B21C4E00E030BF706821463A4615F055FD0828F7D02B68D1
S2240127A0174A1068591C0138B1F5006F24BFA3F2FF732B60134B10601A6838BF2960511CC5
S2240127C019600120F8BDE7540133DD27B8E7E2540133DD22BCE766700223DC22AAE762702A
S2240127E00223DD22A6E700BFE003FF1FE403FF1FEC03FF1F1804FF1FC804FF1FEC9500208B
S224012800DC03FF1FC8BCFF1F574AF8B51378012B11D009D3022B1CD0544B55495868012218
S224012820BDE8F84015F0DEBC514908780228F3D101231370F0E74E4908780328ECD102216E
S22401284011704C484C4A4D490023136003600B60E2E74848464A03681178494C03EB430525
S224012860C3EBC503DB29234451D01178C02913D04249086838B11078DC284CD01078DD28E2
S22401288042D0002008603C4801681629C4D814784A1C5C540260BFE7374E31680029BBD054
S2240128A0162914D85F184A1C0025172A3D7001F001010BD021B199180132172A0D7005D0E0
S2240128C0511C9D540232172A5D54F9D13260036803EB4302C3EBC203E118E25C0A2A1DD0A9
S2240128E0274AD35C0C2B37D0CA780D2A1BD001684B1C102B03602BD0224B00681A689042FE
S2240129002ED00022326087E7DB201070B9E71B4B0120186080E7C0201070B2E71A4B1B494E
S22401292018680860EDE74B78192BE0D10A78062ADDD1174C0A79236841F61060D5188542F1
S224012940DFD814480531C0181CF029FA2560D8E7084900220A60CFE749780F4A1160D0E708
S2240129600E4803F033FFCCE7FC03FF1FEC950020F003FF1FA804FF1FCCBCFF1FD0BCFF1F3A
S2240129806402FF1FD403FF1F24BC0020AC04FF1F1CBC00200C9E0020C8BCFF1F2CBB03009C
S2240129A070B50378092B05460A4629D1524E346840F2FF7084421BD850490B68DBB95049D9
S2240129C00B68E118814201D9A1F500614D4B172000FB013029461CF0E2F94B4A116848004A
S2240129E00134202834605CDCBDE87040FFF780BE424B01221A6045490868421C0A6070BDE2
S224012A00434B196800294CD0424E4348346804EB44031901D4F1010338BF00233360C026F9
S224012A2044184654002A64D02B46A91813F8012BED4301206D18DB26C02A05EA000548D006
S224012A40DB2A4ED0225401308B422BD0C5B113F8015BC02D41D0DB2D47D0255401308B426D
S224012A600ED11FE0DB2A2CD0225413F8015B421CC02D12D0DB2D28D0501C8B42A55411D054
S224012A8013F8012BC02AEDD126540130DC22225413F8015B421CC02DECD1A654DC25013295
S224012AA0EAE770BD431C9EB2C02121541B4D00E030BF68682146324615F0C4FB0828F7D06C
S224012AC070BD22540130DD22CEE7A5540132DD25D2E766700220DC22B4E72654DC25013044
S224012AE0BBE762700220DD22ACE725540130DD25B3E702260120D7E7DC03FF1FE803FF1F55
S224012B00E403FF1FC804FF1FC8BCFF1F6002FF1FE003FF1FEC03FF1F1804FF1FEC950020B5
S224012B2038B549F2EC55C2F200050024686815F0C7FB686815F0FAFB40F2E03140F2D83269
S224012B4040F2DC33C1F6FF71C1F6FF72C1F6FF730A200C6014601C6004F0B4FF4FF27030A8
S224012B60C0F203002146BDE838400CF0DBBB00BF2DE9F047C34EC44CC44DC549706800233D
S224012B80012286B02B60237015F02CFBC14801210CF0C8FB2078012803D030BF217801295C
S224012BA0FBD1DFF818830122C8F8002004F020FFB94B074693E803000025029503950495FF
S224012BC005950190ADF8081002F004F997F82090007897F82170FF2814BF8246AA46B9F1E5
S224012BE0FF0F00F0BE80FF2F00F0BB80002001F0A1FA011C18BF012105228DF80D70ADF8AA
S224012C000A208DF80C908DF80E108DF810A001AD0FCDDFF8ACE2D8F80070CEF80300286803
S224012C20CEF80710152507218EF8015014258EF800108EF80250CEF80B20CEF80F30CEF815
S224012C401300002F00F09080944FDFF878923A6802EB4203180109EB00050123D2F1010298
S224012C6038BF00224FF0C00C09F800C03A60E9540EF116004FF0DB0ADB189EF80120C02AC5
S224012C800EF1010E00F0EB80DB2A00F031819EF80110EA545A1CC0290EF1010E00F0EC8070
S224012CA0DB2900F02981531C8645A954E5D103F10100C021E9541FFA80FA00E030BF706836
S224012CC02946524615F0BEFA0828F7D0744D75482B68D8F80020C0F80130034603216D6807
S224012CE003F8011B5D60002A49D03A6802EB420C4FEA0C1E012309EB0E05D2F1010238BF8F
S224012D0000224FF0C00C09F80EC03A60E95400F116074FF0DB0EDB1810E0DB2A00F0DC8070
S224012D204178EA5401305A1CC02915D0DB2900F0E780531CB842A95400F03E8142780130C6
S224012D40C02AEAD105F803E041780133DC22EA5401305A1CC029E9D105F802E0DC21013266
S224012D60E7E72F46A94641E74E4A4D491346032003F8010B08684968C2F80100596004F0B9
S224012D8037FE494B0A221A7001460078FF2800F09D80581C16221CF029F8D8F800100029D9
S224012DA043D03E4FDFF820A13B68DFF81891524603EB4305280112F8161DD3F1010338BFBF
S224012DC00023C02509F8005009EB00050120C0293B604FF0DB0C00F00B81DB2900F00D81D2
S224012DE02954431C0EE0DB297AD05078E9540132591CC02814D0DB2876D04B1C5245685439
S224012E0000F0828051780132C029ECD105F803C050780133DC21E9540132591CC028EAD1D7
S224012E2005F801C0DC200131E7E7204A0221117000E030BF2378022BFBD101F0C7FF007832
S224012E40FF2802D0002003F059FD1949194B0A681949002018600A6006B0BDE8F08705F89F
S224012E6003A09EF801100133DC22EA545A1CC0290EF1010E7FF414AF05F802A0DC21013220
S224012E8011E700BFEC950020FC03FF1F1CBC0020F003FF1F70F30300F403FF1FEC03FF1F26
S224012EA0880101007804FF1F9004FF1FB004FF1F24BC0020D403FF1FAC04FF1FE003FF1FA0
S224012EC00004FF1F1804FF1FA604FF1F581C4D4916221BF08BFF60E7EA540133DD221FE733
S224012EE0E9540133DD2180E768540131DD2084E7EA540133DD22CAE6A9540132DD21D2E699
S224012F00A9540132DD2114E703F1010EC022EA541FFA8EFA00E030BF70682946524615F00B
S224012F2091F90828F7D03848D8F8003002210170002B3FF47FAF3A6802EB42054FEA051E38
S224012F40012309EB0E05D2F1010238BF00224FF0C00C09F80EC03A60E95400F116074FF063
S224012F60DB0EDB180DE0DB2A1ED04178EA5401305A1CC02913D0DB291AD0531CB842A954D1
S224012F8028D042780130C02AEDD105F803E041780133DC22EA5401305A1CC029EBD105F84E
S224012FA002E0DC210132E8E7EA540133DD22DCE7A9540132DD21E0E75F1CC020E854BFB2F9
S224012FC000E030BF706829463A4615F03BF90828F7D0D4E65F1CC020E854BFB200E030BF94
S224012FE0706829463A4615F02DF90828F7D021E785F801C00220DC21F2E669700220DD21AC
S224013000EEE600BFF83C0300B004FF1F38B549F2EC55C2F200050024686815F051F96868D9
S22401302015F084F940F2E03140F2D83240F2DC33C1F6FF72C1F6FF73C1F6FF710A20146032
S2240130401C600C6004F03EFD4FF270302146C0F203000CF067F9022004F034FDBDE8384096
S224013060FFF786BD2DE9F041DFF8C881D8F8003033B15E485E4902680C68151BC82D48D856
S2240130805C4D2B68002B3AD15B4C206868B123605A4B5B4C1878012804D95A4922680220BC
S2240130A003F094FC002222600120574C574923680A68934221D003EB4307554EC3EBC7006C
S2240130C03718315C4A1E0A2A7CD8DFE802F0257B7B6A84734D7B067B430057F8010F4D4B66
S2240130E0B98818609980384600F0C8F923685A1C102A08BF002222600120BDE8F08146485E
S22401310002685100202901DD0020CEE7FFF7F0FACBE715F01BFAB3E7404C414E606815F0C4
S224013120CFF8606815F002F900240A20C8F8004034602C6004F0C6FC21463A480CF0F2F807
S224013140022004F0BFFCFFF713FD34602C600120BDE8F08104F054FC791C20221BF046FED1
S22401316004F070FC2368C2E77A78002A31D078782D491BF043FD01250BE0BE1958781BF024
S2240131803DFD7278284922B370781BF037FD172D1FD07B196E1C58782349751C0028ECD195
S2240131A017E000F09BFD1E4A236801200021106029609CE77978192999D1F81C00F0F0FD4B
S2240131C0236894E70D4B187850B91848C82103F017FB23688BE7114C114E00F08BFD9DE7EF
S2240131E00120134903F0F2FBEFE700BF24BC0020AC04FF1FDC03FF1FE803FF1FF400FF1FF1
S2240132006002FF1FFC3C0300D403FF1FA804FF1F6402FF1FF403FF1FC8BCFF1FEC95002052
S224013220D803FF1F70F303008801FF1FC0BA0300383D0300E003FF1F70B586B00B468DF85B
S224013240010011460DF103001A4608248DF800408DF802301BF0A3FD2F480168002948D03B
S2240132602E4D2F4E2B6806AA03EB43042001D3F1010338BF002312F8181D2B60C02535549D
S22401328034180120DB26C0290DF116053BD0DB293DD02154431C0DE0DB292CD05078E154DE
S2240132A00132591CC02812D0DB2828D04B1CAA42605410D051780132C029EDD1E65450780F
S2240132C00133DC21E1540132591CC028ECD16654DC200131EAE75D1CC026E654AEB2114D25
S2240132E000E030BF68682146324614F0ABFF0828F7D006B070BDE1540133DD21CEE76054F2
S2240133000131DD20D2E766700220DC21C1E761700220DD21BDE700BFE003FF1FEC03FF1FC0
S2240133201804FF1FEC95002030B50D4B1B6887B005460C460BB907B030BD114609230DF12F
S224013340030022468DF800308DF801508DF802401BF025FD68461721FFF722FBEBE700BFF3
S224013360D803FF1FF0B5274D274E2968814289B0034638D83068002400283FD000F1FF3EB9
S2240133802F68224A0094013700242F601321C6F800E0012503A80794039404940594069405
S2240133A08DF81F5003AC1BF083FC3568184F0FCC05EB4506C5EBC6057E194FF0090C07F85B
S2240133C005C0C6F803002068C6F80710382474701424F51CB470C6F80B20C6F80F30C6F8B3
S2240133E0130009B0F0BD32682B600C1AA018B0F5006F88BFA0F500600028BFD140F2FF7E94
S224013400BEE700BFDC03FF1FE403FF1F683D0300C804FF1F10B5002014F01AFE1348144CF2
S2240134200BF068FF0121206010480BF04BFF23688BB910480BF05EFF044600B110BD01217C
S2240134400D480BF03FFF0C4821460BF06BFFBDE8104015F07BB8012107480BF033FF06489F
S2240134600021BDE810400BF05DBF00BF78F3030058BDFF1FA4F303002CF30300F0B5304BDD
S224013480196885B0064609B905B0F0BD2D4CE06916F016FB012003F08DFAFFF741FBC82072
S2240134A004F010FB0121606814F066FF4FF42040C4F20600002240F2BB3542732249234886
S2240134C00095012202231BF0FFFB87B200E030BF60681E493A4614F0B5FE0828F7D0B57872
S2240134E0707872793379F77836781949019502900097039617481BF0E7FB85B200E030BF1E
S224013500606814492A4614F09DFE0828F7D0124E124D0FCE0FC533682B7000E030BF1022D3
S22401352060680E4914F08EFE0828F7D00C4803F04DF902F02BFA05B0BDE8F04002F0CABC39
S22401354058BDFF1FEC950020783D030038BDFF1F903D0300D8BCFF1FB43D0300F8BCFF1F7E
S22401356010BB03004BF65853C1F6FF73186870474BF6D443C1F6FF7301221A60704700BF97
S22401358070B5194E306810B1184B186800B970BD02F0C4FA10EE100AFDF796FE02460B468E
S2240135A013481449144D1BF08FFB84B200E030BF68680F49224614F045FE0828F7D0C8209C
S2240135C004F080FA0C480021406814F0D5FE02F0E1F9FFF7CDFA00F03DF9084803F0F6F8A3
S2240135E000213160012070BD58BDFF1FD4BCFF1F18BDFF1FC83D0300EC95002010BC030079
S22401360000B5022883B001D003B000BD00238DF8063006238DF8043023200123032101AA5B
S2240136208DF80530FFF780FEEEE700BF254B0122022830B51A6098BF234B054698BF1A5CC9
S224013640224888BFFF220229027098BF20480C4698BF425C1F4988BFFF2283B001200A7051
S22401366003F0FAF8C82064210BF0FCFF782000210BF0F8FFB4214FF496700BF0F3FF7820AE
S22401368000210BF0EFFFFF214FF4FA700BF0EAFF0123022D8DF800309ABF0B4B5B5DFF23D8
S2240136A0022C8DF801309CBF094B1B5D6A4688BFFF23232003218DF80230FFF735FE03B0E6
S2240136C030BD00BF68BDFF1FE43D03000000FF1FE03D03000100FF1F00B5032383B098428C
S2240136E08DF804300AD004D9052807D010D2042305E0012802D00ED9022300E003462320EF
S224013700032101AAADF80530FFF70EFE03B000BD4FF6FF73F3E70023F1E700BF30B5254DE6
S2240137202B78FF2B83B007D0234C2078002833D1224A002020709063214BFF2400202C701F
S2240137401C7003F089F81F490868A8B14FF4FA7021460BF087FF782000210BF083FF4FF424
S2240137609670B4210BF07EFF782000210BF07AFFC82064210BF076FF0023ADF800301C468C
S2240137808DF802302320022303216A468DF80030FFF7CAFD03B030BD02AA00230521ADF884
S2240137A00430232002F8041D03218DF80630FFF7BBFDBDE70000FF1F5CBDFF1FF0380020A3
S2240137C00100FF1F2047002008B5174B1748002119600BF033F908B101F000FB0221002214
S2240137E012480BF0D7F91148114900220BF0FAF90E48104900220BF0FDF90C480E4900224C
S2240138000BF000FA09480D4900220BF003FA0C490C4BFF220A700C4900200A7018600B4AE9
S2240138200B4B1070186008BD2047002070BDFF1F2D3601001D370100D9360100013601009C
S2240138400000FF1F68BDFF1F0100FF1F5CBDFF1F6CBDFF1F244B10B501221C681A6001F01E
S224013860D5FA00B301F01EF8D0B102F0CBF808B124B110BD02F08AF8002CFAD104F0B8F819
S22401388090F82010012929D041B9184B90F821001A6890420AD316480378CBB922460AE061
S2240138A000F0ECFEE1E701F0B7FADBE7114941F6106404FB001202210F480BF06BF90F4AB4
S2240138C00F4BFF2010700F4A00211960107010BD01200D4903F07AF82246ECE790F82100E9
S2240138E000F028FC0246E6E72047002024BF0300F400FF1F28BF030070BDFF1F0000FF1FC7
S22401390068BDFF1F0100FF1FE83D0300044B0549002018600A78FF2A01D0FFF7FFBE7047FC
S224013920204700200000FF1F44F22073C2F200031868704710B504F05BF890F82040012C04
S2240139401AD0FCB9104A90F821301068834209D20E4A41F6106101FB03210D48BDE810400D
S2240139600BF0A6B80B4B19780029F6D00A49012003F02CF82146F0E790F8210000F0DAFBDB
S2240139800146EAE70021E8E724BF030028BF030070BDFF1FF400FF1FE83D030070B5274B2D
S2240139A01A78FF2A82B0044610D000282AD0244D2E786EB1234B2C701A68234823490260CD
S2240139C00A68234B23491A600120886302B070BD02A804216A46ADF8006000F8081D23204C
S2240139E003218DF80260FFF79FFC9620FF210BF039FE782031460BF035FE3220FF210BF073
S224013A0031FED7E71A78FF2AE0D00D4D2B7883B102AAADF80400052002F8040D032123202B
S224013A208DF80640FFF780FC4FF4967096210BF019FE084A002129709163C7E70000FF1F65
S224013A405CBDFF1F24BC00206CBDFF1F60BDFF1F64BDFF1FF038002070B5144B1A78FF2AE1
S224013A6082B005460E4606D0114C207828B9114A00232370936302B070BD3DB1002EF6D1FA
S224013A804FF4967096210BF0EDFDF0E702AA0521ADF80450232002F8041D03218DF806503C
S224013AA0FFF742FC002EE2D1EAE700BF0000FF1F5CBDFF1FF038002070B5224C2378012B64
S224013AC082B006460D4614D01F4B186808B902B070BD3146EAB21D480BF0A4F81C490A78AB
S224013AE0FF2A01D003F068FE1A4B002118681960EDE71948194902680B68D01A00EB800124
S224013B0040F2CF72B2EB410FDED2114B1878FF28DAD0217889B102AA00230520ADF8043032
S224013B20032102F8040D23208DF80630FFF7FCFB4FF4967096210BF095FD094A00212170D3
S224013B409163C1E75CBDFF1F2047002070BDFF1F0000FF1F68BDFF1F24BC00206CBDFF1F12
S224013B60F038002001464BF67050C1F6FF700BF071B900BF70B584B0054607F077FB254C27
S224013B80254E84ED000A3378012B11D0284607F053FB236828468DED010A029307F076FB4B
S224013BA01E4801A98DED030A0BF056F904B070BD1B481C4994ED007AD0ED007A0A7837EE9C
S224013BC0670A012ADFED180A08BFB1EE400AB4EEE00AF1EE10FAD9D8144B1878FF28D5D0C4
S224013BE0317891B104AA00230520ADF80030032102F8100D23206A468DF80230FFF794FB9F
S224013C004FF4967096210BF02DFD094A002131709163BBE760BDFF1F5CBDFF1F70BDFF1F11
S224013C2064BDFF1F0100FF1FC7B832BE0000FF1FF0380020074B1978FF2910B5044602D05F
S224013C400BF074FD00B110BD03482146BDE810400BF004B90000FF1F70BDFF1F70B51B4B21
S224013C60186882B030B31A490A78FF2A22D0194C0D7823788DF8055023200321012601AA11
S224013C808DF806308DF80460FFF74EFB1248038A032100248B428DF8041004D00CD9052BBD
S224013CA001D00ED204232320032101AAADF80530FFF73AFB02B070BDB342F4D004D9022375
S224013CC0F1E74FF6FF73EEE72346ECE7204700200000FF1F0100FF1F70BDFF1F08B5012051
S224013CE002F00CFE44F22473C2F2000300221A6008BD00BF08B5FFF7ADFD00210120FFF789
S224013D00ABFE002001F088F8002001F081FE002000F0CEFD002003F0CBFD0020BDE8084010
S224013D2002F0ECBD2DE9F0418478C7780379012C28D0042C26D00026012B16D0174DFFF707
S224013D40E5FD2868B046C0B1C821204600F0F0FD38463221002201F09DFEB8F1000F15D13B
S224013D60BDE8F04101F0AEB81E460C4DFFF772FD28684FF001080028E6D1FFF76FFF0121B1
S224013D802960E1E7012BEFD00126D7E7304664211422BDE8F04101F059B800BF24470020A9
S224013DA02DE9F04103780446581E112817D8DFE810F085008A00B000C4001200CB00180014
S224013DC0080137003C0041004A0016005800160065007100760002F011F9002867D1BDE805
S224013DE0F0816088002840F00981B4F80500002840F000812089002840F01E81B4F80B00A1
S224013E00002840F01581E089002840F0FB80B4F811000028E3D0E17CBDE8F0410BF022BCCE
S224013E20A078BDE8F04103F043BDA078BDE8F041FFF7B4BDA378002BD1D178200146BDE8DA
S224013E40F0410BF00FBC03F0DBFDA17880F82010E27880F8212003F0F5FDBDE8F041FFF715
S224013E6069BD6A48B4F8032003689A4200F0B58067490020BDE8F04102F0A8BD654A1378F2
S224013E80012BACD96449D4F802200220BDE8F04102F09CBD6088BDE8F041FFF763BA00F0CC
S224013EA099FFA178017000F057FF002897D05B4841F28831BDE8F04102F0A2BC2046BDE845
S224013EC0F041FFF72FBFA778012F00F0BC80042F00F0B9802179012900F0C6800025FFF7DB
S224013EE015FD2F464E4E3368002B00F0B880A078B4F8051000F01CFDE078B4F80910E27A50
S224013F0001F0C8FD002D40F0A380BDE8F04100F0D9BFA078022800F09380032800F0A9807E
S224013F2001287FF45CAFC820FF210BF09BFB64200021BDE8F0410BF095BB3A4801210022AF
S224013F40BDE8F0410BF088B900F03CFFA51C40EA0506B20740F09080011DA21D904238BF89
S224013F608D42C0F08980D4F802300360D4F80650012645600822A3189119D5439E78531C38
S224013F806D188B42865405F0010510D02DB1E2189278C25401338B4209D0E6185A1CB678A0
S224013FA0A518C6540233AD788B428554F5D100F0D3FE58B119484FF4FA61BDE8F04102F0CD
S224013FC01FBCA078BDE8F04102F0FABC16484FF47A71BDE8F04102F013BCA07800F050F8F7
S224013FE000283FF4FCAE1149A2780020BDE8F04102F0ECBCE1790BF035FBFBE621790BF0B7
S22401400031FBF2E6217C0BF02DFB00E71CBC0020443E0300F400FF1F803E03002CBB0300B5
S2240140202447002040F303004CBB0300203E0300617B0BF017FBE6E6A17A0BF013FBDDE6B2
S2240140404FF42F7070E72779012F0ED0012546E7E179227A3846BDE8F04100F0F7BEFFF73B
S224014060FDFD0122326042E70027FFF7F3FB012538E74FF4966057E7092600227BE700BF29
S22401408070B5224E224C3378022B82B0054617D8002020608DB11F4A1F491368A3EB4534A2
S2240140A08C422BD334B12046022101F027F970B13278F2B9012002B070BD18480468F1E795
S2240140C01749236803202A4602F080FCE0E72046144941F6106201F0E1F804460028E7D1C7
S2240140E031780129E7D902200F4902F06FFC2046E1E701200D4902F069FCDBE78039009148
S2240141002A460B49234602F061FCD3E7F400FF1F1CBC00209CF20300C8920500C4F20300B0
S2240141208C3E03000C9E0020243F0300FC3E0300C83E030030B5024683B0F8B11749184B6A
S2240141400868A0EB423098421DD30378FF2B13D10122114641F6106507E0C35CFF2B0BD167
S224014160035DFF2B08D1AA420BD0415C531C941C0332FF291146F0D003B030BD094A106874
S224014180E3E70020F8E7A3F18001009103460649002002F01BFC0020D7E700BF9CF20300BB
S2240141A0C8920500C4F20300C83E030010B52B4C2378022B22D80020294947F2D83201F014
S2240141C0CDF838BB2078022829D8264903C9090301F0CCF800282DD12278022A2FD84FF42C
S2240141E080304FF4E02101F0C1F800B910BD1E494FF4803202F08EFC012010BD03201B4948
S22401420002F0E4FB0020164947F2D83201F0A6F80028D7D0154902F07DFC012010BD0320CD
S224014220134902F0D3FB0F4903C9090301F09EF80028D1D00E4902F06DFC012010BD032019
S22401424009494FF4803202F0C1FB4FF480304FF4E02101F08BF80028C8D0C8E7F400FF1F37
S224014260443F0300ACF203006CB3030018B3030040B30300022808B503D003280BD001204A
S22401428008BD064B93E8030001F038F8D0F1010038BF002008BDFFF789FFF7E7B4F20300C0
S2240142A02DE9F0418EB003F013FB002800F0B78003F00EFB0446C068754DC3077DD52A7835
S2240142C0012A03D90220734902F080FB724802F07DFA10F0FFF994E80F000AAC84E80F00AF
S2240142E00D9B204623F001010D9103F0FFFA2878012803D90220694902F068FB14F026F91A
S2240143002C78674A6748116847F2D4321AF036FD10F0FF0F4AD0012C03D90220624902F0AE
S22401432055FB624EDFF8B881F069614C15F0C8FB594802F04BFAD8F800702468029708AEA6
S22401434006AF009701965B482146082204AB0AF051FF40BB9DF81030002B3CD02978022974
S22401436071D8554A5348D8F8003021460AF0D4FE0246002862D12878022869D8D8F80020E3
S2240143804C48029204AB08220097019621460AF031FF9DF81020034608B9042A6ED00020FC
S2240143A0464902F013FB0EB0BDE8F081022CFAD90320434902F00AFBF5E72C78022C28D83F
S2240143C037493848096847F2D4321AF0D7FC10F0FF0FA0D1E7E72B78022B29D8D8F800104C
S2240143E034480291009701962146012204AB0AF001FF80460028D6D19DF810000328D2D13F
S224014400FFF7D4FE024640B340462E4902F0DEFAC9E703202C4902F0D9FA2C7871E72B4B4D
S2240144200FCB0AAC84E80F00204603F05FFA3FE703202749224602F0C9FACFE7002025499F
S22401444002F0C4FAAFE70320234902F0BFFA88E70320224902F0BAFA90E7214A1548136879
S2240144600097029301962146042204AB0AF0C2FE002898D19DF81010042994D128780128DC
S22401448003D90220174902F0A1FA14F05FF88AE7F400FF1FA4B30300E8BB0300B8B30300DF
S2240144A0BCF20300443F0300F0B30300EC95002094F20300AC00FF1F75420100C8B40300EE
S2240144C040B5030040B40300DCB30300183C03000CB4030084B4030070B40300ACB4030076
S2240144E020BC002014B5030046F67033C2F2000310B41A68511C19601C684FF40040E3053D
S224014500C4F20000DA0D44F26C7102EBC20300F58154C2F200014BF2605200F5805001EB14
S2240145204301C0F203022161026010BC704700BF484A08B50123B0F57A7F136005D80928C2
S22401454000F282800A20002301E04FF47A704249424A0B60424B10600020186002F0F6FA0D
S22401456040490A78032A4BD0C8214FF47A7002F057FE3C21B1EE040A4FF47A7002F0DCFD83
S2240145803221B1EE040A4FF47A7002F0D5FD7821B1EE040A4FF47A7002F0CEFD6421B1EED0
S2240145A0040A4FF47A7002F0C7FDB421B1EE040A4FF47A7002F0C0FD9621B1EE040A4FF4FF
S2240145C07A7002F0B9FDF021B1EE040A4FF47A7002F0B2FDC821B1EE040A4FF47A7002F002
S2240145E0ABFD4FF49671B1EE040A4FF47A7002F0A3FD4FF47A70FA21B1EE040A02F09CFDD7
S22401460019481A4B01681A4819601A494FF43043C4F20303002202600A6004221A621648C7
S22401462001210AF07FFE15F087F94FF4C043C4F203032E205860196841F001021A6018689F
S22401464040F48031196008BDB0F5FA7F94BF002301237CE754470020644700205C470020CD
S22401466058470020746B0020706B002068470020284700206047002078F30300C820FFF70A
S22401468057BF00BF2DE9F0477A4C7B49E06888B014F018FA7849E06814F05AFA7749E06869
S2240146A014F010FAE068754914F052FA4FF43043C4F2030301221A62FEF754FF28B1704AA4
S2240146C00121116008B0BDE8F08700F07FFB0078FF2808D000F07AFB0078FF28EFD1694817
S2240146E002F074F8EBE7684FC820FFF721FFD7F800A039680AF164058D4205D9E06915F060
S22401470019FA3E68AE42F9D3DFF89491D9F800603A680AF16E0A002152450091019102916E
S224014720039104910591069107915AD2574D8846D9F80030B3424CD0F005C30DDA00D1184D
S22401474035F8110081B211B90098411C0091D01805EB4001488881B211B90198411C019124
S224014760D01805EB4001888881B211B90298411C0291D01805EB4001C88881B211B9039882
S224014780411C0391D01805EB4001088981B211B90498411C0491D01805EB4001488981B2D0
S2240147A011B90598411C0591D01805EB4001888981B211B90698411C0691D31805EB4302C0
S2240147C0D08981B211B9079B5A1C079208F101080136E06915F0AEF938685045A8D34FEAB5
S2240147E06801009B99421ADB019A8A4217DC0298814214DB039B994211DB049A8A420EDC80
S224014800059888420BDC069B994208DB079A914205DB00F0DBFA0021017000F09DFA48F279
S22401482020001B4A1B490023C4F204001360C0690B70430207D54FF4C043C4F203031A68F0
S22401484022F08000186048F22001C4F204011248CB6923F48002CA6100210AF063FD4FF422
S2240148603040C4F2030001210162D9F800200B4B1A602FE7EC9500205800FF1F0400FF1F74
S2240148806C6B0020E8BA030024BC00206C47002054470020746B002078F3030068470020AC
S2240148A0706B002044F25473C2F200031868704710B51A4C207010B9FFF736F820B1C820AB
S2240148C0BDE81040FFF734BE48F22003144A2070C4F204031060D869410207D54FF4C041D9
S2240148E0C4F203010B6823F080020A6048F22001C4F204010B48CB6923F48002CA61002104
S2240149000AF010FD4FF43040C4F203000121064B01621A680548026010BD00BF746B00208C
S2240149205447002078F30300706B00206847002038B51A4C0D46207010B9FEF7F5FF20B1C5
S2240149402846BDE83840FFF7F3BD48F22003144A2070C4F204031060D869400207D54FF406
S224014960C041C4F203010B6823F080020A6048F22001C4F204010B48CB6923F48002CA61A3
S22401498000210AF0CFFC4FF43040C4F203000121054B01621A680548026038BD746B0020C5
S2240149A05447002078F30300706B0020684700202DE9F04FB44CB54D23682A68B4499342B8
S2240149C087B00F7800F03C81D805C20DB14E02EBC20306EB430047F6B831008ACFF6FE71F1
S2240149E064234EF2611210FB0313C9F6C84282FB0310C118DA17C2EB2123D8B2FDF76EFC5A
S224014A0028682368C11AB1F5007F3BD2DD05EB0DD900CA185200B018B55AA5F50065ADB24C
S224014A20B5524288A2F5006292B242808288A2F5006292B28280C288A2F5006292B2C2808E
S224014A400289A2F5006292B202814289A2F5006292B242818289A2F5006292B28281C289A4
S224014A60A2F5006292B2032FC28105D002F0B6FC2368D805C30DD900CA1806EB420000F0EF
S224014A8029FA2368023F022F05D9581C2060012007B0BDE8F08F804D804928680A68101862
S224014AA0B0F57A7F03902860EFD3DF05F90D01EBC1025000311844F22872C2F2000236F88F
S224014AC000B0B1F802A0B1F80490B1F80680B1F808C04F898E89C88911680FFA8BFE0FFAA4
S224014AE089F90FFA88F80FFA8CFC00B202910EF1080B09F1080108F1080E0CF1080C083062
S224014B004FEA21194FEA2E1802994FEA2C1E001144F22C7C0490C2F2000C0CEB01000499A7
S224014B20CDF814E07F29A8BF7F21DDF814E005915B490FFA8AFA09680AF108023FB24FEAD7
S224014B40221A08376FF07F0204913F110399BAF17F0FA8BF4FF07F0A9245B8BF924636B2FD
S224014B60B9F17F0FA8BF4FF07F097F2FA8BF7F27CDF80CA09145B8BF91469742B8BF1746CC
S224014B80A1F57A7108364FEA2B1B44F22C7A2960CDF804900097059D039FDDF80890029930
S224014BA03611BBF17F0FA8BF4FF07F0BC2F2000A9345B8BF9346B8F17F0FA8BF4FF07F08F4
S224014BC0BEF17F0FA8BF4FF07F0E7F2EA8BF7F260AF809B09045B8BF90469645B8BF96469B
S224014BE09642B8BF164647709542A8BF2A46009F019D80F80380857080F804E0477144F228
S224014C002877C2F20007049D86710831C2713960C5B910297FF439AF224D234B2868234AAB
S224014C20185CFEF709FB049939602A682368501C042828607FF429AF1A4A0021116024E742
S224014C40002025E7182915D028297FF41EAF154D154A2B6844F22C771421C2F20007D05C22
S224014C607A1844F22877C2F20007FEF7E5FA00203860DAE70B4D0C4A2B681421D05C0B4AC8
S224014C80FEF7DAFAD1E700BF68470020706B0020746B00206C470020584700205C470020B0
S224014CA064470020604700205CB503002C470020064B186840B106490A782AB94FF4304389
S224014CC0C4F2030350201860704700BF6C6B0020746B002068464FF4304320F00701C4F28C
S224014CE003038D4601B51869642202FB00F1A1F54A3042F60503FC38C4F65433A3FB0012B5
S224014D00C2F30720FDF7EAFABDE801408546704738B50D480D4C01F059FD0D4B1D686968E1
S224014D20AA68EB6828680FC455F8100F6968AA68EB680FC455F8100F696803C40548BDE83A
S224014D40384001F043BD00BFE8BA0300786B00208CF2030040BC0300124B10B51C68012135
S224014D60204600F0CBFA20B10F4A1378012093B910BD20460D49282200F090FA0446002831
S224014D80F2D10948017801290AD90220084901F01DFE204610BD074901F018FE012010BD7C
S224014DA0204610BD8CF20300F400FF1F786B0020A8B503006CB5030046F67830C2F2000008
S224014DC0704700BF00487047906B002000487047996B0020004870479A6B002010B50848E1
S224014DE0084C01F0F3FC01F02FFAE06914F0A2FE05480AF07FFA0028F5D113F0A7FBF2E746
S224014E00C0BA0300EC950020A4F3030046F6A433C2F200039868704748F2B44146F6A03216
S224014E20C2F20001C2F2000246F6A43310B4C2F2000300240C601460642114224FF0010C68
S224014E4083E80610D86010BC704700BFC82970B50646154619D9154B187878B9C82421462E
S224014E60A94215D31249134A134800230B6013600123046045608360C66070BD0A46012071
S224014E800E49C82301F0A2FDC821A9420C46E9D206490A780AB92546E4E72A4601200849AD
S224014EA0234601F093FD2546DCE700BFF400FF1FB4840020A06B0020A46B0020C0B50300D9
S224014EC000B6030046F6A433C2F2000300229A60704700BF2DE9F04FCA4F2DED048BBB687D
S224014EE093B00646002B00F0B98046F6A03048F2B441C2F20000C2F2000105680A68C24C38
S224014F0003925319C72B39D9039BAD004FEA830861194246204619F04BFF04F548704119B1
S224014F20424619F045FF04F5C8604119424619F03FFF04F516604119424619F039FF04F5C1
S224014F4048604119424619F033FF04F57A604119424619F02DFF04F596504119424619F0D2
S224014F6027FF04F5AF504119424619F021FF46F6A030C2F200000025039B0560B6F800B0BC
S224014F80B6F802A0B6F80490B6F80680B6F808C07089B189F6893A680FFA8BFB03EE90BAB1
S224014FA00FFA8AFA0FFA89F90FFA88F80FFA8CFC00B209B236B2B8EEE34A07EE10AA07EEED
S224014FC0909A00EE108A00EE90CA01EE100A01EE901A02EE906A04EB8301039E81ED004A79
S224014FE003F5C87B03F5167A03F5487903F57A7803F5966C03F5AF600B4648F2B44101368D
S224015000F8EEC74AB8EEE75AF8EEC05AB8EEE06AF8EEC16AB8EEE12AB8EEE23AC2F2000183
S22401502004EB8B0B04EB8A0A04EB890904EB880804EB8C0C04EB80009642C3EDC84A039639
S2240150408BED005A0E60CAED005A89ED006AC8ED006A8CED002A80ED003A04D213B0BDEC6E
S224015060048BBDE8F08F00F2D9804CF6CD4608EE102ACCF6CC4603980DF148090023A6FB25
S2240150800261624A09F8243D05EB000BB8EE489A05930693079308934FEA910E9846DFED2E
S2240150A05C9A23469FED5B8ADFED5B8A0DF1120A02EB8B06C82074469C465D4580F0BB8000
S2240150C000FB08510CEB810292ED004A1346B11AF0EE693A00229E42C1F3800144EE043AE7
S2240150E0B0EE447A47D0D1B1043393ED007AB4EEC84AF1EE10FA47EE073A04D9B4EEC87AB0
S224015100F1EE10FA09D8B4EEE84AF1EE10FA2FDAB4EEE87AF1EE10FA2ADA9E422BD093EDAD
S224015120014AB4EEC87A191DF1EE10FA44EE043A04D9B4EEC84AF1EE10FA0AD8B4EEE87A4B
S224015140F1EE10FA04DAB4EEE84AF1EE10FA00DB013291ED017AB4EEC84A0B1DF1EE10FAF9
S22401516047EE073ACAD8B4EEE84AF1EE10FACFDB01329E42D3D1944294BF0023012303FA86
S22401518008F2D3B283EE890AF1EEC04AF4EE644AF1EE10FA53D1FCEEE47A08F1010817EEB1
S2240151A0901A2AF8021F9DF8241014EE902A1943B8F1080F49F8042F8DF8241006F5487675
S2240151C07FF47BAF7B680398FA6846F6A036C2F20006ED18356048F2B446C2F20006C31A1B
S2240151E033601AB90AA8FEF767FC37E72720112105AAFEF721F89DF824100AA8FEF75CFC1D
S2240152002CE700BFA46B0020B46B0020B06B0020000000000000A0420000A0C2FFF7DEFDF8
S2240152200D4A0E4815680268039546F6A033C2F200031D6819E7DFED0A3A0023A2E70190A4
S2240152400293CDF800C01BF04DFBDDF800C0029B0198F0EE404A9EE7B4840020A46B00209C
S2240152600000000048F2B8404EF6017208B58021C0F20102C2F2000009F016FE4BF62043C7
S224015280C2F20003186040F2AC00C1F6FF7009F0E1FEBDE80840FFF73BBD00BF70B5124BE1
S2240152A01B78022B82B004460E46154615D871B60E490F480A683346009221462A4609F0EE
S2240152C0D3FE61B638B100900A4900202A46234601F07CFB012002B070BD032006492346D8
S2240152E001F074FBE3E700BFF400FF1F20BC0020AC00FF1F64B6030044B6030070B5124B4B
S2240153001A780D03022A82B00E46044614D871B60E490F480B682A46214609F007FE61B6C9
S22401532040B10190009400200A4932462B4601F04DFB012002B070BD009007490320324641
S2240153402B4601F043FBE2E7F400FF1F20BC0020AC00FF1FD8B60300A0B603004FF2B42304
S224015360C0F203031B681818FFF798BF4FF2B42310B4C0F20303044618680A462018214622
S22401538010BCFFF78BBF00BF30B5114B114C1A6823684FF47A7505FB02F283B00546B2FB40
S2240153A0F3F00C46FEF746FC0B4801788A1E012A01D903B030BD00231F20032101AA8DF8AC
S2240153C004308DF805508DF80640FDF7ADFFF0E7AC8500203C850020B485002048F2A853B7
S2240153E0C2F2000301221A60704700BF48F2B853C2F2000301221A60704700BF044B054931
S2240154001A68501C18600B6803B1704702F0D4B9B0850020CC8500202DE9F04182B002ADD5
S224015420184C05F8011D864617462068164E00217246984614F0BEF9002333600122002364
S2240154402068294614F0B6F80828F7D0306818B930BF31680029FBD00C4D00222A60012398
S224015460206841463A4614F025F90828F7D02B681BB930BF2B68002BFBD0002002B0BDE828
S224015480F08100BFEC950020A8850020B8850020F0B585B0114D8DF80010074619460DF114
S2240154A0010016460E4C19F07AFC286800213A4614F080F9002323600136012328686946C2
S2240154C0324614F077F80828F7D0206818B930BF20680028FBD0002005B0F0BDEC950020FE
S2240154E0A885002030B54FF47043C4F2070389B0187800F02001CAB2002A5CD048F22005B3
S224015500C4F204054FF440406B69C4F204004FF2C004C4F20F0423F040014FF48072696154
S2240155200262656945F4807363610A2002F0CAFAE06840F48071E1600A2002F0C3FAE26892
S22401554042F480750A20E56002F0BCFAE36843F48071E1600A2002F0B5FAE06840F4807216
S224015560E2600A2002F0AEFAE56845F48073E3600A2002F0A7FAE16841F48072E2600A20CA
S22401558002F0A0FAE06840F48075E5600A2002F099FAE36843F480710A20E16002F092FAB8
S2240155A0E26842F48070E0600A2002F08BFAE56845F48073E36000214548464C09F0B2FEEF
S2240155C0642002F07FFA0121414809F0ABFE642002F078FA206813F083FF642002F072FAB2
S2240155E000200BF02BFA0EF05DFD19F0FBFA18F057F818F0DFFAFFF7DFFB18220446FF2163
S22401560002A819F0EDFB204602A9182219F0B6FB00282BD1304D2A78002A54D115F0F4F861
S22401562017F0A8FA18F020FB0DF0C8FA0EF05AFD28782A4C0023022823703AD84FF4FA70CF
S2240156400A2128220CF0C8FA0446002828D10DF025FF0DF033FF0DF029FF214A14602148E9
S224015660092109B0BDE8304009F092BE1A4D2978012903D902201C4901F0A8F9032104F1A3
S2240156800C000DF039FC032120460DF00DFD15F0C7F80DF003FF0DF011FF0DF007FFBFE7BC
S2240156A02823009311494FF4FA720A2301F032FAD5E72821009103200C494FF4FA720A23C9
S2240156C001F084F9BAE70120094901F07FF9A5E79CF30300EC950020F400FF1FB4850020AF
S2240156E0CC85002000F3030080B70300B0B703002CB703002DE9F041924E934F336892B0CD
S22401570004460D46002B00F0BB803868DFF87882844200F0108100200BF090F979200BF0A0
S224015720B9F878200BF064F820463C600AF00CFF20460AF0DFFF4FF4FA600AF0E3FD1020D7
S2240157400AF040FE0AAF814C002D40F0C780384688F800500AF078FE02A80AF0E7FE06A8EC
S2240157600AF0AEFD68460AF00BFE08A80CF02AFA04A80AF0B7FF2378744D022B00F2838023
S224015780BDF8083044F24025C0F20F0595FBF3F00DF098FABDF8080095FBF0F00DF0ACFAE3
S2240157A0BDF8081095FBF1F00DF0C2FA684B1A46186859681D7A0CAB03C352F80C0F1D7092
S2240157C05168127A0FAD03C50CA82A700EF072FBBDF81810C9030DF06DFA0CA80EF06AFB1D
S2240157E09DF80030D9030DF001FB0FA80EF062FBBDF82020D1030DF001FB2078022800F281
S2240158009580544DE86914F095F90CF07DFC002840F08780E86914F08DF92178022973D82B
S2240158200CA80EF047FB0CF07BFC4B480DF02EF901200CF057FE02200CF0A0FFBDF8080058
S2240158400CF01EFD2078022859D807200CF0F8FD082107200CF044FD01200CF017FE6420DD
S2240158600CF02AFE01200BF04BFC20B90121316012B0BDE8F0810020384901F0A7F8F7E728
S224015880DFF8048147E703203549BDF80820BDF8183001F09BF8287802287FF671AF0320F7
S2240158A03049BDF808209DF8003001F08FF8297802297FF665AF0320BDF810202A49BDF8CA
S2240158C0203001F083F82A78022A7FF659AF03202649BDF8282001F079F851E738460AF01A
S2240158E0B3FD2278012A06D902202149BDF828302A4601F06BF828460AF0CEFD27E703208D
S2240159001C4901F063F8A0E703201B4901F05EF80E4B1A78022A83D90320184901F056F845
S2240159207EE70020164901F051F873E70320154901F04CF865E798F80010A9427FF4EBAE50
S22401594096E700BFCC8500203C850020F400FF1F283C0300EC95002089530100C4B903003C
S2240159603CB803008CB80300E0B803002CB903000CB80300ACB903007CB903009CB90300A1
S22401598060B903004CB903004485002032200021FFF7B0BE10B5174B174A187800210228BA
S2240159A082B011701CD84FF4FA700A2128220CF013F9044650B90DF071FD0DF07FFD0DF0DC
S2240159C075FD0E4B20461C6002B010BD282100914FF4FA720A490A2301F09CF80120F3E70C
S2240159E028240094032006494FF4FA720A2300F0EDFFD8E7F400FF1FB4850020CC850020FC
S224015A00B0B7030048F2CC53C2F200031868704710B51C4C82B0207010B9FDF785FF30B1BE
S224015A203220002102B0BDE81040FFF763BE164B2070187802281AD84FF4FA700A21282270
S224015A400CF0CAF8044648B90DF028FD0DF036FD0DF02CFD0D4A146002B010BD2823009397
S224015A600B494FF4FA720A2301F054F8F4E728210091032006494FF4FA720A2300F0A6FF1B
S224015A80DAE700BFB4850020F400FF1FCC850020B0B7030070B51D4C82B00D46164620703B
S224015AA010B9FDF741FF30B12846314602B0BDE87040FFF71FBE164B2070187802281AD8A6
S224015AC04FF4FA700A2128220CF086F8044648B90DF0E4FC0DF0F2FC0DF0E8FC0D4A146065
S224015AE002B070BD282300930B494FF4FA720A2301F010F8F4E728210091032006494FF450
S224015B00FA720A2300F062FFDAE700BFB4850020F400FF1FCC850020B0B7030048F2D05372
S224015B20C2F2000393ED000A704700BFF0B5B34DB34C2A6823689A42ABB000F0C88004A8CC
S224015B400DF10F01AF4E00900191002206AB09A80BA90CF071FE32689DF80F70531C3360BF
S224015B600FB92D682560BDF8104014F0700F40F00B8104F0080001B208AF002940F01981A0
S224015B8018AC06A90DA80BF0C3FF0146002800F026810DF0AFFD3946204606AA0CF0F8FFE3
S224015BA0994C394606AA0FA80CF0DAFF394606AA12A80CF0E1FF6768109D22680F9E11981E
S224015BC0A368E91B8911B71ABA1101FB01F1C31A02FB0217991101FB0172B2F5803F8B4F40
S224015BE014D93D688A480DB905683D600668AB1B022B03D80F9E109D119809E001F0DCFD79
S224015C000F9E109D119826606560A06000243C60129ABDF96210139BBDF966C0BDF96AE012
S224015C20BDF96E70ADF880101413149AADF882C0191376116D1140111313ADF884E0ADF883
S224015C408670ADF88860ADF88A50ADF88C00ADF88E40ADF89010ADF89230FDF783FC002851
S224015C6037D06C4B0F9A1E681A60B21A109D5F68694C11989E6869495D6001EE902A9FED6F
S224015C80682AF8EEE12A7F1B04EE107A94ED003A62EE823AF8EEC45A361A03EEA33A05EE89
S224015CA0106A65EE824AF8EEC56A04EEA43A26EE827A0A68986007EE073A0132642A84ED7E
S224015CC0003A0A6000F0B48001202BB0F0BD0020FBE75448017801297BD0032979D004291F
S224015CE000F0C480BDF98E00BDF99010BDF9922006EE900A07EE101A06EE102ADFED4A7AFD
S224015D00B8EEE60AF8EEC70AB8EEC61A60EE271A20EEA72A61EE272A15A8CDED151A8DED7C
S224015D20162ACDED172AFDF71DFFBDF98400BDF98230BDF98610BDF9802003EE900A03EE52
S224015D40103A04EE101A05EE902ADFED384AB8EEC35AF8EEE36AB8EEC47AF8EEE57A25EEAA
S224015D60246A26EEA40A67EE240A27EEA41A1CA88DED1C6A8DED1D0ACDED1E0A8DED1F1A7D
S224015D80FDF7F8FE0120A0E7069909A808AF0DF085FA394607A80AF051F8089907980DF03A
S224015DA067FBBDF8104004F0080001B200293FF4E7AEBDF92C50BDF92E60BDF93030069AAA
S224015DC0189518AC2046002119961A930DF0FAF9D7E61C20142120AAFDF72EFA82E7BDF946
S224015DE03400BDF93650BDF938601890069A199520461A960DF0A0FACBE600BFB085002077
S224015E00C8850020AC850020BC8500204085002024BC0020D4850020D085002038850020AD
S224015E2000008037B48500200000803D0000803813EE100AFBF748FA02460B462248234919
S224015E40234E18F041FF85B200E030BF70681E492A4612F0F7F90828F7D04FF4FA60002325
S224015E60FF21236009F0FEFB01202EE7BDF88230BDF88020ADF89630BDF88430ADF8942068
S224015E80ADF89830BDF88630ADF89A30BDF82C30ADF89C30BDF82E30ADF89E30BDF8303098
S224015EA0ADF8A030BDF82430ADF8A230BDF82630ADF8A430BDF828301C20142125AAADF871
S224015EC0A630FDF7B9F90DE768850020DCB90300EC95002070B58AB007A904A80BF06AF9ED
S224015EE004460DF10A000AF059FC079ABDF80A300898099E03FB00F103FB02F503A803FB97
S224015F0006F30891099307950AF01CFCDDED045A9DED056A9DED060ADDED037AF8EEE56A68
S224015F20B8EEC67AF8EEC00A26EEA71A67EE871A27EEA02AFDEEC12ABDEEE13AFDEEC23A98
S224015F40CDED042A8DED053ACDED063A0DF0A6FA0DF0B4FA0DF0AAFA072C21D01F4E204ABC
S224015F60204B21482149224D14F0010F18BF324614F0020F18BF334614F0040F1D4C08BF5F
S224015F802646009618F0A0FE84B200E030BF68681549224612F056F90828F7D00AB070BD89
S224015FA0154E114C124D0FCE0FC496E8030023460A0C43F8040B07A819800321A2710CF047
S224015FC09BFF04A803210DF06FF816240DF066FA0DF074FA0DF06AFAD9E700BFA4B50300AF
S224015FE0FCB9030004BA03004885002030BA0300EC9500200CBA030018BA0300F0B585B02F
S224016000FEF7DAFE00F10C05294604460BF0D2F807460DF10A000AF0C1FBBDF80A30626968
S224016020E668216903FB02F003FB06F603FB01F121616061E66003A80AF084FBD4ED005AE0
S22401604094ED016A94ED020ADDED037AF8EEE56AB8EEC67AF8EEC00A26EEA71A67EE871AE4
S22401606027EEA02AFDEEC12ABDEEE13AFDEEC23AC4ED002A84ED013AC4ED023A0DF00EFA3F
S2240160800DF01CFA0DF012FA072F32D0264D2E78012E03D90220254900F098FCFF21182214
S2240160A0204618F09DFEFEF757FE2978E1B914F0ABFB01262A78012A13D9A0681C4994E8D9
S2240160C00C000090022000F081FC174B1978012907D96069E268236916490090022000F0F2
S2240160E075FC304605B0F0BD0120134900F06EFCDDE7FEF731FE0321064628460A4D0CF061
S224016100FBFE032120460CF0CFFF0DF0C7F90DF0D5F90DF0CBF92B78012BE2D902200749E7
S22401612000F054FCC6E700BFF400FF1F40BA03007CBA030098BA030050BA030068BA0300DE
S2240161402DE9F843FEF73EFE037842788178C6780579B3F1FF0C18BF4FF0010CFF2A18BFFB
S2240161604FF0010C0446FF2918BF4FF0010CFF2E18BF4FF0010C407994F8069094F80780FA
S224016180277AFF2D18BF4FF0010CFF2818BF4FF0010CB9F1FF0F18BF4FF0010CB8F1FF0F2D
S2240161A018BF4FF0010CFF2F27D01A4F3F78012F09D90220184900F009FC23786278A17859
S2240161C0E6782579607963B1144C5B085208490823706270A170124B1E705D709870BDE887
S2240161E0F883002AF0D10029EED10C4BA779E179227A1F7059709A70EDE7BCF1000FD4D147
S224016200044B18780028EAD006490120BDE8F84300F0DCBBF400FF1FA4BB0300EC00FF1F62
S224016220F000FF1F58BB0300044B1A78824204D0034918700A68034802607047EC85002080
S22401624024BC0020F48500202DE9F04F644B18688BB0002800F0BA80624B634C1968226827
S2240162609142C0F0BB80614F3A68002A00F0B1805F4D1E6829688E4280F0AB8002921F6874
S2240162801868117820F01F0017F0200F00F120000CBF4FF0FF0C4FF0000C2060042900F27A
S2240162A08582DFE811F0740255028201AD0005001D681E68D3F800E0186848F21F51C5F270
S2240162C0EB11A1FB0557A1FB06864AF6AB253F09CAF6AA253609A5FB079CA5FB06A54FEAAF
S2240162E05C086D0808EB480905EB4505C9EB0707761B02EBC70502EBC607A1FB00B16E6858
S2240163004FEA1119B96896F800C096F801A0B7784D780E7891F8028032210EF1320B01FB66
S2240163201900C0EB0B002060029929B13049096881423CBF216008462E49097861B3DFF839
S224016340BCE0724528D0D3F800901A6822F0FF0E0EF58072824206D22248026822F0FF007A
S22401636000F580702060022900F027824FEA89518A0D111110D11B6823F00F071037874285
S22401638080F01E821748026822F00F0310334FF0FF0A23600F46D446174C6146206809F0F2
S2240163A017FA6068514609F013FAA068394609F00FFAE068314609F00BFA2069294609F02A
S2240163C007FA6069414609F003FA01200BB0BDE8F08F00263E600246029650E70020F5E799
S2240163E0E485002024BC0020F485002004860020F0850020EC850020D400FF1F40BC0300B4
S224016400D24D1F6828681E681968D2F804C0D2F80CE005913F1AC7F38119C0EB0608A9F15F
S2240164200201D2F808B01569C8F3811A09F1FF3601298CBFE146F1460AF1FF30AAF1020A2A
S224016440BAF1010F8CBF5946294601288CBF5846284699F800B0012E8CBF66467646CDF8BA
S2240164600CB099F801B096F802A096F800C07578CDF810B099F8029091F800B0067890F8C6
S22401648001E0CDF81890BF00FFB291F80190CDF81CB080788978CDF82090C7F1FF0B0CFB56
S2240164A007FC05FB07F54FEA88080AFB07F7DDF80CA009915FFA88F8C8F1FF090BFB0ACC7A
S2240164C006FB08F6DDF818A00EFB08FE00FB08F0DDF810800AFB0B7708FB0B55DDF824A040
S2240164E0DDF82080DDF81CB048F28101C8F2800108FB09EE0AFB090009FB0B6681FB0C9BE9
S22401650081FB0789CDF81C9081FB0689CDF8209081FB0E89CDF8109081FB008981FB058AF0
S224016520CDF824900BEB0C084FEAEC7CCDF818C00499DDF824C0CDF80C800AEB050BCDF823
S22401654004B04FEAE57ADDF80CB0DDF82080DDF81C9001EB0E050CEB0001DDF818C0C017E7
S224016560CCEBEB1CB044CDF80CC0C0EBE111DDF804C00598F617B944C6EBE816FF17DDF85B
S2240165800C804FEAEE7ECAEBEC1AC7EBE917CEEBE51501305FFA88FC5FFA8AFAFFB2F6B260
S2240165A0EDB25FFA81F82060BEE6684E1F6830681D681968D2F804C0D2F80CE005913F1A32
S2240165C0C7F30129C0EB0508A9F10201D2F808B01669C8F3012A09F1FF3501298CBFE146CB
S2240165E0F1460AF1FF30AAF1020ABAF1010F8CBF5946314699F800A0012D8CBF6546754661
S224016600CDF80CA099F801A095F800C095F801E0CDF810A001288CBF5846304691F800A0F0
S22401662095F802B099F8029006784578CDF81890FFB291F80190CDF81CA080788978CDF840
S2240166402090C7F1FF0A0CFB07FC0EFB07FE0BFB07F7DDF80CB009915FFA88F8C8F1FF09E2
S2240166600AFB0BCC06FB08F6DDF818B005FB08F500FB08F0DDF810800BFB0A7708FB0AEEC5
S224016680DDF824B0DDF82080DDF81CA048F28101C8F2800108FB09550BFB090009FB0A666A
S2240166A081FB0C8B81FB0798CDF81C8081FB0698CDF8208081FB0598CDF8108081FB009844
S2240166C081FB0E9ACDF824800BEB0C094FEAEC7C0AEB0E0BCDF818C04FEAEE7A0499DDF8BD
S2240166E01CE0DDF824C0CDF80C90DDF82080CDF804B00EEB0709DDF80CB001EB050E0CEB00
S2240167000001DDF818C0B044C017F617CCEBEB1CC6EBE816C0EBE1180599CDF80CC0DDF8D8
S22401672004C0481CFF17ED1703992060CAEBEC1AC7EBE917C5EBEE155FFA81FC5FFA8AFA22
S224016740FFB2F6B2EDB25FFA88F8EDE5E88500201F681E68186887F0200586F02001C5F38B
S2240167604017C1F3401602EBC70502EBC6016F68896897F800C097F801A00E78BF784D787C
S22401678091F8028020F01F0020302060CCE55068916890F800C090F801A087780E784D78CC
S2240167A091F802804FF0FF302060BDE54FF00008454646464746C246B6E55FFA89F2D8E519
S2240167C04FF0FF0A0F46D446E6E500BF30B44BF62443C2F2000348F2E45448F2F45148F204
S2240167E0E8521D681B68C2F20004C2F20001C2F2000220600D60136030BCFFF725BD00BF4B
S22401680010B5104B984282B015D00F4B0F4A18604CF6CD4014681268CCF6CC40A0FB010186
S22401682004EBD1030A480B4903600A6002B0BDE81040FFF709BD01900091FFF781FC00998B
S2240168400198E2E74CBB03000486002024BC0020F0850020F4850020194B1A4A1968106035
S22401686049B11949002822D009681848184B002908BF184608E0144B88B918681549164A54
S22401688000280CBF10460846144A154B1168186014481268016014490A60FFF7D5BC1968A6
S2240168A0124A134B00290CBF10461846ECE70868104B114A00280CBF10461846E4E700BF46
S2240168C0F885002000860020E0850020FCBA0300DCBB0300FCBB030010BC030024BC00200E
S2240168E0E4850020F4850020E885002040BB03004CBC0300D4BA030024BC03001A4B1B499D
S22401690018600A6850B1002A25D01949194B0868194A00280CBF1046184608E092B9144898
S224016920164B0168164A00290CBF10461846154B19681A68144B18601448016014490A60C1
S224016940FFF782BC0A49134B0868134A00280CBF10461846EBE70649104B0868104A00286A
S2240169600CBF10461846E2E7F885002000860020E0850020FCBA0300DCBB0300FCBB0300F4
S22401698010BC030024BC0020E4850020F4850020E88500204CBC030040BB0300D4BA0300D9
S2240169A024BC0300024B186800B97047FFF74CBCFC85002048F2FC53C2F2000318607047A3
S2240169C048F20863C2F20003187070470EB42DE9F0434E4BC8B04FAC53F8200054F8042B19
S2240169E0058801944FF4807123460DF11E00ADF81C5018F08DF9044607A818F01DF9444973
S224016A0091F80080B8F1010F04D048B0BDE8F04303B070470334F8D446F6CB32CAF628720A
S224016A20A2FB0426A71B06EB5703132C4FF00009C3F3001750DC02A807A9224618F0AFF98A
S224016A408DF81B8038201421133C02AA1326FCF76BFC002CD9DB97B1B4422CDC07AA911974
S224016A6002A8224618F09BF98DF81B8038201421133C02AA1336FCF757FC002CC5DB07A8B0
S224016A80132C00EB060702AD36DD38687968BA68FB68B7F810E0BF7C8DF81B900FC5A5F876
S224016AA000E0AF7038201421133C02AA1336FCF73BFC132CD2DD07ADAF1902AD386879683C
S224016AC0BA68FB68B7F810C0BF7C8DF81B900FC5A5F800C0AF70C9E707980899099A0A9BB9
S224016AE0BDF82CE09DF82E608DF81B9002AD0FC5A5F800E0AE70A5E707A98919224602A86E
S224016B0018F04DF98DF81B80CCE700BF60BC0300088600200EB430B5C2B045AC054654F821
S224016B20042B4FF48071234602A8019418F0F0F84BF674410020C0F2030102AA2B46FFF775
S224016B4045FF42B0BDE8304003B0704748F6FC1048F67C3148F20C62C2F20001C2F2000034
S224016B60C2F200022DE9F00F48F28C7C07460E4614460023C2F2000C47F8043B46F8043B29
S224016B8044F8043B6546043745F8043B04360434043547F8043B46F8043B44F8043B45F8B4
S224016BA0043B47F8043B46F8043B44F8043B45F8043B47F8043B46F8043B44F8043B45F8EB
S224016BC0043B47F8043B46F8043B44F8043B86B045F8043BB8463746264601F5947945F821
S224016BE0043B48F8043B46F8043BCDF8049001F5987A01F59A7947F8043BCDF808A0CDF83A
S224016C000C9001F59C7A01F59E79CDF810A0CDF81490C8F8003043604B603B6033602B60E4
S224016C205360CCF80430036243628362C362036343638363C3630B624B628B62CB620B63D5
S224016C404B638B63CB63136253629362D362136353639363D363CCF82030CCF82430CCF8C8
S224016C602830CCF82C30CCF83030CCF83430CCF83830CCF83C30036443648364C36403656A
S224016C8043658365C3650B644B648B64CB640B654B658B65CB65136453649364D3641365E6
S224016CA053659365D365CCF84030CCF84430CCF84830CCF84C30CCF85030CCF85430CCF8AE
S224016CC05830CCF85C30036643668366C366036743678367C3670B664B668B66CB660B67D4
S224016CE04B678B67CB67136653669366D366136753679367D367CCF86030CCF86430CCF87C
S224016D006830CCF86C30CCF87030CCF87430CCF87830CCF87C30C0F88030C0F88430C0F841
S224016D208830C0F88C30C0F89030C0F89430C0F89830C0F89C30C1F88030C1F88430C1F89A
S224016D408830C1F88C30C1F89030C1F89430C1F89830C1F89C30C2F88030C2F88430C2F872
S224016D608830C2F88C30C2F89030C2F89430C2F89830C2F89C30CCF88030CCF88430CCF82F
S224016D808830CCF88C30CCF89030CCF89430CCF89830CCF89C30C0F8A030C0F8A430C0F8C1
S224016DA0A830C0F8AC30C0F8B030C0F8B430C0F8B830C0F8BC30C1F8A030C1F8A430C1F81A
S224016DC0A830C1F8AC30C1F8B030C1F8B430C1F8B830C1F8BC30C2F8A030C2F8A430C2F8F2
S224016DE0A830C2F8AC30C2F8B030C2F8B430C2F8B830C2F8BC30CCF8A030CCF8A430CCF8AF
S224016E00A830CCF8AC30CCF8B030CCF8B430CCF8B830CCF8BC30C0F8C030C0F8C430C0F840
S224016E20C830C0F8CC30C0F8D030C0F8D430C0F8D830C0F8DC30C1F8C030C1F8C430C1F899
S224016E40C830C1F8CC30C1F8D030C1F8D430C1F8D830C1F8DC30C2F8C030C2F8C430C2F871
S224016E60C830C2F8CC30C2F8D030C2F8D430C2F8D830C2F8DC30CCF8C030CCF8C430CCF82E
S224016E80C830CCF8CC30CCF8D030CCF8D430CCF8D830CCF8DC30C0F8E030C0F8E430C0F8C0
S224016EA0E830C0F8EC30C0F8F030C0F8F430C0F8F830C0F8FC30C1F8E030C1F8E430C1F819
S224016EC0E830C1F8EC30C1F8F030C1F8F430C1F8F830C1F8FC30C2F8E030C2F8E430C2F8F1
S224016EE0E830C2F8EC30C2F8F030C2F8F430C2F8F830C2F8FC30CCF8E030CCF8E430CCF8AE
S224016F00E830CCF8EC30CCF8F030CCF8F430CCF8F830CCF8FC30C0F80031C0F80431C0F83D
S224016F200831C0F80C31C0F81031C0F81431C0F81831C0F81C31C1F80031C1F80431019DAB
S224016F40DDF808A0C1F80831C1F80C31C1F81031C1F81431C1F81831C1F81C31C1F82031BC
S224016F60C1F824312B60C1F82C31049DCAF80030DDF80CA0C2F8003148F6FC44CAF80030ED
S224016F80C2F20004C2F80431C2F80831C2F80C31C2F81031C2F814312B60C2F81831C2F818
S224016FA01C31CCF80031CCF80431CCF80831CCF80C31CCF81031CCF81431CCF81831CCF8B3
S224016FC01C31C0F82031DDF81490C0F82431C0F82831C0F82C31C0F83031C0F83431C0F8BB
S224016FE03831C0F83C31C9F80030C2F82031C2F82431C2F82831C2F82C31C2F83031C2F8F3
S2240170003431C2F83831C2F83C31CCF82031CCF82431CCF82831CCF82C31CCF83031CCF866
S2240170203431CCF83831CCF83C31C0F84031C0F84431C0F84831C0F84C31C0F85031C0F8DA
S2240170405431C0F85831C0F85C3101F5927BC1F84031C1F84431C1F84831C1F84C31C1F8A3
S2240170605031C1F85431C1F85831C1F85C31C2F84031C2F84431C2F84831C2F84C31C2F845
S2240170805031C2F85431C2F85831C2F85C31CCF84031CCF84431CCF84831CCF84C31CCF8F0
S2240170A05031CCF85431CCF85831CCF85C31C0F86031C0F86431C0F86831C0F86C31C0F86E
S2240170C07031C0F87431C0F87831C0F87C31C1F86031C1F86431C1F86831C1F86C31C1F8ED
S2240170E07031C1F87431C1F87831C1F87C31C2F86031C2F86431C2F86831C2F86C31C2F8C5
S2240171007031C2F87431C2F87831C2F87C31CCF86031CCF86431CCF86831CCF86C31CCF86F
S2240171207031CCF87431CCF87831CCF87C31237006B0BDE8F00F7047F8B5324D2C780B2CB6
S2240171402DED028B59D8B0EB410F56DB00EE901A07EE100AF8EE606A9FED2B1AF8EE477A66
S22401716066EE811A80EE270A284E294FC1EEA72AF7EE008AB0EE082A12EE900AB0EE688AA4
S22401718000EE428AFAF7A0F841EC100B19F0A4F951EC100BFAF7AEFB38EE086A03EE100A23
S2240171A026EE034A73EE033A78EEC44A48EE084AF0EE005A35EEE35AF8EE007A84EE857A65
S2240171C014491548154AA300C018F618C918D2180134FB182C7028EE488A67EE270A80ED7D
S2240171E0007A60EE836A86ED007AC1ED006A82ED004A83ED008A002000E00120BDEC028BC5
S224017200F8BD00BFFC8C0020DB0FC9400C890020CC8900203C8900206C8900209C890020F0
S224017220F8B55F4D2C780B2C2DED048B02D8B0EB410F03DA0120BDEC048BF8BD02EE101AA1
S22401724007EE100AF8EE428AF8EE477ADFED550A88EEA70A544F554EB6EE008A20EE201AB2
S22401726061EE088A38EE680A19F0D8FAB0EE409A38EE880A19F0D2FAC9EE001A4C484D49B4
S2240172804D4AA300FF18F618C918D2180134C3182C700020DFED496A9FED493ADFED492A25
S2240172A0F0EE665A41EE835A71EEA13A21EEA62A21EEA25A9FED446A9FED444A33EEA27A69
S2240172C021EE840A61EE860A41EE825A01EE857AF7EE004A75EE247ADFED3D6A41EEC07A27
S2240172E021EEA01A11EEE15A01EEE67A75EEC22A76EE421A31EE423A9FED362A82EEA70A7F
S22401730071EE815A73EE063A35EE425A87EE277AC5EEA70A83EEA74A85EE271ADFED2E7AC9
S22401732060EE271A77EEC76AF0EE675A24EE276A20EEA73A41EE676A47EE675A71EEA02AD2
S22401734030EE030A72EE860A35EEC15A31EE837A36EE001A77EEE61A30EEA72A34EE073ABD
S22401736072EE017A31EEC54A37EE836A74EEC44AF1EE666AC6EE242AF1EE453AC0EEA25AC3
S22401738083EE220AC1EE220AC7ED005AC6ED000A81ED000AC2ED006AC3ED003A4BE700BF38
S2240173A0FC8C0020DB0FC9400C8900203C890020CC8900206C8900209C8900204290933E20
S2240173C0429093BE0B702D3F4290133E980082BE980002BF9800823E000000002DE9F04F9C
S2240173E02DED028BA04B87B0197804908A000020059101920290B6EE008A049C059A23881C
S22401740019B207EE901AB8EEE77A002A00F00F81029CDFF85882DFF858C2DFF858E2DFF823
S22401742058A2DFF8589248F6FC16A500C2F20006771997ED006A98ED000ADCED006A48F65E
S2240174407C30C2F2000066EE000A461947EE260A96ED001ADEED005A48F20C6BC2F2000B72
S2240174600BEB050445EE810AD4ED001A00979AED002A48F28C73019F0098C2F20003043FBB
S2240174805D1941EE820A0397D5ED002A17EE107A99ED005A314645EE220A40F8207B16EE13
S2240174A0107A2B4641F8207B11EE907A224643F8207B10EE907A42F8207B039FC7F38007F0
S2240174C00397019F4FF0040BBB45B0EE607A00F0AE80039FDFB3DDF800B0009F08F104082B
S2240174E09BED083AD8ED003A0CF1040C9CED004A63EE237A40EE847A0EF1040ED6ED086A7D
S224017500DEED004A0AF1040A44EEA67AD4ED080A9AED006A09F1040940EE867A95ED081A58
