S02B00006D796F2D636F72652D6170706C69636174696F6E2D5245565F442D6E6F2D636865636B73756D2E680B
S224010000000001206D2201007DF5010093F5010093F5010093F5010093F5010093F5010009
S22401002093F5010093F5010093F5010093F5010093F5010093F5010093F5010093F5010072
S2240100409DFD0100CDFD0100FDFD01002DFE010093F5010093F5010093F5010093F50100E9
S22401006093F5010093F5010093F5010093F5010093F5010093F5010093F5010093F5010032
S22401008041FD010093F5010093F5010093F5010093F5010093F5010093F5010093F501005C
S2240100A0ED01020093F5010093F5010093F5010093F5010093F5010093F5010025F40100FA
S2240100C025F4010093F5010093F5010093F5010093F5010093F5010093F50100993D0100F3
S2240100E093F5010025F0010093F5010093F5010093F5010093F5010093F5010093F5010025
S22401010093F5010093F5010093F5010093F5010093F5010093F5010093F5010093F5010091
S22401012093F5010093F50100B95D0100B99B0100D99B0100F99B0100259C0100799C010059
S22401014093F5010093F5010093F5010093F5010093F5010093F5010093F5010093F5010051
S22401016093F50100115B010093F5010093F5010093F5010093F5010093F5010093F501004D
S21401018093F5010093F5010001000300A8050200A4
S2240101F8FFFFFFFF505205006E0000007B0D0A20202276657273696F6E223A207B0D0A20A8
S224010218202020226D616A6F72223A20312C0D0A20202020226D696E6F72223A20332C0D86
S2240102380A20202020227061746368223A20313434382C0D0A20202020226861726477613B
S22001025872655F7265766973696F6E223A20320D0A20207D0D0A7D0D0A000000B2
S2240104100000000000000000000000000000000000000000000000000000000000000000C6
S2240104300000000000000000000000000000000000000000000000000000000000000000A6
S224010450000000000000000000000000000000000000000000000000000000000000000086
S224010470000000000000000000000000000000000000000000000000000000000000000066
S22401100081F0004102E000BF83F0004330B54FEA41044FEA430594EA050F08BF90EA020FF9
S2240110201FBF54EA000C55EA020C7FEA645C7FEA655C00F0E2804FEA5454D4EB5555B8BFCF
S2240110406D420CDD2C4480EA020281EA030382EA000083EA010180EA020281EA0303362D86
S22401106088BF30BD11F0004F4FEA01314FF4801C4CEA113102D0404261EB410113F0004FF0
S2240110804FEA03334CEA133302D0524263EB430394EA050F00F0A780A4F10104D5F1200E2E
S2240110A00DDB02FA0EFC22FA05F2801841F1000103FA0EF2801843FA05F359410EE0A5F176
S2240110C020050EF1200E012A03FA0EFC28BF4CF0020C43FA05F3C01851EBE37101F0004582
S2240110E007D54FF0000EDCF1000C7EEB00006EEB0101B1F5801F1BD3B1F5001F0CD34908FC
S2240111005FEA30004FEA3C0C04F101044FEA445212F5800F80F09A80BCF1004F08BF5FEADA
S224011120500C50F1000041EB045141EA050130BD5FEA4C0C404141EB010111F4801FA4F1E4
S2240111400104E9D191F0000F04BF01460020B1FA81F308BF2033A3F10B03B3F120020CDA89
S2240111600C3208DD02F1140CC2F10C0201FA0CF021FA02F10CE002F11402D8BFC2F1200C02
S22401118001FA02F120FA0CFCDCBF41EA0C019040E41AA2BF01EB0451294330BD6FEA04043C
S2240111A01F3C1CDA0C340EDC04F11404C4F1200220FA04F001FA02F340EA030021FA04F38D
S2240111C045EA030130BDC4F10C04C4F1200220FA02F001FA04F340EA0300294630BD21FAAB
S2240111E004F0294630BD94F0000F83F4801306BF81F480110134013D4EE77FEA645C18BF89
S2240112007FEA655C29D094EA050F08BF90EA020F05D054EA000C04BF1946104630BD91EAC2
S224011220030F1EBF0021002030BD5FEA545C05D14000494128BF41F0004130BD14F580041F
S2240112403CBF01F5801130BD01F0004545F0FE4141F470014FF0000030BD7FEA645C1ABF9B
S224011260194610467FEA655C1CBF0B46024650EA013406BF52EA033591EA030F41F400218A
S22401128030BD00BF90F0000F04BF0021704730B54FF4806404F132044FF000054FF00001B7
S2240112A050E700BF90F0000F04BF0021704730B54FF4806404F1320410F0004548BF404203
S2240112C04FF000013EE700BF42004FEAE2014FEA31014FEA02701FBF12F07F4393F07F4F7D
S2240112E081F06051704792F0000F14BF93F07F4F704730B54FF4607401F0004521F000411F
S22401130020E700BF50EA010208BF704730B54FF000050AE050EA010208BF704730B511F092
S224011320004502D5404261EB41014FF4806404F132045FEA915C3FF4DCAE4FF003025FEAA9
S224011340DC0C18BF03325FEADC0C18BF033202EBDC02C2F1200300FA03FC20FA02F001FAB5
S22401136003FE40EA0E0021FA02F11444C1E600BF70B54FF0FF0C4CF4E06C1CEA11541DBF20
S2240113801CEA135594EA0C0F95EA0C0F00F0DEF82C4481EA030621EA4C5123EA4C5350EA6E
S2240113A0013518BF52EA033541F4801143F4801338D0A0FB02CE4FF00005E1FB02E506F0A6
S2240113C00042E0FB03E54FF00006E1FB03569CF0000F18BF4EF0010EA4F1FF04B6F5007F07
S2240113E064F5407404D25FEA4E0E6D4146EB060642EAC62141EA55514FEAC52040EA5E509A
S2240114004FEACE2EB4F1FD0C88BFBCF5E06F1ED8BEF1004F08BF5FEA500E50F1000041EBCD
S224011420045170BD06F0004646EA010140EA020081EA0301B4EB5C04C2BFD4EB0C0541EAA0
S224011440045170BD41F480114FF0000E013C00F3AB8014F1360FDEBF002001F0004170BD30
S224011460C4F10004203C35DA0C341BDC04F11404C4F1200500FA05F320FA04F001FA05F232
S22401148040EA020001F0004221F0004110EBD37021FA04F642EB06015EEA430E08BF20EAA4
S2240114A0D37070BDC4F10C04C4F1200500FA04F320FA05F001FA04F240EA020001F00041C8
S2240114C010EBD37041F100015EEA430E08BF20EAD37070BDC4F1200500FA05F24EEA020EA8
S2240114E020FA04F301FA05F243EA020321FA04F001F0004121FA04F220EA020000EBD37025
S2240115005EEA430E08BF20EAD37070BD94F0000F0FD101F00046400041EB010111F4801F2F
S22401152008BF013CF7D041EA060195F0000F18BF704703F00046520043EB030313F4801F21
S22401154008BF013DF7D043EA0603704794EA0C0F0CEA135518BF95EA0C0F0CD050EA410607
S22401156018BF52EA4306D1D181EA030101F000414FF0000070BD50EA410606BF104619465F
S22401158052EA430619D094EA0C0F02D150EA013613D195EA0C0F05D152EA03361CBF104600
S2240115A019460AD181EA030101F0004141F0FE4141F470014FF0000070BD41F0FE4141F423
S2240115C0780170BD70B54FF0FF0C4CF4E06C1CEA11541DBF1CEA135594EA0C0F95EA0C0F7C
S2240115E000F0A7F8A4EB050481EA030E52EA03354FEA013100F088804FEA03334FF08055E8
S22401160045EA131343EA12634FEA022245EA111545EA10654FEA00260EF000419D4208BF33
S224011620964244F1FD0404F5407402D25B084FEA3202B61A65EB03055B084FEA32024FF40A
S22401164080104FF4002CB6EB020E75EB030E22BFB61A754640EA0C005B084FEA3202B6EB50
S224011660020E75EB030E22BFB61A754640EA5C005B084FEA3202B6EB020E75EB030E22BF1E
S224011680B61A754640EA9C005B084FEA3202B6EB020E75EB030E22BFB61A754640EADC008F
S2240116A055EA060E18D04FEA051545EA16754FEA06164FEAC30343EA52734FEAC2025FEA50
S2240116C01C1CC0D111F4801F0BD141EA00014FF000004FF0004CB6E711F4801F04BF01437D
S2240116E00020B4F1FD0C88BFBCF5E06F3FF6AFAEB5EB030C04BFB6EB020C5FEA500C50F136
S224011700000041EB045170BD0EF0004E4EEA113114EB5C04C2BFD4EB0C0541EA045170BDF2
S22401172041F480114FF0000E013C90E645EA060E8DE60CEA135594EA0C0F08BF95EA0C0FCF
S2240117403FF43BAF94EA0C0F0AD150EA01347FF434AF95EA0C0F7FF425AF104619462CE784
S22401176095EA0C0F06D152EA03353FF4FDAE1046194622E750EA410618BF52EA43067FF492
S224011780C5AE50EA41047FF40DAF52EA43057FF4EBAE12E74FF0FF3C06E000BF4FF0010C2E
S2240117A002E000BF4FF0010C4DF804CD4FEA410C7FEA6C5C4FEA430C18BF7FEA6C5C1BD0EE
S2240117C001B050EA410C0CBF52EA430C91EA030F02BF90EA020F0020704710F1000F91EA3A
S2240117E0030F58BF994208BF90422CBFD8176FEAE37040F0010070474FEA410C7FEA6C5C21
S22401180002D150EA013C07D14FEA430C7FEA6C5CD6D152EA033CD3D05DF8040B704700BF48
S2240118208446104662468C461946634600E000BF01B5FFF7B7FF002848BF10F1000F01BD02
S2240118404DF808EDFFF7F4FF0CBF012000205DF808FB00BF4DF808EDFFF7EAFF34BF01200F
S22401186000205DF808FB00BF4DF808EDFFF7E0FF94BF012000205DF808FB00BF4DF808ED37
S224011880FFF7CEFF94BF012000205DF808FB00BF4DF808EDFFF7C4FF34BF012000205DF858
S2240118A008FB00BF4FEA410212F5001215D211D56FF47873B3EB625212D94FEAC12343F023
S2240118C0004343EA505311F0004F23FA02F018BF404270474FF00000704750EA013005D149
S2240118E011F0004008BF6FF0004070474FF00000704700BF4FEA4102B2F1E04324BFB3F502
S224011900001CDCF1FE5C0DD901F0004C4FEAC0024CEA5070B2F1004F40EB830008BF20F0F3
S2240119200100704711F0804F21D113F13872BCBF01F00040704741F480114FEA5252C2F1C0
S2240119401802C2F1200C10FA0CF320FA02F018BF40F001004FEAC1234FEAD32303FA0CFC1A
S22401196040EA0C0023FA02F34FEA4303CCE77FEA625307D150EA01331EBF4FF0FE4040F4F5
S2240119804000704701F0004040F0FE4040F40000704700BF80F0004002E000BF81F00041FE
S2240119A042001FBF5FEA410392EA030F7FEA226C7FEA236C6AD04FEA1262D2EB1363C1BF5D
S2240119C0D218414048404140B8BF5B42192B88BF704710F0004F40F4000020F07F4018BF0E
S2240119E0404211F0004F41F4000121F07F4118BF494292EA030F3FD0A2F1010241FA03FC39
S224011A0010EB0C00C3F1200301FA03F100F0004302D5494260EB4000B0F5000F13D3B0F198
S224011A20807F06D340084FEA310102F10102FE2A51D2B1F1004F40EBC25008BF20F00100CE
S224011A4040EA03007047490040EB000010F4000FA2F10102EDD1B0FA80FCACF1080CB2EB4D
S224011A600C0200FA0CF0AABF00EBC25052421843BCBFD0401843704792F0000F81F4000163
S224011A8006BF80F400000132013BB5E74FEA41037FEA226C18BF7FEA236C21D092EA030F3A
S224011AA004D092F0000F08BF0846704790EA010F1CBF0020704712F07F4F04D1400028BFE7
S224011AC040F00040704712F100723CBF00F50000704700F0004343F0FE4040F4000070472E
S224011AE07FEA226216BF08467FEA23630146420206BF5FEA412390EA010F40F480007047EF
S224011B004FF0000304E000BF10F0004348BF40425FEA000C08BF704743F0964301464FF0A9
S224011B2000001CE050EA010208BF70474FF000030AE000BF50EA010208BF704711F00043FE
S224011B4002D5404261EB41015FEA010C02BF84460146002043F0B64308BFA3F18053A3F55E
S224011B600003BCFA8CF2083AA3EBC25310DB01FA02FC634400FA02FCC2F12002BCF1004FEF
S224011B8020FA02F243EB020008BF20F00100704702F1200201FA02FCC2F1200250EA4C0009
S224011BA021FA02F243EB020008BF20EADC70704773B96AB9002908BF0028BCBF00204FF0CB
S224011BC00041C4BF6FF000414FF0FF3000F08AB882B0EC462DE9005000F058F8DDF804E038
S224011BE002B00CBC704700BF4BB942B9002908BF002802D04FF0FF31084600F073B882B0FC
S224011C00EC462DE9005000F057F8DDF804E002B00CBC704707EE900AF5EEC07AF1EE10FA68
S224011C2008B503D4BDE8084000F00CB8B1EE670A10EE100A00F006F8424261EB41031046E9
S224011C40194608BD70B5FFF73FFB00230022C3F6F05304460D46FFF78BFB00F045F8064632
S224011C60FFF710FB00230022C4F2F013FFF780FB02460B4620462946FFF7C6F900F034F8AF
S224011C80002202431046314670BD00BFF8B5164604460D461F4600F047F806FB01F300FBF4
S224011CA00737A6FB0023FB18A21A65EB0303069CC4E90023F8BD00BFF8B5164604460D466B
S224011CC01F4600F08FF900FB07F7A0FB062306FB0177FB18A21A65EB0303069CC4E9002354
S224011CE0F8BD00BF704700BF4A0011D212F5001211D20DD56FF47873B3EB62520ED44FEA2E
S224011D00C12343F0004343EA505323FA02F070474FF00000704750EA013002D14FF0FF302B
S224011D2070474FF00000704700292DE9F00F1D46C0F29D800024002DC0F2948080460F464E
S224011D4094461E46E3BB8A4255D9B2FA82F747B1C7F1200520FA05F601FA07F1BA40314337
S224011D60B840170CB1FBF7F6030C1FFA82FC07FB16110CFB06F543EA01439D4208D9711E18
S224011D809B1880F013819D4240F21081023E9B18591BB1FBF7F507FB151380B20CFB05FC81
S224011DA040EA03418C4507D96B1E8A1880F00081944540F2FD80023D45EA0641002503E09D
S224011DC08B420CD9002529460A462B4614B1524263EB430310461946BDE8F00F7047B3FA4C
S224011DE083F5002D40F087808B4201D38242EAD800250121E8E712B90126B6FBF2F2B2FA91
S224011E0082F6002E39D18E1A130C1FFA82FC0125B6FBF3F703FB17614FEA10490CFB07F8DF
S224011E2049EA0146B04506D9791EB61802D2B04500F2D3800F46C8EB0606B6FBF3F103FB34
S224011E40116380B20CFB01FC40EA03439C4506D94E1E9A1802D2944500F2C280314641EA01
S224011E600741B1E7E443524263EB430366E7404261EB41014FF0FF345DE7B240C6F1200948
S224011E8021FA09F720FA09F5130C01FA06F1B7FBF3F845EA01091FFA82FC03FB18774FEAC5
S224011EA019410CFB08F541EA0747B040BD420AD9BF1808F1FF3680F08E80BD4240F28B80B4
S224011EC0A8F10208BF18791BB1FBF3F503FB15171FFA89F90CFB05F649EA07418E4206D969
S224011EE06F1E891871D28E426FD9023D89188E1B45EA08458CE7C5F1200122FA01F306FAF4
S224011F0005F61E4327FA01F24FEA164907FA05F720FA01F1B2FBF9F80F433B0C1FFA86FADA
S224011F2009FB18220AFB08FB43EA024293450CFA05FC08D9921908F1FF314AD2934548D93B
S224011F40A8F102089219CBEB0203B3FBF9F109FB1132BFB20AFB01FA47EA02439A4506D9EE
S224011F604A1E9B1933D29A4531D902399B1941EA08410F0C1FFA8CF808FB07F68AB24FEAC1
S224011F801C4C08FB02F80CFB026202EB18420CFB07FC964288BF0CF5803CCAEB03030CEB8C
S224011FA0124C63450ED305D000250DE70E46EFE61D4601E71FFA88F800FA05F008EB024510
S224011FC0A842F1D201390025FEE63D468FE71146CDE78846B7E7B04675E7023FB6182AE729
S224011FE002393CE72DE9F007144605460E46002B3DD18A4249D9B2FA82F747B1C7F120015A
S22401200020FA01F206FA07F6BC401643BD40220CB6FBF2F02F0CA1B202FB106601FB00F3AD
S22401202047EA0646B34208D9471E361980F0F880B34240F2F58002383619F61AB6FBF2F3E0
S22401204002FB1362ADB201FB03F145EA0242914207D95E1E121980F0E580914240F2E280B0
S224012060023B43EA00400021BDE8F00770478B4243D8B3FA83F4002C42D18B4202D382428B
S22401208000F2DF8000210120EEE712B90127B7FBF2F4B4FA84F2002A40F088800A1B230C6D
S2240120A0A7B20121B2FBF3F603FB16224FEA154C07FB06F04CEA0242904207D9121906F1F3
S2240120C0FF3C02D2904200F2CE806646121AB2FBF3F003FB1023ADB207FB00F745EA034373
S2240120E09F4207D9421E1B1980F09E809F4240F29B80023840EA0640B6E700210846B3E779
S224012100C4F1200622FA06F503FA04F32B434FEA134C21FA06F501FA04F120FA06F6B5FB01
S224012120FCF746EA010A1FFA83F80CFB17554FEA1A4108FB07F941EA0545A94502FA04F278
S22401214003D97E1EED187FD33746C9EB0501B1FBFCF60CFB16151FFA8AFA08FB06F84AEAD1
S2240121600541884503D9751EC91873D32E4646EA0746370C1FFA82FC0CFB07F5120CB3B25F
S2240121800CFB03FC02FB035303EB1C4302FB07F29D4288BF02F58032C8EB010102EB1342D7
S2240121A091424BD342D0304600215DE79440C2F1200521FA05F6230C20FA05F701FA02F146
S2240121C0B6FBF3FC39430D0CA7B203FB1C6645EA064607FB0CF8B04500FA02F508D9361954
S2240121E00CF1FF303DD2B0453BD9ACF1020C3619C8EB0602B2FBF3F003FB10268AB242EAB4
S224012200064207FB00F1914206D9461E121926D2914224D902381219521A40EA0C4141E704
S22401222038460AE733461CE7104663E71FFA8CFC00FA04F00CEB03439842B4D2701E002132
S22401224012E7214620460FE7A9457FF67DAF023FED187AE7884589D9023EC91887E7304652
S224012260DAE78446C4E7023E12192FE718F092FC0DF00AFA09480A4A0021121A13F036FDE2
S22401228018F064FC18F098FC18F0FEFB18F0A2FC044900200EF0AEFA13F0DAFC3002FF1F51
S2240122A0147F00203002FF1FFEE70000044B054964221A70044A002008701070704700BFA7
S2240122C04A02FF1F3902FF1F3802FF1F034B187003480268511C0160704700BF4B02FF1FA3
S2240122E03402FF1F70B5002213464BB1581E22490D5CCC5CA54203D2CD540C54C3B2F4E7E9
S2240123000132D2B2102AEFD11B4B1878002102460C460123184D6D186D78A84205D1CEB222
S2240123200E2E02D0581CC3B209E0A34204D805D190421C4601D801E01C4602460123013132
S2240123400F2901D02846E5E70C4B1868824201D3421ED2B20A490B7893420A4B08D1197877
S224012360481CC1B20729197005D9074B1A7070BD002018700A7070BD3A02FF1FACAC0200DD
S2240123804C02FF1F3902FF1F4A02FF1F38B5194B18680F282BD9184A1849137808781849CD
S2240123A0C8540133D8B20F2810701BD9154D164CFFF798FF2A7801211120A21800F026FB81
S2240123C02978635C052B01D8022004E00F2B01D8012000E0002002F03BFF074A0020107037
S2240123E0012000E00020034B0021196038BD002038BD00BF3402FF1F3802FF1F4B02FF1FEE
S2240124003A02FF1F4A02FF1F44AC020070B5194D194A2E6830237343D6F1010638BF002688
S2240124202E60C025D554D418002501238D4212D0425DC02A03F1010604D1DB22E25433460F
S224012440DC2204E0DB2A02D1E2543346DD22E25401350133EAE7C020E0545D1C0749AAB264
S224012460486821460CF022FF082801D130BFF5E770BD00BFC403FF1FFF06FF1F28510020C8
S2240124801D4B1A6810B58AB91C490868002831D01B4C0A6020781B4C012804D902201A49EB
S2240124A0226803F015F80023236020E0174801684B00202B1DDC1648164A0168136829B113
S2240124C0154A172101FB0320FFF7A0FF0A4B1868411E19600F4B1A68501C1F2801D818601E
S2240124E001E01F3A1A6009490B685A1C0A60012010BD002010BD00BF7C07FF1FD803FF1F49
S224012500EE00FF1F5002FF1FB0AC02007807FF1FD003FF1FD403FF1FE003FF1F38B54D4BD2
S2240125201A78012A0CD003D3022A40F08A8014E049490A78022A40F084800120187080E04F
S22401254045490A78032A7CD102201870434A444B002111601960434A72E04148424B0268BB
S224012560172101FB02313C4B1878DB2802D101203C494CE01A78C02A4BD1384A1368002B6F
S2240125805FD0162B03D80020C8540133F9E71360334A1368344A17204343D118D05C0A28AD
S2240125A003D1324B324A196804E0D05C0C2803D14978304A116028E0C8780D2814D14878E1
S2240125C0192811D1D35C062B0ED12B4C0A79236841F61060D518854217D828480531C01846
S2240125E013F063FB256010E01D490A68501C1028086001D100230B60214A096810688142A4
S22401260003D12048204902F0B5FE14490020086017E0144A106858B11878DC2801D1C02069
S22401262003E01878DD2801D1DB201870002313600A4A1368162B04D807480078C854591CED
S22401264011601249486804490122BDE838400CF0FDBD00BFDE06FF1FC006FF1FDC03FF1F13
S224012660E406FF1F9807FF1F5402FF1F6C770020E006FF1F7807FF1F6477002054590020AF
S224012680C803FF1F6C0E0300401003002851002038B50378092B05460A4607D0154A1368FA
S2240126A0002B25D0BDE83840FFF7B0BE1248134B04681F2C01D901211960186820B1104BE3
S2240126C01868411C196038BD0E4B196863181F2B0D4988BF203B172000FB0310294613F05B
S2240126E0E4FA054A01341460BDE83840FFF7C8BE38BD00BFD003FF1F7C07FF1FD803FF1F26
S2240127005002FF1FD403FF1FE003FF1F10B50C4C60680CF009FE60680CF038FE09480A4BC5
S2240127200A49002404600A200C601C6003F0BCFB074801212246BDE8104007F035B900BF8A
S22401274028510020CC03FF1FD003FF1F7C07FF1F28F2040070B5504A5048514E5149406805
S2240127600023136086B0012233700CF06FFD4E48012107F003F93178012901D030BFFAE73A
S2240127804A4C4B4D216003F033FB14220446002101A813F0ABFA2E68AB880196ADF8083034
S2240127A001F06EFB94F82050027894F82140FF2A14BF16460026FF2D01D0FF2C01D10024BA
S2240127C02546002000F0DAFE3A498DF80C50072315220B704A7014230522003018BF012020
S2240127E08B70ADF80A208DF80D408DF80E008DF8106001AACB1C05AD144603CC1860596011
S2240128000833AC422246F7D121682A4819601721FFF73EFF28480346032203F8012B274A04
S22401282011685268C0F8011017215A60FFF730FF03F0DEFA014622480A2303700A780130B0
S224012840FF2A08BF1F49162213F05DFA1C481721FFF71EFF1C48022101701721FFF718FF9C
S2240128600F480378022B01D030BFF9E701F004FB0278FF2A02D0002002F0E4FD1348144BA1
S224012880002101601A68134907480A6006B0BDE8704007F025B800BF6477002028510020E7
S2240128A0DE06FF1FC006FF1F28F20400D003FF1FD806FF1FC106FF1FE806FF1F88010100A6
S2240128C05F07FF1FECAC02008007FF1FC803FF1F6C770020E006FF1F08B5FFF717FF022054
S2240128E003F0E2FABDE80840FFF734BF38B5394B186840B13849394B0A681868111AC82938
S22401290001D90CF02DFEFFF7BBFD354A354913680A6893425DD0172433486343C418C35CBF
S224012920591E0A2941D8DFE801F0384040060F12194025402F0000F075FC2C482C4B0121DC
S224012940002201601A603CE000F074FC25E06278192A36D1E01C00F0DBFC32E0002560195C
S224012960437873B340782349013513F02FF8172DF5D126E02046204B50F8012F81881A6010
S224012980998000F0F5F81CE003F038FA611C202213F0B9F903F04CFA13E0FFF79DFF13488D
S2240129A0134A00210160116012E0144B197819B10120134902F08CFD12481349C82202F08B
S2240129C047FD07480268531C102B08BF00230360012038BDD003FF1F6C770020E006FF1FEF
S2240129E0C803FF1FE406FF1F5402FF1FCC03FF1F7C07FF1F8001FF1FD806FF1FEE00FF1F37
S224012A00F0AC02006C0E0300401003007FB50B4608218DF800108DF8010011460DF1030021
S224012A201A468DF8023013F040F968461721FFF72FFE07B000BD00007FB50B460A49096877
S224012A4081B109218DF800108DF8010011460DF103001A468DF8023013F027F96846172181
S224012A60FFF716FE07B000BDCC03FF1FF0B5224B1D68854289B0044609D92D1A1F481C60F8
S224012A800268AE18202E88BF203E066000E000251A4F3B680BB1591E00E01F21164839604C
S224012AA00268561C066014260021324603A813F01DF901238DF81F30009523461321104AB3
S224012AC0104C03A812F0DCFF3D6817216943631809203822605407AD5A709E7003A9033363
S224012AE00C4603CC596018600833AC422146F7D12068186009B0F0BD7C07FF1FD403FF1F2A
S224012B001DAD0200E003FF1F10B500200CF0E2FA1348144C06F01AFF01212060104806F06B
S224012B20EFFE23684BB101210F4806F0E9FE0E480021BDE8104006F021BF0C4806F006FF34
S224012B40044658B90121084806F0DAFE0648214606F014FFBDE810400CF002BD10BD00BFDA
S224012B6030F204002008FF1FE4F104005CF2040030B5304B0446186885B0002858D02E4D8E
S224012B80E8690DF08FFE012002F096FCFFF7BEFDC82003F089F9686801210CF01BFC27492C
S224012BA0274800224FF4B5634A73009325490122032312F071FF05461F4821494068AAB28A
S224012BC00CF074FB082801D130BFF5E7E178627923790091A078019061781B480291247842
S224012BE01A49039412F058FF0446134A16495068A2B20CF05BFB082801D130BFF5E71448EF
S224012C00144913F079F80C4B1149586810220CF04DFB082801D130BFF5E70F48014602F099
S224012C20A9FB01F0BDFE05B0BDE8304002F080B905B030BD2008FF1F2851002000A00640E2
S224012C400008FF1F2DAD02009C07FF1F44AD0200BC07FF1F68AD02000C100300014B1868D5
S224012C60704700BF2008FF1F014B01221A607047FC07FF1F38B5194B186870B31848006815
S224012C8058B301F07FFF10EE100AFEF71DFB02460B461448144912F0FFFE0546134C11493A
S224012CA06068AAB20CF002FB082801D130BFF5E7C82003F0F9F8002160680CF08BFB01F0FC
S224012CC073FEFFF747FD00F06FF90948094902F051FB024900220A60012038BD2008FF1FD7
S224012CE0FC07FF1FDC07FF1F79AD020028510020401003004C0E030008B503F079F890F892
S224012D002030012B05D190F82100BDE8084000F035BC002008BD01F089BB052807B50DD103
S224012D2000230120009306218DF801006A462320ADF804308DF80010FFF77EFE0EBD00006B
S224012D40054BFF2200201A705A704FF6FF725880DA801871704700BF2408FF1F08B5194B36
S224012D6019480021196006F0C9FA08B101F08CF802210022144806F0B3FA1348134900224E
S224012D8006F0F3FA10481249002206F0F3FA0E481049002206F0F3FA0B480F49002206F01B
S224012DA0F3FA09480D49002206F0F3FAFFF7C8FF0B4A0C48116853680B4A01604360002061
S224012DC0106008BDF885FF1F4008FF1F1D2F0100CD300100172D0100ED2E01001B2D0100C2
S224012DE02408FF1F3408FF1F3C08FF1F30B53C4B186887B0002871D002F082FF00286DD162
S224012E00384A394C138821888B4203D15088628890422BD0247834480023FF2C0093ADF893
S224012E20043003D102248DF8004012E0427843888DF8014001218DF800108DF80220ADF859
S224012E40043001F00DFB00280CBF012002208DF80300232006216A46FFF7EEFD224A214BAE
S224012E60117850785488197058705C801E4C2378FF2B33D02579D5F101011A4D2A7938BF59
S224012E800021002A14BF084681F0010080B1002306AA99420CBF042105210293232002F887
S224012EA0101D0621ADF80C30FFF7C6FD24792C710D4D0C4CE888E28882420FD0002303216E
S224012EC0049304AA8DF81010ADF8110006212320ADF81430FFF7B0FDE888E08007B030BDE2
S224012EE0F885FF1F2408FF1F3408FF1F03280ED004D801280BD007D8002008E0052806D0BA
S224012F0004D34FF6FF7002E0022000E00420024BD880FFF76BBF00BF3408FF1F08B5022853
S224012F209CBF1C4B1A5C1C4B88BFFF2202292DED028B1A701A4698BF184BB5EEC00A94BF4E
S224012F405B5CFF23F1EE10FAB0EE408A537006D4DFED137AB4EEE70AF1EE10FA01DD00F001
S224012F6093FF9FED100A68EE000A0B49BCEEE08A18EE100A488001F073FA00280CBF0120F1
S224012F80022002F057FEBDEC028BBDE80840FFF72DBF00BF8FAD02003408FF1F92AD020025
S224012FA0DB0FC94000007A44124B10B501221C681A6000F09DFF08B901F008F800F0F8FDF4
S224012FC008B900F033FD01F0BDFD08B901F0E8FC74B9FFF791FE02210246074806F080F9EE
S224012FE0FFF7AEFE054B064819685A680160426010BD00BFF885FF1F4008FF1F2408FF1F6E
S2240130003408FF1F014B1868704700BFF885FF1F08B5FFF771FE01460248BDE8084006F0DD
S22401302050B900BF4008FF1F10B50A4C2378FF2B0FD0217929B120B94FF49670962106F05A
S2240130402BFE054A00202071D063BDE81040FFF7CDBE10BD3408FF1F4070FF1F38B5154B56
S2240130601A78FF2A044623D018B9BDE83840FFF7DBBF1D795DB99620FF2106F00DFE7820B9
S224013080294606F009FE3220FF2106F005FE0A4908480A68094B047109481A600168094AEE
S2240130A0094B11600120D863BDE83840FFF79EBE38BD00BF3408FF1F6C7700203C08FF1F07
S2240130C02C08FF1F3008FF1F4070FF1F08B502F00FFE70B10120FFF7A7FF064BFF22002048
S2240130E01A705A70588002F0A5FDBDE80840FFF77DBE08BD3408FF1F024B00201860FFF7F2
S224013100E5BF00BFF885FF1F134B70B50646187901280D4614460CD11049114B0A681868F1
S224013120111A0A225143B1F5FA6F02D30020FFF77BFF0C4B186868B131462A460A48E3B26C
S22401314006F066F904490A78FF2A03D0BDE8704002F0F0BC70BD00BF3408FF1F6C7700200D
S2240131603C08FF1FF885FF1F4008FF1F0146014806F014B94008FF1F0146014806F00FB9DF
S2240131804008FF1F1FB5044604F0E8F8174B184A1979012982ED000A15D1164892ED007A9B
S2240131A0D0ED007A5A7837EE670A012ADFED120A08BFB1EE400AB4EEE00AF1EE10FA02D858
S2240131C00020FFF731FF204604F0AEF8084B1968204602918DED010A04F0D0F8074801A99C
S2240131E08DED030A06F0DCF81FBD00BF3408FF1F2C08FF1F3008FF1FC7B832BE4008FF1F06
S22401320010B5044602F074FD40B106F0A1FD28B903482146BDE8104006F0C4B810BD00BF2B
S2240132204008FF1F08B5012002F00CF9BDE80840FFF786BD08B5FFF7B7FE0020FFF7F4FEB7
S224013240002000F0C3FE002001F098FC002000F0C9FC002002F0E4FC0020BDE8084002F02C
S224013260F1B870B58578012D044602D0042D21D101252E462379012B02D1FFF795FE01E071
S224013280FFF73AFFA078B4F8051000F097FCE078B4F80910E27A01F05BFC2EB12846E17935
S2240132A0227A00F02BFE01E000F094FEBDE87040FFF79CBD06790025012EDAD1DAE71FB539
S2240132C00378417882788DF80430C37800798DF805108DF8080002998DF806201420C822C2
S2240132E08DF80C0062F31721029103998DF80730322264238DF80B3062F31721002301A8CB
S22401330003918DF80F30FFF7ACFF05B000BD000070B503780446581E112800F2BC80DFE8AE
S22401332010F01200170049006D0026003000600021001C00740079007F00BA008D00BA0048
S224013340A200AE00B3002046BDE87040FFF7B7BF2046BDE87040FFF784BFA078BDE87040DC
S22401336002F05EBCA078BDE8704002F0ABB801F02DFE002800F08F80474841F28832014673
S2240133800FE000F075FD0023E2189178C1540133092BF9D100F03AFD38B13F484FF4FA6233
S2240133A00146BDE8704002F053B83C483C494FF47A72F6E7A078022805D003280ED0012810
S2240133C069D1C82001E04FF42F70FF2106F064FC64200021BDE8704006F05EBC4FF4966049
S2240133E0F3E70025032000FB0541488810B1097906F052FC0135062DF4D170BD294801211F
S2240134000022BDE8704006F0CFBAA078BDE87040FFF724BEA378002B3DD178200146D9E778
S22401342002F0ECFCA17880F82010E27880F8212002F0FEFCBDE87040FFF7EABD1A48B4F8EC
S224013440032003689A4208D1A07800F04FF8002821D000201549A2780DE015490020BDE813
S224013460704002F035B8134A1378012B13D91249D4F802200220BDE8704002F029B860883C
S224013480BDE87040FFF7F2BA00F0FAFCA178017000F0BCFC6DE770BDFC0E0300B40E0300C4
S2240134A08C0E0300F8F104006477002095AD0200B8AD0200EE00FF1FF3AD0200084B07B519
S2240134C0410302461868431A06498B4206D2803900910020044901F0FBFF002318460EBD9B
S2240134E054F10400B8520500FDAD020038B51C4B1C4D04461878022805D903201A492B680A
S224013500224601F0E5FF0021296014B9174A146803E02046FFF7D2FF0446B4B120460221CC
S22401352000F0E8FF0E4D30B1287870B10120104901F0CEFF09E020460E4941F6106200F03A
S224013540ADFF04460028EFD101E0012038BD2B78012B03D90220084901F0BAFF204638BD6D
S224013560EE00FF1F6477002031AE02007CF104006CAE02005459002092AE020008B510B93B
S224013580074B186801E0FFF799FF0021425CFF2A05D1013141F610639942F7D1002008BDC2
S2240135A07CF1040008B51E4B1878022803D903201C4901F08DFF00201B4945F2E07200F0D6
S2240135C0C7FF08B117490FE015490A78022A03D90320164901F07CFF154B93E80300090357
S2240135E000F0BEFF18B1114901F0C2FF15E00C480178022905D903200E494FF4803201F018
S22401360067FF4FF480304FF4E02100F0A9FF30B108494FF4803201F0ABFF012008BD08BD02
S224013620EE00FF1F8E060300B2AE0200B506030064F10400E0060300022808B504D0032899
S2240136400CD1FFF7AFFF04E0054B93E8030000F051FFD0F1010038BF002008BD012008BD6D
S2240136606CF104002DE9F0418AB002F04FFB38B9784B0FCB06AC84E80F00204602F054FBC4
S22401368002F044FB0546C068734910F0010F0A7822D0012A03D90220704901F019FF70499C
S2240136A0704801F067FE0AF069FC95E80F0006AC84E80F00099B23F001000990204602F035
S2240136C033FB65490A78012A03D90220664901F0FFFE0BF045FF05E0022A03D903206349C5
S2240136E001F0F6FE624B6348196845F2DC7212F0CBFA10F0FF0F5848017800F0A180012958
S22401370003D902205C4901F0E3FE5C4C5C4DE0690DF0C8F85348524901F02CFE2C68594D4C
S2240137200DF116020DF1170300920193286821460290082254480DF1150306F09FF8002815
S22401374040F08480444A9DF815101378002936D1022B04D903204D49224601F0B9FE0DF15B
S22401376016060DF11705474F009601953A6846480292214601220DF1150306F07FF88046B4
S224013780002863D19DF81530032B5FD1FFF70AFF024610B140463E4921E0009601953868AD
S2240137A021460290042238480DF1150306F066F800284BD19DF81510042947D135E0022B75
S2240137C003D90320334901F083FE334A2E482B68214605F0DEFF024620B13049002001F094
S2240137E077FE33E01C480178022903D903202C4901F06EFE0DF116020DF117032148009239
S224013800019301682048029108220DF11503214606F034F89DF81520034608B9042A04D00B
S2240138200020204901F054FE10E00B4A1378012B03D902201C4901F04BFE0BF091FE05E0AE
S224013840022903D90320194901F042FE0AB0BDE8F08100BFD8AB0200EE00FF1F1707030064
S224013860401003002C0E03002A0703004C07030074F10400B2AE02005E070300285100205C
S2240138804CF1040068770020A800FF1F78070300AB070300D807030039360100EC0703009D
S2240138A0110803002D08030078080300A1080300094B1A68501C18601968CB05D80D07493F
S2240138C0074B122202FB001003F5815203F58051106104480860704744AAFF1F4086FF1FEF
S2240138E000800040BA08030008B5444B0122B0F57A7F1A6003D8092898BF0A2001E04FF405
S2240139007A70B0F5FA7F3E493E4B94BF002201220A603D4A10600020186001F043FE3B4942
S2240139200A78032A4BD0C8214FF47A7001F0D6FE3C21B1EE040A4FF47A7001F05BFE322108
S224013940B1EE040A4FF47A7001F054FE7821B1EE040A4FF47A7001F04DFE6421B1EE040A63
S2240139604FF47A7001F046FEB421B1EE040A4FF47A7001F03FFE9621B1EE040A4FF47A7071
S22401398001F038FEF021B1EE040A4FF47A7001F031FEC821B1EE040A4FF47A7001F02AFE13
S2240139A04FF49671B1EE040A4FF47A7001F022FE4FF47A70FA21B1EE040A01F01BFE144871
S2240139C0144B0168144A19601449154B002010600860042018620121124805F0CFFF0CF0B4
S2240139E0A7FE11492E224A60086840F001030B600A6842F48030086008BD00BF2886FF1FA9
S224013A003886FF1F2C86FF1F3086FF1F48AAFF1F44AAFF1F3C86FF1FFC85FF1F3486FF1FAD
S224013A2000B0034030F2040000600340C820FFF75BBF00000F4A104808B500231360037055
S224013A400E4BD9694A0204D50D4A106820F080011160DA6922F48000D8610021094805F056
S224013A608DFF094B094A0121196210680849086008BD00BF2886FF1F48AAFF1F20800440FB
S224013A800060034030F2040000B0034044AAFF1F3C86FF1F70B53C4C3C49E06888B00BF0CB
S224013AA0BDFF3A49E0680BF0E5FF3949E0680BF0B5FFE06836490BF0DDFF364B01221A6263
S224013AC0FFF7CCF8002859D100F0D6F90078FF284BD1FFF7ABFF30490E682F4C256806F1CC
S224013AE06402954204D2284CE0690CF00FFFF4E72A4B6846002120221C6812F0F7F80025EB
S224013B002548016806F16E0291421DD223490A68A24214D00023E005C10D092202FB0130CB
S224013B201F4931F8102090B220B95DF823104A1C4DF823200133082BEDD101350134124843
S224013B40C0690CF0E3FEDBE76D1000235DF80300A84208DC0433202BF8D100F08DF90021EF
S224013B60017000F053F9FFF765FF00F085F90278FF2A03D10B480C4901F0FCFB0B4B01204C
S224013B80186008B070BD00BF285100205400FF1F0000FF1F00B003406C77002044AAFF1FD8
S224013BA04086FF1F1C0F03004010030040AAFF1F014B1868704700BF2886FF1F084A10B56D
S224013BC00C46107020B12046BDE81040FFF78CBEFFF718FA0028F6D1BDE81040FFF72ABFD6
S224013BE048AAFF1FC821FFF7E9BF0000F8B55648564B574C1E7822680168B71E8A42FFB2BE
S224013C0000F09F800568AB1AB3F5007F04D302686FF4FF701118216025684E4AEB05D80D7F
S224013C20122101FB00254C4B288A642110FB01324FF4D17592FBF5F0C0B2FEF747FB2468EE
S224013C40E305D90D0023092505FB0130414A32F810400133A4F50065ACB2082B22F81040DC
S224013C601546F0D1032E04D0122202FB015001F047FE374C2168C805C30D122202FB035038
S224013C8000F0AEF9022F56D83448354902680B689918B1F57A7F01604DD3A1F57A76066094
S224013CA025683048EC050168E60D0023092202FB0635284C34F8150002B2083214112A4AEA
S224013CC07F2CA8BF7F2450186FF07F05AC42B8BF2C46C4540133082BE8D12448214C056889
S224013CE0083121604DB9102925D1214B21481B68C05CFEF78BFE256015E0182907D11C49E5
S224013D001C480B681421C05CFEF780FE0BE0282911D1174917480B6814215218C05CFEF702
S224013D2075FE0022226012490A68531C042B0B6001D10020086006490A68531C0B6001207A
S224013D40F8BD0020F8BD00BF44AAFF1F48AAFF1F3C86FF1F4086FF1FB87BFEFF2C86FF1F34
S224013D603086FF1FFC85FF1F0086FF1F3886FF1F3486FF1FC3080300044B186828B10449AF
S224013D800A7812B9034B50201860704740AAFF1F48AAFF1F00B00340684620F007010A4BBD
S224013DA08D4601B5186964225043A0F54A31FC3940F26633B1FBF3F0C0B2FEF787FABDE8AE
S224013DC001408546704700BF00B0034038B50B480B490C4C01F0CEFA0B4B1B6803F12805C9
S224013DE018685968224603C20833AB421446F7D103480146BDE8384001F0BCBA1C0F0300C1
S224013E00401003004CAAFF1F44F1040038B5114B114D1C680121204600F06CFB18B1297888
S224013E20012049B938BD20460C49282200F036FB04460028F3D104E0094901F049FB01207C
S224013E4038BD2878012803D90220064901F040FB204638BD44F10400EE00FF1F4CAAFF1F71
S224013E60C708030000090300004870474CAAFF1F0048704764AAFF1F004870476DAAFF1FEC
S224013E80004870476EAAFF1F08B50948094901F071FA01F0EDF9084BD8690CF037FD074841
S224013EA005F054FD0028F4D10BF05AFBF1E700BF6C0E030040100300285100205CF2040027
S224013EC013B50446022001F0B5FE002307200093002C0CBF012402248DF8000006212320F6
S224013EE06A46ADF804308DF80140FEF7A5FD1CBD014B9868704700BF18BAFF1F73B542F2EF
S224013F00540306460093A3F59650CB070C461546019009D522490A7822B101202149224646
S224013F2001F0D6FA013CE4B2C82C09D91C4B187828B101201C492246C82301F0C9FAC824C8
S224013F40A54209D916490A782AB1012017492A46234601F0BDFA25466B464FF4FA700021EA
S224013F60134A09F0B9FA134B186008B9FFF78CFF00212046104A01AB09F0AEFA0F4908602C
S224013F8008B9FFF781FF0E4A0E4B0F49002010601860012081E830008860CE607CBD00BF0B
S224013FA0EE00FF1F18090300500903008F090300E4E0FF1FC03F00202CD3FF1F74AAFF1F7A
S224013FC028D3FF1FE0E0FF1F18BAFF1F64211422FFF794BF014B00229A60704718BAFF1FE1
S224013FE0F0B5AA4AAA4B14681B68AA4D2DED028BB3FBF4F604FB16319FB005EB81060022CA
S224014000855A2DB205EE905A4FF4C87101FB0261F8EEE57A0232102AC1ED007AF0D1013354
S2240140209B4913F001020B601CD19B4F39684FF4FA75B1FBF5F605FB1617984D05EB8705D6
S224014040875A3FB207EE107A4FF47A7606FB0256B8EEC70A0232102A86ED000AF0D1481CF6
S2240140608D490860894A9068002800F0C281A342C0F0BF8151681B1BB3FBF1F401FB14343B
S224014080002C40F0B68101A82146112211F02EFE15AD834F7F4A38684FF4487606FB0421F3
S2240140A0804A09F0A1FA79487E4A06689FED7E8A7708F0EE481A00230832BB4211D812ED10
S2240140C0010A52ED020A20EE001A00EEA01A06EE103AB8EEC62A71EE811A02EE018A013337
S2240140E0EAE701EE106AC8EE210A0134082CDFED6F1AB8EE416AB0EE618A81EE862A60EE9A
S224014100822A12EE903A45F8043FC2D1624D2968B1F5FA7F30D30DAF0024604B644E4FF42E
S224014120FA62306802FB04315E4A09F05DFA9FED5E3A5C48F0EE436A002590ED014AD0ED5E
S224014140003A64EE044A43EEA34A05EE105A0135F8EEC55A0830FB2D76EEA46A05EEA43A26
S224014160EBD1C3EE267A0134082C17EE901A47F8041FD2D1012500E0002505AE3746002490
S224014180424A444B11684FF4C870DFED470A00FB043200238B4207D002EB830090ED007A8E
S2240141A0013347EE070AF5E707EE103AB8EE470A80EE800A13F074FB01AABCEEC01A10EED6
S2240141C0101A11EE100AA0520234102C47F8041FD6D145B92D49CA68B2B32720112101AAFA
S2240141E0FEF714FC30E09DF814100EAA0023043696ED006ADFED2F1AB4EEE16AF1EE10FAFE
S22401420008DD92ED002ADFED2C2AB4EEE22AF1EE10FA0FD4B4EEC86AF1EE10FA40F39F805F
S22401422092ED003ADFED253AB4EEE33AF1EE10FA40F19580012000FA03F0013301430432EA
S224014240082BC9B2D3D18CE006A816A99DF81420FEF75AFF002D00F0CC8019480468002CB4
S22401426040F0C780174B184A196813680A22C91A164B514399422BD90124046001F038FD6F
S224014280002800F0B680204666E000BF18BAFF1FE0E0FF1F28BAFF1F28D3FF1F3C0100201B
S2240142A074AAFF1F78AAFF1F0000000000007A44C03F0020000048440000484200008C42BB
S2240142C0380100206C770020BC3F0020E09304004A48235853BB4A4A4FF4FA719FED494A6E
S2240142E001FB0420C218D2ED004A0433B3F5FA6F04EEA44AF6D19FED445A84EE050A13F018
S224014300CFFADFED426AB4EEE60AF1EE10FA0DD51EA9081950ED105ADFED3D7AF4EEE75AC4
S224014320F1EE10FA02D5354B0122E2500434202CCED100231A463149585800B101320433F7
S224014340202BF8D1052A54DD32480121016001F0CFFC00284DD00020FFF7B2FD49E00020D7
S22401436069E72C4C8DF814102468002C7FF432AF01F0BEFC00283FF42DAF23461EA8C118D0
S22401438011ED104ADFED244AB4EEE44AF1EE10FA2BDD06AAD01890ED005ADFED1B6AB4EE62
S2240143A0E65AF1EE10FA20D874EE647ADFED1B5AC7EEA50A9FED1A0A9FED1A7AB4EEC05A65
S2240143C0F1EE10FA30EE872A07DD36EEC51A9FED166AC1EE061A22EE212AF7EE002A32EED3
S2240143E0223A65EE033AC0ED003A0433202BC5D1F0E61FB0BDEC028BF0BD00BFC0E0FF1FC7
S2240144003C010020000000000000FA430000164300004842380100200000B44252385E42A0
S2240144200000C843CDCCCC3D0000C842074808490268084B084810B500240A602146202216
S2240144401C6011F053FC054B1C6010BD6C770020BC3F002038010020C0E0FF1F28D3FF1FA3
S224014460014B1868704700BF3801002008B58021064A074805F0E4F8064B1860064805F0C1
S2240144803CF9BDE80840FFF7A1BC00BF63960100C43F002068770020A800FF1F104B73B57D
S2240144A00446187802280E46154604D903200D49234601F00DF871B60B490C480A683346D4
S2240144C0009221462A4605F021F961B638B10090074900202A46234600F0FAFF01207CBD42
S2240144E0EE00FF1FD309030068770020A800FF1FF2090300114B73B5044618780D03022870
S2240145000E4606D9009403200D4932462B4600F0DFFF71B60B4B0C481B6821462A4605F07E
S224014520B4F861B640B1019000940020074932462B4600F0CDFF01207CBD00BFEE00FF1F62
S2240145402E0A030068770020A800FF1F640A0300024B1B681818FFF7A1BF00BF6CF104006E
S2240145600A460146FFF7F4BF73B50D46044606F0AFFD06460DF1020006F0B8F8A968BDF8D6
S22401458002302A6868685A4358434B432A60AB60686001A806F08AF8D4ED006A94ED011A76
S2240145A094ED023ADDED017AB8EEE67AF8EEC11AF8EEC33A27EE270A21EEA72A23EEA74A21
S2240145C0FDEEC00AFDEEC22AFDEEC44AC4ED000AC4ED012AC4ED024A08F008F808F014F8C0
S2240145E008F00AF830467CBD104B37B5104A0D461968136804464FF47A704843B0FBF3F08C
S224014600FEF7FEFD01F07CFB78B90A490A78931E012B0AD88DF8040003211F2001AA8DF85B
S22401462005408DF80650FEF707FA3EBDC440002044400020D8400020014B01221A607047C3
S224014640C0400020014B01221A607047DC400020044B05491A68501C18600B680BB901F02D
S22401466069BA7047C8400020E440002073B51D46174B8DF8071006461446186832460021A6
S2240146800BF0A4FF13480022026011490122086800230DF107010BF0BFFE0828F5D00D4B7C
S2240146A01A680AB930BFFAE70B4900200860084B29461868224601230BF018FF0828F6D02D
S2240146C0054A106808B930BFFAE700207CBD00BF28510020C0400020DC4000207FB50646EF
S2240146E004A8154600F8101D1946013011F0DDFA0C4B0021324618680BF068FF0A490022D9
S2240147000A6008486A1C0123006869460BF084FE0828F6D0044B1A680AB930BFFAE7002021
S22401472005B060BD28510020C040002030B5894B054618688BB00C4640B187490A689542CD
S22401474004D1864B1878A04200F00281002006F061FA792006F014F9782005F0E7FF7E4981
S22401476028460D6006F00EFA284605F079FF4FF4FA6005F081FE102005F0D0FE8CB10DF140
S2240147800E0005F0FFFE764A1378012B06D902207449BDF80E30224600F09AFE204605F0A0
S2240147A00DFF6E4804700DF10E0005F0EBFE0DF1060005F03FFF0DF10A0005F043FE0DF160
S2240147C0050005F08FFE664C03A806F0F1FE02A805F03EFF2178022907D903206249BDF807
S2240147E00620BDF80A3000F073FE2278022A07D903205E49BDF806209DF8053000F068FED2
S224014800574B187802281C4607D903205849BDF80820BDF80C3000F05BFE2178022905D977
S22401482003205449BDF80E2000F052FEBDF80620514C94FBF2F007F0BFFCBDF8063094FB7A
S224014840F3F007F0CBFCBDF8060094FBF0F007F0D9FC4A4A5168106804AC03C4117A52F8AA
S224014860090F2170516807AB03C3107A187004A808F071FBBDF80A20D10307F097FC04A84D
S22401488008F069FB9DF80540E10307F00FFD07A808F061FBBDF80C10C90307F00DFD304BD9
S2240148A01878022803D90320354900F011FE354CE0690CF02BF806F05FFF18B1002032491B
S2240148C000F006FEE0690CF021F825490A78022A0C4603D903202D4900F0FAFD2378022BEE
S2240148E003D903202A4900F0F3FD04A808F033FB06F04CFF274807F095FB012007F0BAF98C
S224014900022007F083FABDF8060006F0E9FF14480178022903D903201F4900F0D9FD07200E
S22401492007F0C6F80821072007F00CF8012007F0E2F8642007F0F0F8012006F08DFB20B1AC
S2240149400020164900F0C4FD02E0024B01221A600BB030BDE4400020444000208C400020D9
S224014960EE00FF1FB70A0300E50A0300320B0300830B0300CE0B030040420F00E8AB02009C
S224014980EE0B030028510020000C03001C0C03003A0C0300E9450100480C0300600C030004
S2240149A032200021FFF7C2BE13B51648164B0178002202291A7008D92824009403201349F1
S2240149C04FF4FA720A2300F083FD4FF4FA700A21282206F0F5FD044648B1282300930B4906
S2240149E04FF4FA720A2300F0C3FD012008E007F0FDFD07F009FE07F0FFFD054A2046146011
S224014A001CBD00BFEE00FF1FD8400020750C0300E440002010B5414B187800F02001CAB27E
S224014A2086B07ABB00213E4804F0A8FF642001F03BFA01213A4804F0A1FF642001F034FA3E
S224014A40384800680BF086FC642001F02DFA002006F0E0F808F0E7FA10F0ACFF0FF008FDD9
S224014A600FF090FFFFF700FAFF2104461822684611F03CF969462046182211F005F92A4969
S224014A80D0B122E0294C2A4A636923F0400060614FF48071274C1162636943F480706061F6
S224014AA00A240A2001F000FA2249CA68013C42F48073CB60F5D1B5E70B781BB101201E4946
S224014AC000F006FD0CF088FD17E00A78012A03D902201A4900F0FCFC04F10C00032107F053
S224014AE065FC0321204607F0C7FC0CF081FD07F07DFD07F089FD07F07FFD0EF023FF0FF011
S224014B009BFF07F01BFB08F0ADFAFFF74DFF0C48092106B0BDE8104004F080BF00F0074074
S224014B2054F2040028510020EE00FF1F2080044000C00440C0F00F40D00C0300210D030089
S224014B40B8F10400014B1868704700BFE440002038B51546084A0C46107028B12046294602
S224014B60BDE83840FFF7E2BDFEF74CFA0028F5D1BDE83840FFF718BFD840002032210022BD
S224014B80FFF7E6BF014B93ED000A7047E840002030B5834D834C2A6823689A42ABB000F0D7
S224014BA0C2810DF10A000DF1090100900191002208A903AB06A807F083F97B4B9DF8091064
S224014BC01A68501C186009B92B682360BDF80A2002F0700058B1039906A807F0DBFC05A981
S224014BE004A805F031FB0498059907F0EBFCBDF80A1001F008031AB26AB1BDF92000BDF98C
S224014C002210BDF924301890199118A80021039A1A9307F085FC03A90AA806F075FC014651
S224014C2060B9BDF92820BDF92A00BDF92C3018921990039A1A9318A807F064FE07F064FD57
S224014C4005A903AA18A807F061FA05A903AA0CA807F048FA05A903AA0FA807F04DFA534BAB
S224014C600C991A68881A81115A680D989B68821A90110E9A494300FB0011D01A831103FB70
S224014C800311B1F5803F13D949484A4A03680BB91168016012680068831A022B0BD900F0FB
S224014CA049FF42490C9A0D980E9B0A6048608B603F4A00211160BDF96200BDF96A10BDF911
S224014CC06630BDF96E20ADF88000ADF884100C980D99ADF88230ADF8862043114A110E9855
S224014CE00F99ADF88830ADF88A2043110A1310981199ADF88C30ADF88E2003130A13ADF80B
S224014D009030ADF89220FDF7A9FF00283AD02A4991ED000A00230CAA9958284A9858995098
S224014D20401A07EE900A0433FAEEC87A0C2B07EEA70AF0D1224A20491068431C642B81EDDC
S224014D40000A136040F0F18010EE100AFCF7BCFA02460B461B481C4910F09EFE04461B49C3
S224014D60A2B2486817490AF0A1FA082801D130BFF5E7114800220260FF214FF4FA6004F0D9
S224014D808BFFD2E000F0BCFF002858D110480378012B01D0032B23D11C20142120AA4CE07C
S224014DA0C8400020BC400020C4400020B0400020884000206C770020E8400020CC40002016
S224014DC0E040002048400020500D030028510020D84000200000003A0000803D0000803805
S224014DE0042B2CD1BDF88010BDF88220BDF88400BDF88630ADF89410ADF89620BDF82010B8
S224014E00BDF82220ADF89800ADF89A30BDF82400ADF89C10ADF89E20BDF81A10BDF81C208C
S224014E20BDF81830ADF8A000ADF8A410ADF8A620ADF8A2301C20142125AAFDF7E7FDBDF921
S224014E408C10BDF98800BDF98A3002EE901A01EE103A07EE100A5FED217AF8EEC11AB8EED2
S224014E60E23AB8EEC70A21EEA72A63EE273A60EE270A12A88DED132ACDED143ACDED120A39
S224014E80FEF774F9BDF98E20BDF99000BDF9923004EE102A06EE100A00EE103A1FED325A7E
S224014EA0F8EEC44AF8EEC66AF8EEC07A64EE855A26EE857A67EE850A15A8CDED155A8DED3A
S224014EC0167ACDED170AFEF757F9BDF98600BDF98210BDF98420BDF9803004EE900A01EE5D
S224014EE0101A03EE102A06EE103A1FED442AF8EEC11AF8EEC33AB8EEE45AF8EEC66A61EEB2
S224014F00822A23EE824A65EE025A26EE827A1CA8CDED1C2A8DED1D4ACDED1E5A8DED1F7A59
S224014F20FEF730F901E0002000E001202BB030BD10B588B002A805A9FFF716FB072813D114
S224014F401A491B4810F0D8FE05A8032107F02EFA02A8032107F090FA162407F047FB07F006
S224014F6053FB07F049FB15E01249134A134B10F0010F18BF0A4610F0020F18BF0B4610F027
S224014F80040F0F4808BF0146009109480D4910F083FD04460C4B06495868A2B20AF086F95E
S224014FA0082801D130BFF5E708B010BD850D03008D400020FF0803006F0D0300750D030009
S224014FC07C0D03009C0D03002851002073B5FEF74BFF00F10C0631460446FFF7C5FA0728EB
S224014FE019D026490A78012A03D90220244900F06FFA224DFF211822204610F077FEFEF749
S22401500005FF2E781EB101201E4900F061FA0CF0E3FA012518E0FEF7F9FE03210546304676
S22401502007F0C4F92046032107F026FA07F0DEFA07F0EAFA07F0E0FA104B1878012803D9AA
S2240150400220114900F044FA0C4B187801281E4607D9A168009102200C4994E80C0000F0C3
S22401506037FA3278012A07D96369094900930220E268236900F02CFA28467CBDEE00FF1FD2
S224015080AB0D0300BB0D0300D20D0300E50D0300000E030002682DE9F041002A00F08780CA
S2240150A0444C036925689D42C0F0818043681BB126688568AE4202D3002747601346246867
S2240150C0C26885691F68A61A446905FB0646B6FBF7F207FB126600245A684661254695428F
S2240150E010D005F1010CBCFBF2F402FB14C44CB14FF00C0808FB0438D8F80880B04501D8A0
S2240151006546ECE74FF00C0808FB053CDCF80C20B24210D9DCF810301A880A809B788B7049
S224015120DCF80C30426923499A1A83690968B2FBF3F252182DE008FB0438B61AD8F808C081
S224015140BCEB020248BFD2190C2707FB053507FB04332D691C6995F800C02778931B774395
S22401516003FB0C7797FBF2F70F706778A47895F801C0AD787743664303FB0C7703FB0563F6
S22401518097FBF2F793FBF2F28A704F7009490B685A1C4168026121B1836802699A4288BFD1
S2240151A0036104490B68C3600120BDE8F0810020BDE8F0816C77002010B5FEF759FE0023FE
S2240151C004461A46E15C0133FF2918BF0122092BF8D1184801782AB931B30120164900F07F
S2240151E077F921E0012903D90220144900F070F92278134B4AB9607838B9A17829B9A17981
S224015200E27919705A70207A06E0607852081A70A27841085970500898702179094BE078CC
S2240152206279187059709A7007480849012383618B6110BDEE00FF1F300F03007B0F0300F6
S224015240E800FF1FEB00FF1F14410020F0400020044B1A78824204D018700348034B016871
S22401526019617047EC4000206C77002014410020F7B5394F394D69463846FFF70BFF01A9A2
S22401528004462846FFF706FF354B19780646002935D03868334A904202D12B6883422ED0B2
S2240152A0314B2D481A681F6827F0FF0505F580770569BD4205D91B6823F0FF0303F5807314
S2240152C00361022902D091058A0D00E0D2B2130915D1264C244A208811681F4BA578ADF8A7
S2240152E0000021F00F0418698DF802501034A0422ED9156825F00F0210321A6128E07CB16A
S2240153001B4D9DF80010286804F07AFD68689DF8011004F075FDA8689DF8021004F070FD8B
S2240153207EB1134D9DF80410E86804F069FD28699DF8051004F064FD68699DF8061004F085
S2240153405FFD1CB9301C18BF012003E0012001E00124D5E7FEBD00BF14410020F0400020CD
S224015360EC400020401003006C770020D00F0300D000FF1F0C4B1A68824207D00B4A186074
S22401538010681268D86000201A615861084B1A688A4207D00548196001680268D96000201F
S2240153A01A615861FFF764BF144100206C770020F0400020124B13491868134A134B0028B6
S2240153C00CBF104608461968012907D002290AD091B90F4A0F4B11680F4A08E00C490F4B6B
S2240153E009680F4A03E00A4B0E4A19680E4B00290CBF1146194600E00649FFF7BBBF00BF6B
S2240154000C410020C80E0300401003003441002010410020FC0E03004C0E0300D40F030097
S224015420DC0E0300A00E0300B00F0300014B1860FFF7C0BF10410020014B1860FFF7BABF29
S22401544034410020014B1860FFF7B4BF0C410020104B984270B504460D46164602D00E489C
S224015460814201D1FFF7A8FE0C4B0D480D495C6045600C680A25B6FBF5F2121982609A6050
S2240154800A680968C260DA6001611961BDE87040FFF7EEBEB40E03008C0E0300144100201D
S2240154A0F04000206C770020024B186808B1FFF7DFBE704730410020014B1860704700BFF8
S2240154C030410020014B1870704700BF384100200EB4F0B52449C8B04DAB51F8200053F85A
S2240154E0042B068801934FF480710DF11E00ADF81C6010F0F5FA064607A810F085FA1B4B15
S2240155001A78012A2AD1F41CF11C002CC4EB010124DB132C12DD07AD6B1802AA03F11007B8
S22401552018685968154603C50833BB422A46F7D198781988A8702980002006E007AB02A8BD
S2240155405918224610F0B1FB01208DF81B001421382002AA133CFDF76FFAD5E748B0BDE8C1
S224015560F04003B0704700BF84100300384100200EB410B5C3B045AB044653F8042B02A844
S2240155804FF48071019310F0ABFA0020044902AA2346FFF79DFF43B0BDE8104003B0704732
S2240155A054100300002200230D488118C818002101600C488018C01801600B488018C01801
S2240155C001600A488018C0182033B3F5C07F0160EAD10432202AE6D1054B00211970704764
S2240155E02C450020AC4600203C410020BC4200202C48002038B5324D2C780B2C2DED028BC5
S22401560059D8B0EB410F56DB01EE101A07EE100AF8EE416ADFED2B1AF8EE477A26EEA12AE7
S22401562080EE270AC2EE272AF7EE008AF0EE080A12EE900AB0EE688A00EE608AFBF744FE2F
S22401564041EC100B11F0CCFE51EC100BFCF752F938EE086A03EE100A66EE033A73EE034AB9
S22401566038EEE34A08EE084AF0EE005A35EEE45A154A164984EE057AA300D018CA1801349F
S2240156802C70F8EE007A27EE270A80ED007A104860EE030AC118C2ED000A81ED007A0D4A57
S2240156A00D4928EE488AD018CB18C0ED003A83ED008A002000E00120BDEC028B38BD00BFEF
S2240156C02C480020DB0FC9403C4400206C4400209C440020CC440020FC44002070B52DEDFE
S2240156E0068B784B1C780B2C9CB000F2E680B0EB410FC0F2E28000EE100A07EE101AF8EED5
S224015700407AF8EE479A9FED701AC9EEA70AB6EE009A60EE811A9FED6D8A61EE899AF7EE83
S224015720008A39EE690A8DED058A8DED008A8DED068A8DED018A8DED088A8DED038A8DED96
S224015740098A8DED048ACDED078ACDED028A12F043F8B0EE40AA39EE890A12F03DF88AEEE9
S224015760002A02A807AA00239FED595A9FED591A62EE053A02EE015ADFED575A03EE825A19
S22401578062EE254ADFED556A24EE827ADFED542A22EE263A35EEE34A75EE631A77EE636A8F
S2240157A072EE023A22EE226A73EEA22A46EE022A36EE280ADFED4B4A12EE426A03EE420A7E
S2240157C042EE642A9FED482A74EE077A36EEA55A36EE426AC7EE800A81EE803AC5EE005ABC
S2240157E082EE801A86EE000A8DED0A8A8DED0B8A8DED138A8DED148A0AA9CD1813AEF1186D
S22401580095ED017A90ED004AD2ED007A91ED015A63EE071AC1ED027A40EE841A41EE457A56
S224015820D5ED006AD1ED003A45EEA61A40EE637A04330C2B85ED024AE0EC011AE2EC017AE4
S224015840DAD1DDED020ADDED082A9DED033A9DED091A70EE885A38EE628ADDED044A35EEC4
S224015860832A38EE418A32EE246A78EEC88A1F4A1F4B86EE280AA00011181A180134B1EED6
S224015880627A80EE804AC3EE007AC4EE808A81ED004A1849C2ED007A0B18174AC3ED008A07
S2240158A0164B1118074A1818F1EE411AC0ED001A81ED007A1470002000E001201CB0BDECD4
S2240158C0068B70BD2C480020DB0FC940000000004290933E429093BE4290133E980082BEBC
S2240158E00B702D3F980002BF9800823E3C4400206C4400209C440020CC440020FC4400200A
S2240159002DE9F041364B93F8008005460024288801B207EE901A0023B8EEE77A1A46194654
S224015920414545DADFF8CCC02E4F2F489444DCED005ADFF8C4C03E19F718944497ED006AE3
S2240159409CED001ADFF8B4C0284E00EB040E66EE011A9E44944447EE251A9CED005A9EEDD5
S224015960002ADFF89CC03019C0189444204E45EE021AD0ED006ADCED002ADFF888C0361986
S224015980F618944446EEA21AD6ED003A9CED003A43EE231A87ED007A8EED006AC6ED006A0D
S2240159A0C0ED001A013104322033B0EE617AB7E7B6EE000A77EE000A043410EE900AFBF769
S2240159C083FC41EC100B11F0C7FD51EC100BFBF769FF202C25F8020B99D1BDE8F08100BFCE
S2240159E02C4800202C450020AC4600203C410020BC4200203C4400206C4400209C4400203F
S224015A00CC440020FC440020384B5A6910B5384C42F48010812158616170354B5A7802F02B
S224015A200400C1B20029F8D0324C0A2000F03CFA0AF0E6FE2378012B03D902202E49FFF71A
S224015A4047FD2278012A06D92C482D49027843780220FFF73DFD25492A484B6923F4802498
S224015A604C610146FFF786FC03F0FCFFFEF7FEFCFFF7A2FB0120FFF71FFDFDF7F3FDFDF739
S224015A8043F8FDF76BF9FEF705F8FCF70FFCFCF723FFFEF7BFFFFDF787FAFEF7C7FC154A29
S224015AA01078022803D903201749FFF711FD0020FFF702FDFCF71AFF0446FDF7DBF8044352
S224015AC0FFF766F80443FEF791F80443FCF75EFC0443FFF7CDFB044300F036F8044300D191
S224015AE030BF0A49C8690AF011FFE3E72080044000400740EE00FF1F9810030000F0074000
S224015B00B010030040100300E210030028510020064B684620F007011A698D46044901B56B
S224015B2090B20880BDE801408546704700B00B402E480020024B03481A680260704700BFAA
S224015B406C770020344800207FB52B4B187801284ED02A492A4B0A681868111A0A2251435A
S224015B6047F22F53994243D926480178022903D903202549FFF7ACFC684603A905F0A8FA5F
S224015B8083070DD41F4C25781DB101201F49FFF79FFC1F481F49FFF7EDFBFFF769FBFCE7BA
S224015BA0FEF702FF1B480146FFF7E4FBFCF7AEFDFDF740FF01210A46174803F0F5FE0AF0E8
S224015BC029FE0E4B19681A68501A092801D830BFF9E70C4B1978012903D902200F49FFF79B
S224015BE077FC002104200A4609F0DEFC012000E0002007B000BD00BF304800206C770020D5
S224015C0034480020EE00FF1F05110300201103006C0E030040100300B8F104004D110300AB
S224015C2010B50446FFF786FF014B1C7010BD00BF3048002038B52A4B1A78824204464DD0B9
S224015C401870FDF7DFF990B3012C17D019D3022C2DD1C820642104F01FF87820002104F056
S224015C601BF84FF49670B42104F016F87820002104F012F84FF4FA70FF2116E06420B42118
S224015C8013E04FF4FA70FF2104F006F87820002104F002F84FF49670B42103F0FDFF782000
S224015CA0002103F0F9FFC820642103F0F5FF0C48017871B90B4D2B683BB10B4A10780128AA
S224015CC003D902200949FFF703FC00202860FFF7ADFB2046BDE83840FFF7AEBB38BD00BF9D
S224015CE0384800203C480020EE00FF1F59110300024B1878003018BF012070473848002085
S224015D00014B1868704700BF3C480020054B1868016829B100F580500268002A18BF002034
S224015D20704700BF54F104001E4B70B51C68064604F58050026812B92546044600E0054662
S224015D4019490B78022B03D903201849FFF7C0FB28460121FEF7CEFB08B114491DE012485F
S224015D600278022A03D903201149FFF7B1FB284631461022FEF792FB08B10D490DE00A4994
S224015D800B78022B03D903200A49FFF7A1FB20460121FEF7AFFB20B10649FFF7E9FB012027
S224015DA070BD70BD54F10400EE00FF1F891103009F110300C61103000B4B68461A6820F06E
S224015DC007018D4601B5094942F0800018600B685A1C0A6003F084FFFFF766FBFDF7CCFFD1
S224015DE0BDE8014085467047000004406C770020014B1868083070475CF10400094B0A4A3A
S224015E00196801F10803283153F8040B8B4242F8040BF9D11988054B118001221A60024802
S224015E20704700BF5CF10400404800206848002073B5174E306808B9164924E0164B1C68EF
S224015E402068012100902046FEF754FB28B1134801780120D1B1124915E004F10800114961
S224015E602822FEF71BFB05460028F0D1009902AB4A1C43F8082D204669460822FEF70EFB3A
S224015E803560284602E0FFF723FB01207CBD00BF68480020F01103005CF10400EE00FF1FB9
S224015EA0461203004048002038B50A4B054698680AF038FC0446074880680AF033FCA04292
S224015EC004EB050201D99042F5D391B28842F2D338BD00BF28510020034B10B504469868D6
S224015EE00AF020FC206010BD28510020F0B52DED028B0023044689B00F4616461846E218A5
S224015F00D2ED007AF4EEC07AF1EE10FAA8BF01300433202BF3D1012826DD2046082101F0B3
S224015F2055F90022A018D0ED000A80EE801A08A98D180432202A05ED081AF3D19FED0D8A93
S224015F4000250124B44210DA07EB44100822694601F04EF9B4EEC80AF1EE10FAC4BFB0EE3C
S224015F60408A25460134EDE70025284609B0BDEC028BF0BD00000000F8B504460F4600233F
S224015F8004F5385000F1080681688B4212DA03F1700503F1F00604EB461604EB4511301DA9
S224015FA00D1D243650F8041BB04245F8041BF9D10133E5E7022A05D087EAE772A2EBE77227
S224015FC06AB9F8BD002533689D42F5DA05F1700204EB4210043001F053FF0135F3E7C2F192
S224015FE0080700253068854209DA05F1700104EB4113181D394601F050FF0135F2E7F8BDC3
S22401600030B5002300F5385291688B4212DA03F1700403F1F00200EB441500EB4214221D2F
S224016020291D243452F8045BA24241F8045BF9D10133E7E730BD00002DE9F0472DED028BEA
S22401604091461C460A9F0E46002932D103F5385304F604619A689FED1A0AFFF747FF07F110
S2240160600C05804604EB800A04F53850043541688E4213DA15ED018ADFED127A28EE278AFE
S2240160800AEB462205ED018A92ED010A01F042F938EE000A013605ED010AE5E72046394655
S2240160A04A46C7F80080BDEC028BBDE8F04700F047B84FF6FF70BDEC028BBDE8F08700BF45
S2240160C0000048436666663FF0B501294FF00004146001DC1C60F0BD01251D60146800EB28
S2240160E0840696ED007AD0ED017AB4EEE77AF1EE10FA44BF15601C6002291FD0051D022499
S2240161001668043500EB860795ED000AD7ED000AB4EEE00AF1EE10FA02DD1E6014600AE0C0
S2240161201E6800EB860696ED001AB4EEC10AF1EE10FAC8BF1C6001348C42E1DBF0BD0000FA
S2240161402DE9F0432DED028B8BB002ACDFED328A81460E4690462746002509F5385359680B
S2240161608D420FDA06EB8501B0EE000AD1ED030A11F092FB10EE103A78EE808A47F8043FAF
S2240161800135EAE700258D4208DA043494ED001AC1EE281A0135C4ED001AF4E7002202ABAD
S2240161A00192029206F10C0001AAFFF78DFF019C0AA800EB840111ED070A01F0ABF8029B83
S2240161C00AAA02EB8300B0EE408A10ED070A01F0A1F8F2EE0E0AF0EE408AB0EEC80A11F084
S2240161E017F878EE680AB0EEC00A80EE808A07210A4B01FB084803EB8802D2ED007AB4EEB6
S224016200678AF1EE10FA54BF204600200BB0BDEC028BBDE8F08300BF0000000070120300B8
S224016220034601F12C00194601F0CEB970B50C460646154610463146A2000FF036FD022C2D
S22401624019DD33460121621E0433914213DA13ED017AD3ED007AD3ED010A37EE270AF0EE7C
S224016260081A30EE201A013181EE212A12EE100A45F8040FE7E770BD2DE9F04788B0804602
S22401628017460E462022002168460FF02FFD00214FF4807238460FF029FD08AD6A46414626
S2240162A0002042F8040B0024B4420BDA01EB441312ED015AD3ED007A35EE277A013402EDB1
S2240162C0017AF1E707EE906A12ED010AB8EEE77A0431C0EE070AAA4242ED010AE0D1B7EEF5
S2240162E0001A77EE411A002581EE212AB5422CDA08EB4512002308ACE11851ED086A07EB26
S224016300C300002402EB030CDCED005A0DF1200A02EB04090AEB040C99ED006A75EEE62AE7
S2240163205CED083A0119D1ED004A22EE223A36EE634A043443EE044A202CC1ED004AE1D1C0
S2240163400433202BD7D10135D0E708B0BDE8F0872DE9F84F2DED028B06468B4607460025B9
S2240163600BEB050A06EB0509B0460024404697ED000AD0ED007A09EB040320EE270A93EDF4
S224016380008A11F08DFAC8EE000A0AEB04010434202C08F12408C1ED000AE7D12035243762
S2240163A0B5F5807FDCD1BDEC028BBDE8F88FF0B5061D85B0012500244F1EBD4224DA3746F1
S2240163C057ED012AB6EC012AF4EEC22AF1EE10FA18D596ED003AB4EEC32AF1EE10FA11DDB4
S2240163E0B4EEC02AF1EE10FA0CDB022C05DC0DF1100C0CEB840747F80C5C0134032C01DDA7
S224016400002064E00135D7E7012CF9DD0199029E00EB810500EB860195ED007AD1ED007ACA
S224016420B4EEE77AF1EE10FAD4BF0025012585F001060221A14238D001AF0DF1100C57F8E9
S224016440217000EB870797ED000A0CEB860757F80C7C00EB8707D7ED000AB4EEE00AF1EE91
S22401646010FA4FEA85070DDD674457F80C7C00EB8707D7ED001AF4EEE10AF1EE10FA11DDE0
S22401648035460FE00DF1100C674457F80C7C00EB870797ED001AB4EE410AF1EE10FAC8BF7C
S2240164A00D4600E00E460131C4E704A800EB860600EB850556F80C1C55F80C0C8842D4BFA2
S2240164C0106011608842ACBF18601960012005B0F0BD00002DE9F04FD0F8903A2DED068B9A
S2240164E0042BADF60C4D044601DD00204CE1D0F894090428F9DD4B28B4BF05464B251E319F
S2240165008D42A8BF0D46D4F89C29D4F89039C5F1010909EB0201CA1892FBF3F104F12C0695
S22401652003FB1121304604AB2A4601F052F904AB03EB800090ED007ADFED977AB4EEE77A60
S224016540F1EE10FAD1DCD4F89C29D4F8903909EB0201CA1892FBF3F103FB112130462A4619
S2240165600CAB01F0DCF90BAB13AA043393ED000ADFED8A0AB4EEE00AF1EE10FAB5DC934229
S224016580F3D10026B046D4F89C19D4F8903909EB0102D01890FBF3F103FB1101002213A8C4
S2240165A0AA420DDA06EBC10704EB87070131FF6A40F8047F91FBF3F703FB17110132EFE7D1
S2240165C029465FAA14A8FFF731FE0DF5BC7AAAAB03EB860152460023AB4206DA01EB431093
S2240165E052F8047F01330760F6E70022029203925FA829469FED6A0A02AA03ABFFF7D7FE6A
S224016600002800F09380029FDDF80CB07A1CBB1C5B4510DA5FA901EB830001EB8201D0ED7D
S224016620004A91ED005AF4EE454AF1EE10FA48BF1A460133ECE701230021BB4210DA5FA837
S22401664000EB830C00EB8100DCED003A90ED004AF4EE443AF1EE10FA48BF19460133ECE7CE
S2240166600DF5BE7C0CEB87000CEB8B030CEB82020CEB8101D0ED008A93ED008AD2ED009A37
S2240166809FED489A91ED00AA0021A9420EDA0AF1040A504690ED003AB4EEC93AF1EE10FA86
S2240166A001F10101A8BFB0EE439AEEE79FED3C1AF4EEC18AF1EE10FA04DAB4EEC18AF1EE87
S2240166C010FA33DBDFED381AF4EEE18AF1EE10FA2CD5B4EEE18AF1EE10FA27D5B0EE680A45
S2240166E0F0EE480A10F094FDB4EE409AF1EE10FA1CD1CBEB0707002FB8BF7F42112F15DC25
S224016700032F13DD78EECA8A9FED282AF4EEC28AF1EE10FA0ADD38EE698AF2EE0E2AB4EEE8
S224016720E28AF1EE10FAC8BF08F101080136082E7FF429AFB8F1010F7FF7D7AEAAA8294648
S22401674014AAFFF799FD14A85FA9FFF701FE002318465FAA02EB431100229A420DDA01EB94
S2240167608204D4ED005A9FED126AF4EEC65AF1EE10FAA8BF01300132EFE70133082BE8D1BE
S2240167801428D4BF0020012003B00DF5406DBDEC068BBDE8F08F00BF0080A24400001644A4
S2240167A000008C42000000000000484400002042CDCCCC3E2DE9F0418D6800F53853072D84
S2240167C05D6002DD0020BDE8F081CC68802C9C60F8DC0022AA4211DA530201EB030CC71809
S2240167E00023A34208DA9E0007EB0608664401333669C8F80460F4E70132EBE70022A24284
S22401680013DA55014E190023451906EB030C0CF5616CEF1807F5F057DCF800C00433202B19
S224016820C7F804C0F1D10132E9E7496801600120BDE8F08170B5044600250E4605604560CF
S224016840856029461C2200F10C000FF04FFA4B210822A56204F12C0000F0A4FE3220012197
S22401686004F6B412C4F8A059C4F8A459C4F8A859C4F8AC69C4F8B059BDE8704001F0B2B9E0
S22401688038B501230446036000F5385000254560856004EB4521081D4FF400720021013582
S2240168A00FF024FA072DF4D1002505F1700204EB4213181D002120220FF018FA05F1F0005C
S2240168C004EB4011081D2022002101350FF00EFA802DEAD138BD70B50446C8B111B14FF067
S2240168E0FF33436004F1080004F67C1600F041FE304601F062F90025D4F8500A854205DA52
S2240169003046002101F088F90135F5E7002070BD012070BD38B505460C46B1B101F10800D5
S2240169200822192100F03EFE88B10A20691E04F67C1201F057F960B920460121FFF7CBFFAD
S224016940002814BF0420002038BD012038BD022038BD032038BD32B14B1E012B05D882E8F9
S224016960030000207047012070470220704710B5B8B1002915DB002A13DB8A4211DA041F4D
S224016980002310460434D4ED007AF4EEC07AF1EE10FAC4BFB0EE670A184601338B42F1DB43
S2240169A010BD4FF0FF3010BD2DE9F043ADF63C3D9046DDF85C4BDDF8587B1E46002C6ED09C
S2240169C0002A67D0002B65D0002F63D06268002A60DD022A5EDCD4F8803A5D1C7368AB4230
S2240169E058D1002956D105460DF1080E00F1200C28686968734603C3083565459E46F7D129
S224016A0002A8216801F06BFA002843D1386800907968BA6802A8082300F084FD07460028BD
S224016A2038D104F10809484602A900F0CDFD484600F03BFE182804F67C1526DD4846192101
S224016A4012AA01F062F828BB12A84146DAAA00F09BF8F8B9DAA831460AAA00F02BF8074640
S224016A60C0B971680AA83A46B6EE000AFFF77FFF011E0FDB284601F0CFF8284601F010F9D3
S224016A80431C0FD040EAE0700DE02846394601F0C3F807E004F67C10002101F0BDF84FF03F
S224016AA0FF3000E038460DF54F7D0DF5006DBDE8F08300002DE9F04180462DED028B0C46E8
S224016AC0002945D08B68002B42D0C86800283FD049680A293EDC2368B3F5FA7F3ADC9FED8F
S224016AE0208A1646174600256268954223DA2268A36802FB05F1404603EB810100F08EFB73
S224016B00E26887ED000A02EB8500D0ED000A30EE201A0135A7EC011AB1EE410A10F0B4FE96
S224016B20F7EE001A30EE212AC1EE822A47ED012A38EE228AD8E70020904207DAD6ED007A8C
S224016B4087EE880A0130A6EC010AF5E7002002E0012000E00220BDEC028BBDE8F08100BF4E
S224016B600000000048B10523642280E80C000449044BC1608360002070470120704700BFE6
S224016B80041B0300341303002DE9F0412DED028B8046ADF5FA6D16460C4600293FD0CB68AD
S224016BA0002B3CD00869002839D08968B1F5FA7F37DC6268C82A34DCADF104070025A3682E
S224016BC09D4217DA6368E16803FB05F2404601EB82011A4694ED008A00F08CFCB1EE488A8D
S224016BE028EE000A10F050FE10EE100A013547F8040FE4E7043E0025A26895420DDA2369FB
S224016C0002FB05F1684603EB810100F007FB10EE100A013546F8040FEEE7002002E00120D4
S224016C2000E002200DF5FA6DBDEC028BBDE8F08158B1074BC82103604160064B0649C3608C
S224016C40642282600161002070470120704700BF0AD7A33B181B03009853040038B10549DB
S224016C60054A4160082303608260002070470120704700BFD8EF0400F8EF040070B5002441
S224016C8005462026046044608460C4622146324600F10C000FF02AF8214650222C636C6317
S224016CA0AC6305F13C000FF021F805F1B40021463246BDE870400FF019B8002310B50021BE
S224016CC00446C0F88C30C0F89030202200F194000FF00CF804F1D4003221082200F062FC1A
S224016CE02046BDE81040FFF7C9BF0000144B33F81000642816D005D8012813D018D32A2883
S224016D0018D11AE0B0F5987F0FD04FF6FF72904213D0DFED0C7A9FED0C7A652818BFF0EEDE
S224016D20477A07E0DFED097A04E0F6EE007A01E0F7EE007A20EE270A70479FED030A70478E
S224016D4018F004006666663F000000009A99193F70B506462DED028B10460C461546FFF714
S224016D60C5FF08213046B0EE408A00F02FFAB4EEC80AF1EE10FA02D90123236000E0002545
S224016D8004F1D40000F0F5FB2846BDEC028B70BD70B59FED150A05460C4601F0E2F8134BDD
S224016DA0D3ED006A03281DDDF0EE667A00234FF0FF3254F823109E0051B1A91991ED007A54
S224016DC0B4EEE77AF1EE10FA44BF1A46F0EE477A0133082BEDD1531C04D0002144F82210C8
S224016DE00138DFE770BD00BFCDCCCC3E2402FF1FF0B52DED028BD1F83C3A89B007460C4658
S224016E00154613B901F1B4000AE00021202268460EF06CFF04F1D400694600F0F6FD684632
S224016E20082100F0D3F904F1D40630463946B0EE408A00F0C9FB0821384600F0C7F930EE12
S224016E40480ADFED1C7A80EE088AB4EEE78AF1EE10FA08DD626B184B33F81200002814BF2F
S224016E602846002021E0012060600021202268460EF03CFFD4F83C2AD4F8441AD4F8383AB8
S224016E80052AA8BF05228F1A781CC11891FBF3F703FB171130466B4600F0F7FD684604F1CF
S224016EA00C01FFF775FFE062284609B0BDEC028BF0BD00BFCDCCCC3D18F004002DE9F04353
S224016EC02DED028B1F469368556B89B08046894614462BB1AF4203D017B1002090603D46C2
S224016EE0002609EB060191ED000ADFED327ADFED320A20EE270A10F08BF9DFED300A10F09A
S224016F00A0F908AA93190436202E03ED080AE8D12B4830F81510DFED2B0ADFED2B8A0129C5
S224016F2018BFF0EE608A00221646134608EB020008A990ED007A881810ED081AA118B4EE1E
S224016F40C17AC868F1EE10FA98BF013328B1B4EEC17AF1EE10FA98BF01360432202AE5D1E9
S224016F60082B1DD00821404600F030F9082104F1B400B0EE408A00F029F970EE281AB4EE95
S224016F80E18AF1EE10FA0ADD40F2E7339D4206D00025012125606560A1603D4604E01EB1E7
S224016FA0002525606560A560284609B0BDEC028BBDE8F0836666A63F000048420000F04275
S224016FC018F00400000048430000AA432DE9F0411E468B6B0C46904603F11301142291FB94
S224016FE0F2F502FB151104EB830304EB81022DED028BD16B656BDE63684B33F8155084B02F
S2240170000746DDB933F81620C2B133F81110914210D1082100F0DAF8082104F19400B0EE78
S224017020408A00F0D3F8B4EEC08AF1EE10FA94BF0025354600202060606000E035462368B7
S2240170403BB92A463846214694ED230AFFF780FE054622683AB1616829B92A4638462146FF
S224017060FFF7C6FE0546606830B3A26B1423103292FBF3F103FB11220521002304EB820078
S224017080C06BA84208BF01330132142092FBF0FC013900FB1C22F1D1042BD8BF00253F4853
S2240170A0636B30F813203AB12B46384604F194012246FFF703FF0546384931F8153033B9B7
S2240170C0606B31F8102012B10A2323630BE0236B002B08DD581E20632DB1A56B0E3504EB6E
S2240170E085020025556031F81610B1F5987F3DD1606B2A4A32F81030002B37D140466946FE
S22401710000F005FE90BB4FF00F080646684600F002FE0028C8BF0136B8F1010802D1DEB9E9
S2240171200A2603E00028F1DAF9E720B9684600F0F2FD013EF9D1002818DD4FF01908012650
S224017140684600F0E8FD0028C8BF0136B8F1010809D1023E022E09D8A56B0E3504EB85011B
S22401716000254D6002E00028EADAF2E7A06B1423421C92FBF3F103FB1120A06307F1200332
S224017180B43457F8042B9F4244F8042BF9D1284604B0BDEC028BBDE8F08100BF18F0040034
S2240171A0DFED097A043800238B4206DA0430D0ED000A013377EEA07AF6E707EE101AB8EE1E
S2240171C0C70A87EE800A7047000000009FED070A043800238B4206DA0430D0ED007A0133DA
S2240171E007EEA70AF6E710F05BBB00BF0000000010B59FED090A04380439002393420ADA78
S2240172000431043090ED007AD1ED007A0C4607EE270A0133F2E710BD0000000010B5DFEDED
S224017220107A043804390023B0EE670A934213DA04310430D0ED006A91ED007A66EE870AE4
S2240172400C46F5EEC00AF1EE10FA4CBF77EEA07A30EE200A0133E9E730EE270A10BD00BF8F
S2240172600000000090ED000A01238B420CDA0430D0ED007AB4EEE70AF1EE10FA03F10103CB
S22401728048BFB0EE670AF0E7704710B5D0ED007A0246012300208B420FDA043292ED007AD7
S2240172A0F4EEC77AF1EE10FA54BFB0EE677A184614460133F0EE477AEDE710BD90ED000A77
S2240172C001238B420CDA0430D0ED007AB4EEE70AF1EE10FA03F10103C8BFB0EE670AF0E785
S2240172E0704710B5D0ED007A0246012300208B420FDA043292ED007AF4EEC77AF1EE10FA58
S224017300D4BFB0EE677A184614460133F0EE477AEDE710BD08B510F0BDFADFED027A20EE5F
S224017320270A08BD3BAAB83FD0ED010AD0ED007A90ED020A60EEA01A90ED037A47EEA71AF5
S22401734020EE801A07EE871A31EEA12AF7EE002A31EE010A72EEC20A10F094BA90ED020AC3
S224017360D0ED006A90ED037AD0ED017A60EE260A57EE270A30EEA00A10F082BAD0ED020AED
S224017380D0ED017A90ED000A60EEA01A90ED037A47EEA71A27EE801A00EE871A31EEA12A08
S2240173A0F7EE002A31EE010A72EEC20A10F06ABADFED047A9FED047A20EE270A80EE070A2C
S2240173C0704700BFDB0F49400000344308B5B5EEC00AF1EE10FA2DED028BB0EE408A0DD543
S2240173E0DFED0B7AB1EE400A80EE270A0FF0BAFF9FED081A70EE000A00EE818ADFED040A0D
S224017400B0EE480ABDEC028BBDE8084010F03EBADB0FC940DB0F4940B1EE400AFFF7D6BF81
S22401742038B52DED028B0446B0EE608A0D46F0EE408A10F035F828EE000A84ED000AB0EE7F
S224017440680A10F0C9F968EE000AC5ED000ABDEC028B38BD38B52DED028BB0EE408AF0EED1
S224017460608AB0EE600AF0EE480A04460D4610F009FA84ED000AFFF7A9FF84ED000A28EE9A
S224017480A80A08EE080A10F00BFA85ED000ABDEC028B38BD70B50D462DED028B11460646BE
S2240174A01446FFF793FE28462146B0EE408AFFF78DFEDFED0F7A301F043D0023A3420FDA51
S2240174C004300435D0ED006A95ED007AC6EE880A013387EE001A70EEC11A41EEA17AEDE7B6
S2240174E0B0EE670ABDEC028BBDE8704010F0D8B90000000010B59FED0A0A0438043900235A
S22401750093420CDA0431043090ED007AD1ED007A77EE670A0C4600EEA00A0133F0E710BD7A
