S02B00006D796F2D636F72652D6170706C69636174696F6E2D5245565F442D6E6F2D636865636B73756D2E680B
S224010000000001206D22010081F8010097F8010097F8010097F8010097F8010097F80100DF
S22401002097F8010097F8010097F8010097F8010097F8010097F8010097F8010097F801003A
S224010040A1000200D1000200010102003101020097F8010097F8010097F8010097F80100AC
S22401006097F8010097F8010097F8010097F8010097F8010097F8010097F8010097F80100FA
S2240100804500020097F8010097F8010097F8010097F8010097F8010097F8010097F8010023
S2240100A0F104020097F8010097F8010097F8010097F8010097F8010097F8010029F70100C2
S2240100C029F7010097F8010097F8010097F8010097F8010097F8010097F80100B93D0100A2
S2240100E097F8010029F3010097F8010097F8010097F8010097F8010097F8010097F80100ED
S22401010097F8010097F8010097F8010097F8010097F8010097F8010097F8010097F8010059
S22401012097F8010097F80100695E0100E99D0100099E0100299E0100559E0100A99E01009E
S22401014097F8010097F8010097F8010097F8010097F8010097F8010097F8010097F8010019
S22401016097F80100C15B010097F8010097F8010097F8010097F8010097F8010097F801006C
S21401018097F8010097F801000100040086060200B6
S2240101F8FFFFFFFF508206006E0000007B0D0A20202276657273696F6E223A207B0D0A2077
S224010218202020226D616A6F72223A20312C0D0A20202020226D696E6F72223A20342C0D85
S2240102380A20202020227061746368223A20313637302C0D0A20202020226861726477613E
S22001025872655F7265766973696F6E223A20320D0A20207D0D0A7D0D0A000000B2
S2240104100000000000000000000000000000000000000000000000000000000000000000C6
S2240104300000000000000000000000000000000000000000000000000000000000000000A6
S224010450000000000000000000000000000000000000000000000000000000000000000086
S224010470000000000000000000000000000000000000000000000000000000000000000066
S22401100081F0004102E000BF83F0004330B54FEA41044FEA430594EA050F08BF90EA020FF9
S2240110201FBF54EA000C55EA020C7FEA645C7FEA655C00F0E2804FEA5454D4EB5555B8BFCF
S2240110406D420CDD2C4480EA020281EA030382EA000083EA010180EA020281EA0303362D86
S22401106088BF30BD11F0004F4FEA01314FF4801C4CEA113102D0404261EB410113F0004FF0
S2240110804FEA03334CEA133302D0524263EB430394EA050F00F0A780A4F10104D5F1200E2E
S2240110A00DDB02FA0EFC22FA05F2801841F1000103FA0EF2801843FA05F359410EE0A5F176
S2240110C020050EF1200E012A03FA0EFC28BF4CF0020C43FA05F3C01851EBE37101F0004582
S2240110E007D54FF0000EDCF1000C7EEB00006EEB0101B1F5801F1BD3B1F5001F0CD34908FC
S2240111005FEA30004FEA3C0C04F101044FEA445212F5800F80F09A80BCF1004F08BF5FEADA
S224011120500C50F1000041EB045141EA050130BD5FEA4C0C404141EB010111F4801FA4F1E4
S2240111400104E9D191F0000F04BF01460020B1FA81F308BF2033A3F10B03B3F120020CDA89
S2240111600C3208DD02F1140CC2F10C0201FA0CF021FA02F10CE002F11402D8BFC2F1200C02
S22401118001FA02F120FA0CFCDCBF41EA0C019040E41AA2BF01EB0451294330BD6FEA04043C
S2240111A01F3C1CDA0C340EDC04F11404C4F1200220FA04F001FA02F340EA030021FA04F38D
S2240111C045EA030130BDC4F10C04C4F1200220FA02F001FA04F340EA0300294630BD21FAAB
S2240111E004F0294630BD94F0000F83F4801306BF81F480110134013D4EE77FEA645C18BF89
S2240112007FEA655C29D094EA050F08BF90EA020F05D054EA000C04BF1946104630BD91EAC2
S224011220030F1EBF0021002030BD5FEA545C05D14000494128BF41F0004130BD14F580041F
S2240112403CBF01F5801130BD01F0004545F0FE4141F470014FF0000030BD7FEA645C1ABF9B
S224011260194610467FEA655C1CBF0B46024650EA013406BF52EA033591EA030F41F400218A
S22401128030BD00BF90F0000F04BF0021704730B54FF4806404F132044FF000054FF00001B7
S2240112A050E700BF90F0000F04BF0021704730B54FF4806404F1320410F0004548BF404203
S2240112C04FF000013EE700BF42004FEAE2014FEA31014FEA02701FBF12F07F4393F07F4F7D
S2240112E081F06051704792F0000F14BF93F07F4F704730B54FF4607401F0004521F000411F
S22401130020E700BF50EA010208BF704730B54FF000050AE050EA010208BF704730B511F092
S224011320004502D5404261EB41014FF4806404F132045FEA915C3FF4DCAE4FF003025FEAA9
S224011340DC0C18BF03325FEADC0C18BF033202EBDC02C2F1200300FA03FC20FA02F001FAB5
S22401136003FE40EA0E0021FA02F11444C1E600BF70B54FF0FF0C4CF4E06C1CEA11541DBF20
S2240113801CEA135594EA0C0F95EA0C0F00F0DEF82C4481EA030621EA4C5123EA4C5350EA6E
S2240113A0013518BF52EA033541F4801143F4801338D0A0FB02CE4FF00005E1FB02E506F0A6
S2240113C00042E0FB03E54FF00006E1FB03569CF0000F18BF4EF0010EA4F1FF04B6F5007F07
S2240113E064F5407404D25FEA4E0E6D4146EB060642EAC62141EA55514FEAC52040EA5E509A
S2240114004FEACE2EB4F1FD0C88BFBCF5E06F1ED8BEF1004F08BF5FEA500E50F1000041EBCD
S224011420045170BD06F0004646EA010140EA020081EA0301B4EB5C04C2BFD4EB0C0541EAA0
S224011440045170BD41F480114FF0000E013C00F3AB8014F1360FDEBF002001F0004170BD30
S224011460C4F10004203C35DA0C341BDC04F11404C4F1200500FA05F320FA04F001FA05F232
S22401148040EA020001F0004221F0004110EBD37021FA04F642EB06015EEA430E08BF20EAA4
S2240114A0D37070BDC4F10C04C4F1200500FA04F320FA05F001FA04F240EA020001F00041C8
S2240114C010EBD37041F100015EEA430E08BF20EAD37070BDC4F1200500FA05F24EEA020EA8
S2240114E020FA04F301FA05F243EA020321FA04F001F0004121FA04F220EA020000EBD37025
S2240115005EEA430E08BF20EAD37070BD94F0000F0FD101F00046400041EB010111F4801F2F
S22401152008BF013CF7D041EA060195F0000F18BF704703F00046520043EB030313F4801F21
S22401154008BF013DF7D043EA0603704794EA0C0F0CEA135518BF95EA0C0F0CD050EA410607
S22401156018BF52EA4306D1D181EA030101F000414FF0000070BD50EA410606BF104619465F
S22401158052EA430619D094EA0C0F02D150EA013613D195EA0C0F05D152EA03361CBF104600
S2240115A019460AD181EA030101F0004141F0FE4141F470014FF0000070BD41F0FE4141F423
S2240115C0780170BD70B54FF0FF0C4CF4E06C1CEA11541DBF1CEA135594EA0C0F95EA0C0F7C
S2240115E000F0A7F8A4EB050481EA030E52EA03354FEA013100F088804FEA03334FF08055E8
S22401160045EA131343EA12634FEA022245EA111545EA10654FEA00260EF000419D4208BF33
S224011620964244F1FD0404F5407402D25B084FEA3202B61A65EB03055B084FEA32024FF40A
S22401164080104FF4002CB6EB020E75EB030E22BFB61A754640EA0C005B084FEA3202B6EB50
S224011660020E75EB030E22BFB61A754640EA5C005B084FEA3202B6EB020E75EB030E22BF1E
S224011680B61A754640EA9C005B084FEA3202B6EB020E75EB030E22BFB61A754640EADC008F
S2240116A055EA060E18D04FEA051545EA16754FEA06164FEAC30343EA52734FEAC2025FEA50
S2240116C01C1CC0D111F4801F0BD141EA00014FF000004FF0004CB6E711F4801F04BF01437D
S2240116E00020B4F1FD0C88BFBCF5E06F3FF6AFAEB5EB030C04BFB6EB020C5FEA500C50F136
S224011700000041EB045170BD0EF0004E4EEA113114EB5C04C2BFD4EB0C0541EA045170BDF2
S22401172041F480114FF0000E013C90E645EA060E8DE60CEA135594EA0C0F08BF95EA0C0FCF
S2240117403FF43BAF94EA0C0F0AD150EA01347FF434AF95EA0C0F7FF425AF104619462CE784
S22401176095EA0C0F06D152EA03353FF4FDAE1046194622E750EA410618BF52EA43067FF492
S224011780C5AE50EA41047FF40DAF52EA43057FF4EBAE12E74FF0FF3C06E000BF4FF0010C2E
S2240117A002E000BF4FF0010C4DF804CD4FEA410C7FEA6C5C4FEA430C18BF7FEA6C5C1BD0EE
S2240117C001B050EA410C0CBF52EA430C91EA030F02BF90EA020F0020704710F1000F91EA3A
S2240117E0030F58BF994208BF90422CBFD8176FEAE37040F0010070474FEA410C7FEA6C5C21
S22401180002D150EA013C07D14FEA430C7FEA6C5CD6D152EA033CD3D05DF8040B704700BF48
S2240118208446104662468C461946634600E000BF01B5FFF7B7FF002848BF10F1000F01BD02
S2240118404DF808EDFFF7F4FF0CBF012000205DF808FB00BF4DF808EDFFF7EAFF34BF01200F
S22401186000205DF808FB00BF4DF808EDFFF7E0FF94BF012000205DF808FB00BF4DF808ED37
S224011880FFF7CEFF94BF012000205DF808FB00BF4DF808EDFFF7C4FF34BF012000205DF858
S2240118A008FB00BF4FEA410212F5001215D211D56FF47873B3EB625212D94FEAC12343F023
S2240118C0004343EA505311F0004F23FA02F018BF404270474FF00000704750EA013005D149
S2240118E011F0004008BF6FF0004070474FF00000704700BF4FEA4102B2F1E04324BFB3F502
S224011900001CDCF1FE5C0DD901F0004C4FEAC0024CEA5070B2F1004F40EB830008BF20F0F3
S2240119200100704711F0804F21D113F13872BCBF01F00040704741F480114FEA5252C2F1C0
S2240119401802C2F1200C10FA0CF320FA02F018BF40F001004FEAC1234FEAD32303FA0CFC1A
S22401196040EA0C0023FA02F34FEA4303CCE77FEA625307D150EA01331EBF4FF0FE4040F4F5
S2240119804000704701F0004040F0FE4040F40000704700BF80F0004002E000BF81F00041FE
S2240119A042001FBF5FEA410392EA030F7FEA226C7FEA236C6AD04FEA1262D2EB1363C1BF5D
S2240119C0D218414048404140B8BF5B42192B88BF704710F0004F40F4000020F07F4018BF0E
S2240119E0404211F0004F41F4000121F07F4118BF494292EA030F3FD0A2F1010241FA03FC39
S224011A0010EB0C00C3F1200301FA03F100F0004302D5494260EB4000B0F5000F13D3B0F198
S224011A20807F06D340084FEA310102F10102FE2A51D2B1F1004F40EBC25008BF20F00100CE
S224011A4040EA03007047490040EB000010F4000FA2F10102EDD1B0FA80FCACF1080CB2EB4D
S224011A600C0200FA0CF0AABF00EBC25052421843BCBFD0401843704792F0000F81F4000163
S224011A8006BF80F400000132013BB5E74FEA41037FEA226C18BF7FEA236C21D092EA030F3A
S224011AA004D092F0000F08BF0846704790EA010F1CBF0020704712F07F4F04D1400028BFE7
S224011AC040F00040704712F100723CBF00F50000704700F0004343F0FE4040F4000070472E
S224011AE07FEA226216BF08467FEA23630146420206BF5FEA412390EA010F40F480007047EF
S224011B004FF0000304E000BF10F0004348BF40425FEA000C08BF704743F0964301464FF0A9
S224011B2000001CE050EA010208BF70474FF000030AE000BF50EA010208BF704711F00043FE
S224011B4002D5404261EB41015FEA010C02BF84460146002043F0B64308BFA3F18053A3F55E
S224011B600003BCFA8CF2083AA3EBC25310DB01FA02FC634400FA02FCC2F12002BCF1004FEF
S224011B8020FA02F243EB020008BF20F00100704702F1200201FA02FCC2F1200250EA4C0009
S224011BA021FA02F243EB020008BF20EADC70704773B96AB9002908BF0028BCBF00204FF0CB
S224011BC00041C4BF6FF000414FF0FF3000F08AB882B0EC462DE9005000F058F8DDF804E038
S224011BE002B00CBC704700BF4BB942B9002908BF002802D04FF0FF31084600F073B882B0FC
S224011C00EC462DE9005000F057F8DDF804E002B00CBC704707EE900AF5EEC07AF1EE10FA68
S224011C2008B503D4BDE8084000F00CB8B1EE670A10EE100A00F006F8424261EB41031046E9
S224011C40194608BD70B5FFF73FFB00230022C3F6F05304460D46FFF78BFB00F045F8064632
S224011C60FFF710FB00230022C4F2F013FFF780FB02460B4620462946FFF7C6F900F034F8AF
S224011C80002202431046314670BD00BFF8B5164604460D461F4600F047F806FB01F300FBF4
S224011CA00737A6FB0023FB18A21A65EB0303069CC4E90023F8BD00BFF8B5164604460D466B
S224011CC01F4600F08FF900FB07F7A0FB062306FB0177FB18A21A65EB0303069CC4E9002354
S224011CE0F8BD00BF704700BF4A0011D212F5001211D20DD56FF47873B3EB62520ED44FEA2E
S224011D00C12343F0004343EA505323FA02F070474FF00000704750EA013002D14FF0FF302B
S224011D2070474FF00000704700292DE9F00F1D46C0F29D800024002DC0F2948080460F464E
S224011D4094461E46E3BB8A4255D9B2FA82F747B1C7F1200520FA05F601FA07F1BA40314337
S224011D60B840170CB1FBF7F6030C1FFA82FC07FB16110CFB06F543EA01439D4208D9711E18
S224011D809B1880F013819D4240F21081023E9B18591BB1FBF7F507FB151380B20CFB05FC81
S224011DA040EA03418C4507D96B1E8A1880F00081944540F2FD80023D45EA0641002503E09D
S224011DC08B420CD9002529460A462B4614B1524263EB430310461946BDE8F00F7047B3FA4C
S224011DE083F5002D40F087808B4201D38242EAD800250121E8E712B90126B6FBF2F2B2FA91
S224011E0082F6002E39D18E1A130C1FFA82FC0125B6FBF3F703FB17614FEA10490CFB07F8DF
S224011E2049EA0146B04506D9791EB61802D2B04500F2D3800F46C8EB0606B6FBF3F103FB34
S224011E40116380B20CFB01FC40EA03439C4506D94E1E9A1802D2944500F2C280314641EA01
S224011E600741B1E7E443524263EB430366E7404261EB41014FF0FF345DE7B240C6F1200948
S224011E8021FA09F720FA09F5130C01FA06F1B7FBF3F845EA01091FFA82FC03FB18774FEAC5
S224011EA019410CFB08F541EA0747B040BD420AD9BF1808F1FF3680F08E80BD4240F28B80B4
S224011EC0A8F10208BF18791BB1FBF3F503FB15171FFA89F90CFB05F649EA07418E4206D969
S224011EE06F1E891871D28E426FD9023D89188E1B45EA08458CE7C5F1200122FA01F306FAF4
S224011F0005F61E4327FA01F24FEA164907FA05F720FA01F1B2FBF9F80F433B0C1FFA86FADA
S224011F2009FB18220AFB08FB43EA024293450CFA05FC08D9921908F1FF314AD2934548D93B
S224011F40A8F102089219CBEB0203B3FBF9F109FB1132BFB20AFB01FA47EA02439A4506D9EE
S224011F604A1E9B1933D29A4531D902399B1941EA08410F0C1FFA8CF808FB07F68AB24FEAC1
S224011F801C4C08FB02F80CFB026202EB18420CFB07FC964288BF0CF5803CCAEB03030CEB8C
S224011FA0124C63450ED305D000250DE70E46EFE61D4601E71FFA88F800FA05F008EB024510
S224011FC0A842F1D201390025FEE63D468FE71146CDE78846B7E7B04675E7023FB6182AE729
S224011FE002393CE72DE9F007144605460E46002B3DD18A4249D9B2FA82F747B1C7F120015A
S22401200020FA01F206FA07F6BC401643BD40220CB6FBF2F02F0CA1B202FB106601FB00F3AD
S22401202047EA0646B34208D9471E361980F0F880B34240F2F58002383619F61AB6FBF2F3E0
S22401204002FB1362ADB201FB03F145EA0242914207D95E1E121980F0E580914240F2E280B0
S224012060023B43EA00400021BDE8F00770478B4243D8B3FA83F4002C42D18B4202D382428B
S22401208000F2DF8000210120EEE712B90127B7FBF2F4B4FA84F2002A40F088800A1B230C6D
S2240120A0A7B20121B2FBF3F603FB16224FEA154C07FB06F04CEA0242904207D9121906F1F3
S2240120C0FF3C02D2904200F2CE806646121AB2FBF3F003FB1023ADB207FB00F745EA034373
S2240120E09F4207D9421E1B1980F09E809F4240F29B80023840EA0640B6E700210846B3E779
S224012100C4F1200622FA06F503FA04F32B434FEA134C21FA06F501FA04F120FA06F6B5FB01
S224012120FCF746EA010A1FFA83F80CFB17554FEA1A4108FB07F941EA0545A94502FA04F278
S22401214003D97E1EED187FD33746C9EB0501B1FBFCF60CFB16151FFA8AFA08FB06F84AEAD1
S2240121600541884503D9751EC91873D32E4646EA0746370C1FFA82FC0CFB07F5120CB3B25F
S2240121800CFB03FC02FB035303EB1C4302FB07F29D4288BF02F58032C8EB010102EB1342D7
S2240121A091424BD342D0304600215DE79440C2F1200521FA05F6230C20FA05F701FA02F146
S2240121C0B6FBF3FC39430D0CA7B203FB1C6645EA064607FB0CF8B04500FA02F508D9361954
S2240121E00CF1FF303DD2B0453BD9ACF1020C3619C8EB0602B2FBF3F003FB10268AB242EAB4
S224012200064207FB00F1914206D9461E121926D2914224D902381219521A40EA0C4141E704
S22401222038460AE733461CE7104663E71FFA8CFC00FA04F00CEB03439842B4D2701E002132
S22401224012E7214620460FE7A9457FF67DAF023FED187AE7884589D9023EC91887E7304652
S224012260DAE78446C4E7023E12192FE718F012FE0DF08CFB09480A4A0021121A13F0B6FE5C
S22401228018F0E4FD18F018FE18F07EFD18F022FE044900200EF030FC13F05AFE3002FF1F44
S2240122A02CCA00203002FF1FFEE70000044B054964221A70044A002008701070704700BF44
S2240122C04A02FF1F3902FF1F3802FF1F034B187003480268511C0160704700BF4B02FF1FA3
S2240122E03402FF1F70B5002213464BB1581E22490D5CCC5CA54203D2CD540C54C3B2F4E7E9
S2240123000132D2B2102AEFD11B4B1878002102460C460123184D6D186D78A84205D1CEB222
S2240123200E2E02D0581CC3B209E0A34204D805D190421C4601D801E01C4602460123013132
S2240123400F2901D02846E5E70C4B1868824201D3421ED2B20A490B7893420A4B08D1197877
S224012360481CC1B20729197005D9074B1A7070BD002018700A7070BD3A02FF1FACAF0200DA
S2240123804C02FF1F3902FF1F4A02FF1F38B5194B18680F282BD9184A1849137808781849CD
S2240123A0C8540133D8B20F2810701BD9154D164CFFF798FF2A7801211120A21800F026FB81
S2240123C02978635C052B01D8022004E00F2B01D8012000E0002002F093FF074A00201070DF
S2240123E0012000E00020034B0021196038BD002038BD00BF3402FF1F3802FF1F4B02FF1FEE
S2240124003A02FF1F4A02FF1F44AF020070B5194D194A2E6830237343D6F1010638BF002685
S2240124202E60C025D554D418002501238D4212D0425DC02A03F1010604D1DB22E25433460F
S224012440DC2204E0DB2A02D1E2543346DD22E25401350133EAE7C020E0545D1C0749AAB264
S224012460486821460DF0A4F8082801D130BFF5E770BD00BFF803FF1F5004FF1F409C002066
S2240124801D4B1A6810B58AB91C490868002831D01B4C0A6020781B4C012804D902201A49EB
S2240124A0226803F06DF80023236020E0174801684B00202B1DDC1648164A0168136829B1BB
S2240124C0154A172101FB0320FFF7A0FF0A4B1868411E19600F4B1A68501C1F2801D818601E
S2240124E001E01F3A1A6009490B685A1C0A60012010BD002010BD00BF9407FF1FD803FF1F31
S224012500EE00FF1F5002FF1FB0AF02009007FF1FD003FF1FD403FF1FB004FF1F38B54D4BE6
S2240125201A78012A0CD003D3022A40F08A8014E049490A78022A40F084800120187080E04F
S22401254045490A78032A7CD102201870434A444B002111601960434A72E04148424B0268BB
S224012560172101FB02313C4B1878DB2802D101203C494CE01A78C02A4BD1384A1368002B6F
S2240125805FD0162B03D80020C8540133F9E71360334A1368344A17204343D118D05C0A28AD
S2240125A003D1324B324A196804E0D05C0C2803D14978304A116028E0C8780D2814D14878E1
S2240125C0192811D1D35C062B0ED12B4C0A79236841F61060D518854217D828480531C01846
S2240125E013F0E3FC256010E01D490A68501C1028086001D100230B60214A09681068814223
S22401260003D12048204902F00DFF14490020086017E0144A106858B11878DC2801D1C02010
S22401262003E01878DD2801D1DB201870002313600A4A1368162B04D807480078C854591CED
S22401264011601249486804490122BDE838400CF07FBF00BF3104FF1F1304FF1F9807FF1F2D
S2240126604C04FF1F5402FF1F5802FF1F84C20020DC03FF1F9007FF1F7CC200206CA4002054
S224012680C803FF1F0C120300E0130300409C002038B50378092B05460A4607D0154A136850
S2240126A0002B25D0BDE83840FFF7B0BE1248134B04681F2C01D901211960186820B1104BE3
S2240126C01868411C196038BD0E4B196863181F2B0D4988BF203B172000FB0310294613F05B
S2240126E064FC054A01341460BDE83840FFF7C8BE38BD00BFD003FF1F9407FF1FD803FF1F8C
S2240127005002FF1FD403FF1FB004FF1F10B50C4C60680CF08BFF60680CF0BAFF09480A4BEE
S2240127200A49002404600A200C601C6003F014FC074801212246BDE8104007F04DBA00BF18
S224012740409C0020CC03FF1FD003FF1F9407FF1F882E060070B5504A5048514E51494068EC
S2240127600023136086B0012233700CF0F1FE4E48012107F01BFA3178012901D030BFFAE79E
S2240127804A4C4B4D216003F08BFB14220446002101A813F02BFC2E68AB880196ADF808305A
S2240127A001F07EFB94F82050027894F82140FF2A14BF16460026FF2D01D0FF2C01D10024AA
S2240127C02546002000F0E2FE3A498DF80C50072315220B704A7014230522003018BF012018
S2240127E08B70ADF80A208DF80D408DF80E008DF8106001AACB1C05AD144603CC1860596011
S2240128000833AC422246F7D121682A4819601721FFF73EFF28480346032203F8012B274A04
S22401282011685268C0F8011017215A60FFF730FF03F036FB014622480A2303700A78013057
S224012840FF2A08BF1F49162213F0DDFB1C481721FFF71EFF1C48022101701721FFF718FF1B
S2240128600F480378022B01D030BFF9E701F014FB0278FF2A02D0002002F03CFE1348144B38
S224012880002101601A68134907480A6006B0BDE8704007F03DB900BF7CC20020409C002008
S2240128A03104FF1F1304FF1F882E0600D003FF1F1404FF1F3204FF1FE003FF1F88010100C8
S2240128C0FC03FF1FECAF02001A04FF1FC803FF1F84C20020DC03FF1F08B5FFF717FF0220C5
S2240128E003F03AFBBDE80840FFF734BF38B5394B186840B13849394B0A681868111AC829DF
S22401290001D90CF0AFFFFFF7BBFD354A354913680A6893425DD0172433486343C418C35C3C
S224012920591E0A2941D8DFE801F0384040060F12194025402F0000F071FC2C482C4B0121E0
S224012940002201601A603CE000F070FC25E06278192A36D1E01C00F0E3FC32E00025601958
S224012960437873B340782349013513F0AFF9172DF5D126E02046204B50F8012F81881A608F
S224012980998000F0F5F81CE003F090FA611C202213F039FB03F0A4FA13E0FFF79DFF13485B
S2240129A0134A00210160116012E0144B197819B10120134902F0E4FD12481349C82202F033
S2240129C09FFD07480268531C102B08BF00230360012038BDD003FF1F84C20020DC03FF1F3B
S2240129E0C803FF1F4C04FF1F5802FF1FCC03FF1F9407FF1F8001FF1F1404FF1FEE00FF1F7B
S224012A00F0AF02000C120300E01303007FB50B4608218DF800108DF8010011460DF10300D7
S224012A201A468DF8023013F0C0FA68461721FFF72FFE07B000BD00007FB50B460A490968F6
S224012A4081B109218DF800108DF8010011460DF103001A468DF8023013F0A7FA6846172100
S224012A60FFF716FE07B000BDCC03FF1FF0B5224B1D68854289B0044609D92D1A1F481C60F8
S224012A800268AE18202E88BF203E066000E000251A4F3B680BB1591E00E01F21164839604C
S224012AA00268561C066014260021324603A813F09DFA01238DF81F30009523461321104A32
S224012AC0104C03A813F05CF93D6817216943631809203822605407AD5A709E7003A90333E8
S224012AE00C4603CC596018600833AC422146F7D12068186009B0F0BD9407FF1FD403FF1F12
S224012B001DB00200B004FF1F10B500200CF064FC1348144C07F032F801212060104807F000
S224012B2007F823684BB101210F4807F001F80E480021BDE8104007F039B80C4807F01EF8EB
S224012B40044658B90121084806F0F2FF0648214607F02CF8BDE810400CF084BE10BD00BF2C
S224012B60902E06002008FF1F442E0600BC2E060030B5304B0446186885B0002858D02E4DB3
S224012B80E8690EF011F8012002F0EEFCFFF7BEFDC82003F0E1F9686801210CF09DFD27497C
S224012BA02748002240F286634A73009325490122042313F0F1F805461F4821494068AAB24F
S224012BC00CF0F6FC082801D130BFF5E7E178627923790091A078019061781B4802912478BF
S224012BE01A49039413F0D8F80446134A16495068A2B20CF0DDFC082801D130BFF5E71448F2
S224012C00144913F0F9F90C4B1149586810220CF0CFFC082801D130BFF5E70F48014602F095
S224012C2001FC01F0FFFE05B0BDE8304002F0D8B905B030BD2008FF1F409C002000A006408C
S224012C400008FF1F2DB00200BC07FF1F44B002009C07FF1F68B00200AC130300014B186829
S224012C60704700BF2008FF1F014B01221A607047FC07FF1F38B5194B186870B31848006815
S224012C8058B301F0C1FF10EE100AFEF71DFB02460B461448144913F07FF80546134C11497D
S224012CA06068AAB20CF084FC082801D130BFF5E7C82003F051F9002160680CF00DFD01F09C
S224012CC0B5FEFFF747FD00F06FF90948094902F0A9FB024900220A60012038BD2008FF1F3D
S224012CE0FC07FF1FDC07FF1F79B00200409C0020E0130300EC110300704708B503F0D0F860
S224012D0090F82030012B05D190F82100BDE8084000F03CBC002008BD01F0C0BB052807B51B
S224012D200DD100230120009306218DF801006A462320ADF804308DF80010FFF77DFE0EBD8E
S224012D40054BFF2200201A705A704FF6FF725880DA801871704700BF2408FF1F08B51C4B33
S224012D601C480021196006F0BDFB08B101F09CF802210022174806F0A6FB16481649002249
S224012D8006F0F7FB13481549002206F0F9FB11481349002206F0FBFB0E481249002206F0F4
S224012DA0FDFB0C481049002206F0FFFB09480F49002206F001FCFFF7C3FF0D4A0D481168BB
S224012DC053680D4A016043600020106008BD00BF04D1FF1F4008FF1F1D2F0100B930010033
S224012DE0192D0100ED2E01001D2D0100F92C01002408FF1F3008FF1F3C08FF1F30B587B0DB
S224012E0002F0D6FF00286AD1364A374B10881988884203D154885D88AC422BD01B783248F2
S224012E200022FF2B0092ADF8042003D102208DF8000012E0447845888DF8013001218DF892
S224012E4000108DF80240ADF8045001F041FB00280CBF012202228DF80320234C06216A4647
S224012E602320FFF7E9FD1F4B21786578628819705D705A801C4D1B4C28792179D0F1010363
S224012E8038BF0023002914BF1A4683F0010282B1002006AA83420CBF042305230290ADF827
S224012EA00C0002F8103D23200621FFF7C5FD2D7925710D4D0B4CE988E2888A420FD0002004
S224012EC00490ADF814000323ADF811102320062104AA8DF81030FFF7AFFDE988E18007B0AB
S224012EE030BD00BF2408FF1F3008FF1F03280ED004D801280BD007D8002008E0052806D0AD
S224012F0004D34FF6FF7002E0022000E00420024BD880FFF773BF00BF3008FF1F08B502284F
S224012F209CBF1C4B1A5C1C4B88BFFF2202292DED028B1A701A4698BF184BB5EEC00A94BF4E
S224012F405B5CFF23F1EE10FAB0EE408A537006D4DFED137AB4EEE70AF1EE10FA01DD00F001
S224012F60A3FF9FED100A68EE000A0B49BCEEE08A18EE100A488001F0ABFA00280CBF0120A9
S224012F80022002F0AFFEBDEC028BBDE80840FFF735BF00BF8FB002003008FF1F92B00200C3
S224012FA0DB0FC94000007A44124B10B501221C681A6000F0ADFF08B901F018F800F008FEC3
S224012FC008B900F043FD01F0FFFD08B901F02AFD74B9FFF792FE02210246074806F073FA64
S224012FE0FFF7AEFE054B064819685A680160426010BD00BF04D1FF1F4008FF1F2408FF1F16
S2240130003008FF1F014B1868704700BF04D1FF1F08B5FFF772FE01460248BDE8084006F088
S22401302043BA00BF4008FF1F10B5094C2378FF2B0DD0217929B120B94FF49670962106F069
S22401304043FF00202071BDE81040FFF7D7BE10BD3008FF1F38B5134B1A78FF2A044620D094
S22401306018B9BDE83840FFF7DFBF1D795DB99620FF2106F029FF7820294606F025FF3220B5
S224013080FF2106F021FF084906480A68074B047107481A600168074A1160BDE83840FFF715
S2240130A0ADBE38BD3008FF1F84C200203C08FF1F3808FF1F2C08FF1F08B502F071FE70B19D
S2240130C00120FFF7B1FF064BFF2200201A705A70588002F007FEBDE80840FFF78FBE08BD79
S2240130E03008FF1F024B00201860FFF7E5BF00BF04D1FF1F134B70B50646187901280D4667
S22401310014460CD11049114B0A681868111A0A225143B1F5FA6F02D30020FFF785FF0C4B0B
S224013120186868B131462A460A48E3B206F0B4FA04490A78FF2A03D0BDE8704002F052BD5D
S22401314070BD00BF3008FF1F84C200203C08FF1F04D1FF1F4008FF1F034B1B6801460A22C2
S22401316002485A4306F045BA84C200204008FF1F0146014806F07BBA4008FF1F1FB5044662
S22401318004F09AF9174B184A1979012982ED000A15D1164892ED007AD0ED007A5A7837EE3E
S2240131A0670A012ADFED120A08BFB1EE400AB4EEE00AF1EE10FA02D80020FFF735FF2046D6
S2240131C004F060F9084B1968204602918DED010A04F082F9074801A98DED030A06F048FA23
S2240131E01FBD00BF3008FF1F3808FF1F2C08FF1FC7B832BE4008FF1F10B5044602F0D0FD85
S22401320040B106F0BDFE28B903482146BDE8104006F030BA10BD00BF4008FF1F08B50120CE
S22401322002F068F9BDE80840FFF78ABD08B5FFF7BBFE0020FFF7F8FE002000F0D7FE00208E
S22401324001F0DEFC002000F0DDFC002002F040FD0020BDE8084002F04DB9F8B58578012D88
S22401326004460BD0042D0CD0691F4E424E415EB907797A1E504250EB020706E02E462F469B
S22401328003E00126374600E001272379012B02D1FFF78AFE01E0FFF725FFA078B4F80510AC
S2240132A000F09CFCE078B4F80910E27A01F092FC47B16A1F514251413046E279237A00F084
S2240132C02DFE01E000F098FEBDE8F840FFF796BD1FB50378417882788DF80430C3780079C1
S2240132E08DF805108DF8080002998DF806201420C8228DF80C0062F31721029103998DF86B
S2240133000730322264238DF80B3062F31721002301A803918DF80F30FFF79FFF05B000BD1E
S22401332070B503780446581E112800F2BC80DFE810F01200170049006D0026003000600064
S22401334021001C00740079007F00BA008D00BA00A200AE00B3002046BDE87040FFF7B8BF92
S2240133602046BDE87040FFF778BFA078BDE8704002F0AEBCA078BDE8704002F0FBB801F093
S2240133807DFE002800F08F80474841F2883201460FE000F07DFD0023E2189178C1540133FA
S2240133A0092BF9D100F042FD38B13F484FF4FA620146BDE8704002F0A3B83C483C494FF496
S2240133C07A72F6E7A078022805D003280ED0012869D1C82001E04FF42F70FF2106F074FD69
S2240133E064200021BDE8704006F06EBD4FF49660F3E70025032000FB0541488810B10979FD
S22401340006F062FD0135062DF4D170BD294801210022BDE8704006F0DFBBA078BDE87040EF
S224013420FFF718BEA378002B3DD178200146D9E702F03CFDA17880F82010E27880F82120C8
S22401344002F04EFDBDE87040FFF7E2BD1A48B4F8032003689A4208D1A07800F04FF8002877
S22401346021D000201549A2780DE015490020BDE8704002F085B8134A1378012B13D9124973
S224013480D4F802200220BDE8704002F079B86088BDE87040FFF7EABA00F002FDA17801704E
S2240134A000F0C4FC6DE770BD9C120300541203002C120300582E06007CC2002095B0020049
S2240134C0B8B00200EE00FF1FF3B00200084B07B5410302461868431A06498B4206D28039A6
S2240134E000910020044902F04BF8002318460EBDB42D0600B8820600FDB0020038B51C4B1D
S2240135001C4D04461878022805D903201A492B68224602F035F80021296014B9174A146866
S22401352003E02046FFF7D2FF0446B4B12046022101F018F80E4D30B1287870B101201049C5
S22401354002F01EF809E020460E4941F6106200F0DDFF04460028EFD101E0012038BD2B7876
S224013560012B03D90220084902F00AF8204638BDEE00FF1F7CC2002031B10200DC2D06001E
S2240135806CB102006CA4002092B1020008B510B9074B186801E0FFF799FF0021425CFF2AE2
S2240135A005D1013141F610639942F7D1002008BDDC2D060008B51E4B1878022803D90320DD
S2240135C01C4901F0DDFF00201B494FF4B14200F0F7FF08B117490FE015490A78022A03D923
S2240135E00320164901F0CCFF154B93E80300090300F0EEFF18B1114902F012F815E00C4858
S2240136000178022905D903200E494FF4803201F0B7FF4FF480304FF4E02100F0D9FF30B12C
S22401362008494FF4803201F0FBFF012008BD08BDEE00FF1F2E0A0300B2B10200550A03009A
S224013640C42D0600800A0300022808B504D003280CD1FFF7AFFF04E0054B93E8030000F0D7
S22401366081FFD0F1010038BF002008BD012008BDCC2D06002DE9F0418AB002F09FFB38B943
S2240136807B4B0FCB06AC84E80F00204602F0A4FB02F094FB0546C068764910F0010F0A781B
S2240136A028D0012A03D90220734901F069FF734C7348744901F0B6FE14F8073C591E4842A2
S2240136C048410AF073FD95E80F0006AC84E80F00099A204622F00103099302F07DFB654965
S2240136E00878012803D90220674901F049FF0CF0B9F805E0022A03D90320644901F040FF9A
S224013700634A6448116845F67C0212F03DFC594B10F0FF0F197800F0A180012903D9022061
S2240137205D4901F02DFF5D4D5D4CE8695D4D0DF03BFA5348534901F075FE0DF116000DF193
S2240137401702009001922B68246802935648214608220DF1150306F0A9F9002840F084803A
S22401376044489DF815100278002936D1022A04D903204E49224601F003FF0DF116060DF11D
S2240137801705484F00960195386821460290012245480DF1150306F089F98046002863D14B
S2240137A09DF81520032A5FD1FFF704FF024610B140463F4921E0009601953B683A480293E5
S2240137C0214604220DF1150306F070F900284BD19DF81510042947D135E0022A03D903205E
S2240137E0344901F0CDFE344A2F482B68214606F0E8F8024620B13149002001F0C1FE33E04F
S2240138001C4B1978022903D903202D4901F0B8FE0DF116000DF11702224B00900192196827
S2240138202148029108220DF11503214606F03EF99DF81520034608B9042A04D00020214952
S22401384001F09EFE10E00B480278012A03D902201D4901F095FE0CF005F805E0022903D920
S22401386003201A4901F08CFE0AB0BDE8F08100BFD8AE0200EE00FF1FB70A03000002010057
S224013880CC110300E0130300CA0A0300EC0A0300D42D0600B2B10200FE0A0300409C002009
S2240138A0AC2D060080C20020A800FF1F180B03004B0B0300780B0300493601008C0B0300DC
S2240138C0B10B0300CD0B0300180C0300410C0300094B1A68501C18601968CB05D80D074991
S2240138E0074B122202FB001003F5815203F58051106104480860704728F5FF1F24D1FF1F71
S224013900008000405E0C030008B5444B0122B0F57A7F1A6003D8092898BF0A2001E04FF43C
S2240139207A70B0F5FA7F3E493E4B94BF002201220A603D4A10600020186001F08BFE3B49DA
S2240139400A78032A4BD0C8214FF47A7001F01EFF3C21B1EE040A4FF47A7001F0A3FE322157
S224013960B1EE040A4FF47A7001F09CFE7821B1EE040A4FF47A7001F095FE6421B1EE040AB3
S2240139804FF47A7001F08EFEB421B1EE040A4FF47A7001F087FE9621B1EE040A4FF47A70C1
S2240139A001F080FEF021B1EE040A4FF47A7001F079FEC821B1EE040A4FF47A7001F072FE1B
S2240139C04FF49671B1EE040A4FF47A7001F06AFE4FF47A70FA21B1EE040A01F063FE1448C1
S2240139E0144B0168144A19601449154B002010600860042018620121124806F0D7F80DF091
S224013A0019F811492E224A60086840F001030B600A6842F48030086008BD00BF0CD1FF1FED
S224013A201CD1FF1F10D1FF1F14D1FF1F54F5FF1F28F5FF1F20D1FF1F08D1FF1F18D1FF1FC4
S224013A4000B00340902E060000600340C820FFF75BBF00000F4A104808B500231360037097
S224013A600E4BD9694A0204D50D4A106820F080011160DA6922F48000D8610021094806F035
S224013A8095F8094B094A0121196210680849086008BD00BF0CD1FF1F54F5FF1F2080044054
S224013AA000600340902E060000B0034028F5FF1F20D1FF1F70B53C4C3C49E06888B00CF0AE
S224013AC02FF93A49E0680CF057F93949E0680CF027F9E06836490CF04FF9364B01221A6290
S224013AE0FFF7BCF8002859D100F0D6F90078FF284BD1FFF7ABFF30490E682F4C256806F1BC
S224013B006402954204D2284CE0690DF081F8F4E72A4B6846002120221C6812F067FA0025EC
S224013B202548016806F16E0291421DD223490A68A24214D00023E005C10D092202FB0130AB
S224013B401F4931F8102090B220B95DF823104A1C4DF823200133082BEDD101350134124823
S224013B60C0690DF055F8DBE76D1000235DF80300A84208DC0433202BF8D100F08DF9002162
S224013B80017000F053F9FFF765FF00F085F90278FF2A03D10B480C4901F044FC0B4B0120E3
S224013BA0186008B070BD00BF409C00205400FF1F0000FF1F00B0034084C2002028F5FF1FC3
S224013BC024D1FF1FBC120300E013030024F5FF1F014B1868704700BF0CD1FF1F084A10B57A
S224013BE00C46107020B12046BDE81040FFF78CBEFFF708FA0028F6D1BDE81040FFF72ABFC6
S224013C0054F5FF1FC821FFF7E9BF0000F8B55648564B574C1E7822680168B71E8A42FFB246
S224013C2000F09F800568AB1AB3F5007F04D302686FF4FF701118216025684E4AEB05D80D5F
S224013C40122101FB00254C4B288A642110FB01324FF4D17592FBF5F0C0B2FEF737FB2468DE
S224013C60E305D90D0023092505FB0130414A32F810400133A4F50065ACB2082B22F81040BC
S224013C801546F0D1032E04D0122202FB015001F08FFE374C2168C805C30D122202FB0350D0
S224013CA000F0B0F9022F56D83448354902680B689918B1F57A7F01604DD3A1F57A76066072
S224013CC025683048EC050168E60D0023092202FB0635284C34F8150002B2083214112A4ACA
S224013CE07F2CA8BF7F2450186FF07F05AC42B8BF2C46C4540133082BE8D12448214C056869
S224013D00083121604DB9102925D1214B21481B68C05CFEF77BFE256015E0182907D11C49D4
S224013D201C480B681421C05CFEF770FE0BE0282911D1174917480B6814215218C05CFEF7F2
S224013D4065FE0022226012490A68531C042B0B6001D10020086006490A68531C0B6001206A
S224013D60F8BD0020F8BD00BF28F5FF1F54F5FF1F20D1FF1F24D1FF1FB87BFEFF10D1FF1F01
S224013D8014D1FF1F08D1FF1F2CF5FF1F1CD1FF1F18D1FF1F5A0C0300044B186828B1044974
S224013DA00A7812B9034B50201860704724F5FF1F54F5FF1F00B00340684620F007010A4B17
S224013DC08D4601B5186964225043A0F54A31FC3940F26633B1FBF3F0C0B2FEF777FABDE89E
S224013DE001408546704700BF00B0034038B50B480B490C4C01F016FB0B4B1B6803F1280560
S224013E0018685968224603C20833AB421446F7D103480146BDE8384001F004BBBC120300B4
S224013E20E013030058F5FF1FA42D060038B5114B114D1C680121204600F094FB18B12978A8
S224013E40012049B938BD20460C49282200F05EFB04460028F3D104E0094901F091FB0120EC
S224013E6038BD2878012803D90220064901F088FB204638BDA42D0600EE00FF1F58F5FF1F14
S224013E80670C0300A00C03000048704758F5FF1F0048704770F5FF1F0048704779F5FF1F80
S224013EA0004870477AF5FF1F08B50948094901F0B9FA01F035FA084BD8690CF0A9FE0748C6
S224013EC005F05CFE0028F4D10BF0CCFCF1E700BF0C120300E0130300409C0020BC2E060043
S224013EE013B50446022001F0FDFE002307200093002C0CBF012402248DF80000062123208E
S224013F006A46ADF804308DF80140FEF795FD1CBD014B9868704700BF24050020F7B51D46D2
S224013F2042F2540307460093A3F59650D3070E461446019008D522490B781BB10120214957
S224013F4001F01EFB013CE4B2C82C09D91C4A107828B101201C492246C82301F011FBC8241F
S224013F60A54209D916490B782BB1012017492A46234601F005FB2546154A4FF4FA700021D1
S224013F806B4609F0C1FB134A106008B9FFF78CFF00212046104A01AB09F0B6FB0F490860AF
S224013FA008B9FFF781FF0E4B0E4A0F49002018601060012081E830008860CF600E61FEBDB8
S224013FC0EE00FF1FB80C0300F00C03002F0D0300F42B0020D08A00203C1E002080F5FF1F04
S224013FE0381E0020F02B002024050020002164221423FFF793BF0000014B00229A6070477C
S224014000240500202DE9F041C14AC24B14681B68C14D2DED028BB3FBF4F604FB1631A2B00E
S22401402005EB81060022855A2DB205EE905A4FF4C87101FB0261F8EEE57A0232102AC1ED0A
S224014040007AF0D10133B34913F001020B601CD1B24F39684FF4FA75B1FBF5F605FB161779
S224014060AF4D05EB8705875A3FB207EE107A4FF47A7606FB0256B8EEC70A0232102A86ED8D
S224014080000AF0D1481CA5490860A14A9068002800F0EB81A342C0F0E88151681B1BB3FB93
S2240140A0F1F401FB1434002C40F0DF8105A82146112211F09BFF19AE3546974B994F4FF4E4
S2240140C0487202FB04313868974A09F0A5FB9048954A01689FED958A4F08B0EE483A00236F
S2240140E00832BB4211D812ED012A52ED021A62EE022A41EEA12A03EE903AB8EEE34A33EEF0
S224014100223A04EE228A0133EAE701EE101ADFED881AB8EE416AC8EE030A0134082C81EE27
S224014120862AB0EE618A60EE822A12EE901A45F8041FC2D1794D2C68B4F5FA7F30D311AF6A
S22401414000247C4A764B1068774A4FF4FA6101FB043109F061FB9FED753A7348F0EE436AD0
S224014160002590ED014AD0ED003A64EE044A43EEA34A05EE105A0135F8EEC55A0830FB2D9F
S22401418076EEA46A05EEA43AEBD1C3EE267A0134082C17EE902A47F8042FD2D1012500E086
S2240141A0002509AFB846002459495B4B09684FF4C870DFED5E0A00FB043200238B4207D09A
S2240141C002EB830090ED006A013346EE060AF5E707EE103AB8EE470A80EE800A13F0E0FC21
S2240141E005AABCEEC01A10EE101A11EE100AA0520234102C48F8041FD6D135B901F050FEAA
S22401420090F82000012834D132E09DF8241012AA0023043797ED006ADFED471AB4EEE16AC5
S224014220F1EE10FA08DD92ED002ADFED442AB4EEE22AF1EE10FA0FD4B4EEC86AF1EE10FA90
S22401424040F3118192ED003ADFED3D3AB4EEE33AF1EE10FA40F10781012404FA03F40133E8
S22401426021430432082BC9B2D3D18DF82410C5E755B92749CA680C46002A73D027201121FF
S22401428005AAFEF7C3FB6DE02E4C2468002CF0D101F086FD0028ECD0234622A9CA1812ED09
S2240142A0104ADFED294AB4EEE44AF1EE10FA2BDD0AA8C41894ED005ADFED246AB4EEE65AF9
S2240142C0F1EE10FA20D874EE647ADFED215AC7EEA50A9FED200A9FED207AB4EEC05AF1EE95
S2240142E010FA30EE872A07DD36EEC51A9FED1B6AC1EE061A22EE212AF7EE002A32EE223A32
S22401430065EE033AC4ED003A0433202BC5D1B0E724050020F02B002038050020381E002016
S2240143204C4C002080F5FF1F84F5FF1F0000000000007A44D08A0020000048440000484247
S22401434000008C42484C00200000B4420000FA4352385E420000C843CDCCCC3D0000C842C1
S224014360000000432069D0B1002101A8102211F03DFE0021043696ED004A1FED075AF6EE39
S224014380004A44EE054A01AAFCEEE46A16EE900A885202311029EDD12B20FEF737FB0AA8A3
S2240143A01AA99DF82420FEF7A5FE002D5DD0314B1C68002C59D13049304A086811680A220B
S2240143C0401A2F495043884207D901241C6001F0E7FC002849D0204642E02A4BE35853BBCC
S2240143E029484FF4FA72DFED297A02FB0401C818D0ED005A0433B3F5FA6F45EEA57AF6D1CE
S224014400DFED230A87EEA00A13F0CAFB9FED217AB4EEC70AF1EE10FA0DD522AA111911ED5D
S224014420100A9FED1D1AB4EEC10AF1EE10FA02D5144B0120E0500434202CCED100231A4616
S2240144401049585800B101320433202BF8D1052A0BDD08480121016001F0A2FC28B10020AC
S224014460FFF73EFD01E00024F7E622B0BDEC028BBDE8F081484C002084C20020CC8A002075
S224014480E0930400D02B00204C4C0020000000000000FA430000164300004842074808490C
S2240144A00268084B084810B500240A60214620221C6011F09BFD054B1C6010BD84C20020D9
S2240144C0CC8A0020484C0020D02B0020381E0020014B1868704700BF484C002008B58021C7
S2240144E0064A074805F0C4F9064B1860064805F01CFABDE80840FFF779BC00BF9398010040
S224014500D48A002080C20020A800FF1F104B73B50446187802280E46154604D903200D4963
S224014520234601F02DF871B60B490C480A683346009221462A4605F001FA61B638B1009053
S224014540074900202A46234601F01AF801207CBDEE00FF1F730D030080C20020A800FF1FF8
S224014560920D0300114B73B5044618780D0302280E4606D9009403200D4932462B4600F0E2
S224014580FFFF71B60B4B0C481B6821462A4605F094F961B640B10190009400200749324655
S2240145A02B4600F0EDFF01207CBD00BFEE00FF1FCE0D030080C20020A800FF1F040E030068
S2240145C0024B1B681818FFF7A1BF00BFCC2D06000A460146FFF7F4BF73B50D46044606F0C6
S2240145E08FFE06460DF1020006F098F9A968BDF802302A6868685A4358434B432A60AB60A0
S224014600686001A806F06AF9D4ED006A94ED011A94ED023ADDED017AB8EEE67AF8EEC11A3A
S224014620F8EEC33A27EE270A21EEA72A23EEA74AFDEEC00AFDEEC22AFDEEC44AC4ED000A29
S224014640C4ED012AC4ED024A08F0E8F808F0F4F808F0EAF830467CBD104B37B50446186825
S2240146600F4B4FF47A720D46B2FBF0F118684843FEF7C2FD01F09CFB78B90A4A11788B1ECC
S224014680012B0AD88DF8040003211F2001AA8DF805408DF80650FEF7CFF93EBD588B00200F
S2240146A0C48B0020EC8B0020014B01221A607047C08B0020014B01221A607047F08B0020A8
S2240146C0044B05491A68501C18600B680BB901F089BA7047C88B0020F88B002073B51D460E
S2240146E0174B8DF80710064614461868324600210CF0EEF813480022026011490122086849
S22401470000230DF107010CF009F80828F5D00D4B1A680AB930BFFAE70B4900200860084BDC
S22401472029461868224601230CF062F80828F6D0054A106808B930BFFAE700207CBD00BF3C
S224014740409C0020C08B0020F08B00207FB5064604A8154600F8101D1946013011F025FCF3
S2240147600C4B0021324618680CF0B2F80A4900220A6008486A1C0123006869460BF0CEFF65
S2240147800828F6D0044B1A680AB930BFFAE7002005B060BD409C0020C08B002070B58C4B64
S2240147A0054618688AB00C4640B18A490A68954204D1894B1878A04200F00781002006F0E6
S2240147C041FB844E792006F0F3F9782006F0C6F8824A3560824E002128461160356006F042
S2240147E0E9FA308806F054F84FF4FA6005F05CFF102005F0ABFF8CB10DF10E0005F0DAFF03
S224014800784B1878012806D902207749BDF80E30224600F0B5FE204605F0E8FF6E490DF160
S2240148200E000C7005F0C6FF0DF1060006F01AF80DF10A0005F01EFF0DF1050005F06AFFA7
S224014840684C03A806F0CCFF02A806F019F82278022A07D903206549BDF80620BDF80A3040
S22401486000F08EFE2378022B07D903206049BDF806209DF8053000F083FE5A4801780229E6
S224014880044607D903205B49BDF80820BDF80C3000F076FE2278022A05D903205649BDF8D4
S2240148A00E2000F06DFEBDF80630544C94FBF3F007F09AFDBDF8060094FBF0F007F0A6FD1A
S2240148C0BDF8061094FBF1F007F0B4FD4C4A51681068147A04AB03C352F8090F1C7051687E
S2240148E007AB03C3107A187004A808F04CFCBDF80A10C90307F072FD04A808F044FC9DF8C2
S2240149000520D10307F0EAFD07A808F03CFCBDF80C40E10307F0E8FD324B1878022803D907
S2240149200320384900F02CFE374CE0690CF070F907F03AF818B10020344900F021FEE0699B
S2240149400CF066F927490A78022A0C4603D903202F4900F015FE2378022B03D903202D49CF
S22401496000F00EFE04A808F00EFC07F027F82A4807F070FC012007F095FA022007F05EFB83
S224014980BDF8060007F0C4F816480178022903D90320224900F0F4FD072007F0A1F9082175
S2240149A0072007F0E7F8012007F0BDF9642007F0CBF9012006F068FC20B10020184900F02A
S2240149C0DFFD02E0024B01221A600AB070BD00BFF88B0020FC8B0020708B0020548B00201F
S2240149E0588B0020EE00FF1F570E0300850E0300D20E0300230F03006E0F030040420F007B
S224014A00E8AE02008E0F0300409C0020A00F0300BC0F0300DA0F030059460100E80F030056
S224014A200010030032200021FFF7B8BE13B51648164B0178002202291A7008D928240094E6
S224014A40032013494FF4FA720A2300F099FD4FF4FA700A21282206F0CBFE044648B1282300
S224014A6000930B494FF4FA720A2300F0D9FD012008E007F0D3FE07F0DFFE07F0D5FE054AE9
S224014A80204614601CBD00BFEE00FF1FEC8B002015100300F88B002010B5414B187800F05F
S224014AA02001CAB286B07ABB00213E4805F07EF8642001F051FA01213A4805F077F864208A
S224014AC001F04AFA384800680BF0C6FD642001F043FA002006F0B6F908F0BDFB11F0EAF8EB
S224014AE00FF046FE10F0CEF8FFF7CEF9FF2104461822684611F07AFA69462046182211F0D3
S224014B0043FA2A49D0B122E0294C2A4A636923F0400060614FF48071274C1162636943F476
S224014B20807060610A240A2001F016FA2249CA68013C42F48073CB60F5D1B5E70B781BB186
S224014B4001201E4900F01CFD0CF0C6FE17E00A78012A03D902201A4900F012FD04F10C00F9
S224014B60032107F03BFD0321204607F09DFD0CF0BFFE07F053FE07F05FFE07F055FE0FF023
S224014B8061F810F0D9F807F0F1FB08F083FBFFF74DFF0C48092106B0BDE8104005F056B81E
S224014BA000F00740B42E0600409C0020EE00FF1F2080044000C00440C0F00F40701003005E
S224014BC0C1100300182E0600014B1868704700BFF88B002038B51546084A0C46107028B185
S224014BE020462946BDE83840FFF7D8BDFEF70AFA0028F5D1BDE83840FFF718BFEC8B0020CA
S224014C0032210022FFF7E6BF014B93ED000A7047008C002030B59D4D9D4C2A6823689A4294
S224014C20ABB000F0DA810DF10A000DF1090100900191002208A903AB06A807F059FA954B3D
S224014C409DF809101A68501C186009B92B682360BDF80A2002F0700058B1039906A807F0D7
S224014C60B1FD05A904A805F007FC0498059907F0C1FDBDF80A1001F008031AB26AB1BDF9D7
S224014C802000BDF92210BDF924301890199118A80021039A1A9307F05BFD03A90AA806F0DC
S224014CA04BFD014660B9BDF92820BDF92A00BDF92C3018921990039A1A9318A807F03AFFC9
S224014CC007F03AFE05A903AA18A807F037FB05A903AA0CA807F01EFB05A903AA0FA807F033
S224014CE023FB0C990D9841F34F120E9940F34F1307EE102A41F34F1201EE103A06EE902ACA
S224014D00DFED657AB8EEC70AF8EEC11AF8EEE62A60EE270A21EEA72A22EEA73A12A8CDEDF0
S224014D20120A8DED132A8DED143AFEF715FA5B4B0C9918680A1A91110D985A689B68821A37
S224014D4090110E9A494300FB0011D01A831103FB0311B1F5803F13D95148524A03680BB927
S224014D601168016012680068131A092B0BD900F039FF4A490C9A0D980E9B0A6048608B6080
S224014D80474A002111604848484B026819688B18474903600A689342C0F01D819B1A036099
S224014DA0BDF96A20BDF96200BDF96610BDF96E30ADF88000ADF884200C980D9AADF8821025
S224014DC0ADF88630411153110E980F9AADF88810ADF88A30411113131098119AADF88C10C5
S224014DE0ADF88E3001131313ADF89010ADF89230FDF734FF00283AD02E4B93ED000A0023E5
S224014E000CA82D4A195898589950401A07EE900A0433FAEEC87A0C2B07EEA70AF0D1274ABE
S224014E2024491068431C642B81ED000A136040F0D28010EE100AFCF747FA02460B462048DF
S224014E40204910F0A9FF04461F49A2B248681C490AF0AEFB082801D130BFF5E71548002231
S224014E600260FF214FF4FA6005F02EF8B3E000F09FFF00285FD115480178012901D003297C
S224014E802AD11C20142120AA53E000BFC88B0020F48B0020C48B00200000003AB48B0020CA
S224014EA06C8B002084C20020548B0020FC8B0020588B0020008C00205C8B0020688B002000
S224014EC0718B0020F0100300409C0020EC8B00200000803D0000803804292CD1BDF8802026
S224014EE0BDF88230BDF88400BDF88610ADF89420ADF89630BDF82020BDF82230ADF89800C4
S224014F00ADF89A10BDF82400BDF81810ADF89C20ADF89E30BDF81A20BDF81C30ADF8A0007D
S224014F20ADF8A210ADF8A420ADF8A6301C20142125AAFDF76BFDBDF98E00BDF99010BDF944
S224014F40922003EE900A05EE901A00EE102A5FED204AB8EEE34AB8EEE56AF8EEC07A24EE99
S224014F60245A26EE247A67EEA40A15A88DED155A8DED167ACDED170AFEF7FAF8BDF984004C
S224014F80BDF98230BDF98610BDF9802002EE900A01EE103A04EE101A05EE902A1FED332A0C
S224014FA0F8EEC11AB8EEE23AF8EEC44AB8EEE56A61EE826A63EE023A24EE825A26EE027A39
S224014FC01CA8CDED1C6ACDED1D3A8DED1E5A8DED1F7AFEF7D3F8012000E000202BB030BD08
S224014FE010B588B002A805A9FFF7F6FA072813D11A491B4811F000F805A8032107F0EEFAEE
S22401500002A8032107F050FB162407F007FC07F013FC07F009FC15E01249134A134B10F039
S224015020010F18BF0A4610F0020F18BF0B4610F0040F0F4808BF0146009109480D4910F04A
S224015040ABFE04460C4B06495868A2B20AF0B0FA082801D130BFF5E708B010BD251103006E
S224015060CC8B00209F0C03000F110300151103001C1103003C110300409C002073B5FEF720
S22401508003FF00F10C0631460446FFF7A5FA072819D026490A78012A03D90220244900F020
S2240150A06FFA224DFF211822204610F09FFFFEF7BDFE2E781EB101201E4900F061FA0CF0C0
S2240150C00BFC012518E0FEF7B1FE03210546304607F084FA2046032107F0E6FA07F09EFBB6
S2240150E007F0AAFB07F0A0FB104B1878012803D90220114900F044FA0C4B187801281E466E
S22401510007D9A168009102200C4994E80C0000F037FA3278012A07D9636909490093022067
S224015120E268236900F02CFA28467CBDEE00FF1F4B1103005B1103007211030085110300DD
S224015140A011030002682DE9F041002A00F08780444C036925689D42C0F0818043681BB133
S22401516026688568AE4202D30027476013462468C26885691F68A61A446905FB0646B6FB2D
S224015180F7F207FB126600245A6846612546954210D005F1010CBCFBF2F402FB14C44CB185
S2240151A04FF00C0808FB0438D8F80880B04501D86546ECE74FF00C0808FB053CDCF80C201C
S2240151C0B24210D9DCF810301A880A809B788B70DCF80C30426923499A1A83690968B2FBB9
S2240151E0F3F252182DE008FB0438B61AD8F808C0BCEB020248BFD2190C2707FB053507FB98
S22401520004332D691C6995F800C02778931B774303FB0C7797FBF2F70F706778A47895F8DF
S22401522001C0AD787743664303FB0C7703FB056397FBF2F793FBF2F28A704F7009490B68CD
S2240152405A1C4168026121B1836802699A4288BF036104490B68C3600120BDE8F0810020DD
S224015260BDE8F08184C2002010B5FEF711FE002304461A46E15C0133FF2918BF0122092B4F
S224015280F8D1184801782AB931B30120164900F077F921E0012903D90220144900F070F9E0
S2240152A02278134B4AB9607838B9A17829B9A179E27919705A70207A06E0607852081A7025
S2240152C0A27841085970500898702179094BE0786279187059709A70074808490123836118
S2240152E08B6110BDEE00FF1FD01203001B130300E800FF1FEB00FF1F2C8C0020088C002032
S224015300044B1A78824204D018700348034B016819617047048C002084C200202C8C002065
S224015320F7B5394F394D69463846FFF70BFF01A904462846FFF706FF354B1978064600299D
S22401534035D03868334A904202D12B6883422ED0314B2D481A681F6827F0FF0505F5807724
S2240153600569BD4205D91B6823F0FF0303F580730361022902D091058A0D00E0D2B213094B
S22401538015D1264C244A208811681F4BA578ADF8000021F00F0418698DF802501034A04252
S2240153A02ED9156825F00F0210321A6128E07CB11B4D9DF80010286804F03AFE68689DF81D
S2240153C0011004F035FEA8689DF8021004F030FE7EB1134D9DF80410E86804F029FE286982
S2240153E09DF8051004F024FE68699DF8061004F01FFE1CB9301C18BF012003E0012001E05C
S2240154000124D5E7FEBD00BF2C8C0020088C0020048C0020E013030084C20020701303000D
S224015420D000FF1F0C4B1A68824207D00B4A186010681268D86000201A615861084B1A68E4
S2240154408A4207D00548196001680268D96000201A615861FFF764BF2C8C002084C2002026
S224015460088C0020124B13491868134A134B00280CBF104608461968012907D002290AD060
S22401548091B90F4A0F4B11680F4A08E00C490F4B09680F4A03E00A4B0E4A19680E4B002943
S2240154A00CBF1146194600E00649FFF7BBBF00BF248C002068120300E01303004C8C0020CC
S2240154C0288C00209C120300EC110300741303007C1203004012030050130300014B1860A7
S2240154E0FFF7C0BF288C0020014B1860FFF7BABF4C8C0020014B1860FFF7B4BF248C002035
S224015500104B984270B504460D46164602D00E48814201D1FFF7A8FE0C4B0D480D495C601B
S22401552045600C680A25B6FBF5F2121982609A600A680968C260DA6001611961BDE870400E
S224015540FFF7EEBE541203002C1203002C8C0020088C002084C20020024B186808B1FFF78B
S224015560DFBE7047488C0020014B1860704700BF488C0020014B1870704700BF508C002069
S2240155800EB4F0B52449C8B04DAB51F8200053F8042B068801934FF480710DF11E00ADF8C7
S2240155A01C6010F01DFC064607A810F0ADFB1B4B1A78012A2AD1F41CF11C002CC4EB010195
S2240155C024DB132C12DD07AD6B1802AA03F1100718685968154603C50833BB422A46F7D1D6
S2240155E098781988A8702980002006E007AB02A85918224610F0D9FC01208DF81B0014212D
S224015600382002AA133CFDF717FAD5E748B0BDE8F04003B0704700BF24140300508C002043
S2240156200EB410B5C3B045AB044653F8042B02A84FF48071019310F0D3FB0020044902AA5D
S2240156402346FFF79DFF43B0BDE8104003B07047F4130300002200230D488118C8180021B9
S22401566001600C488018C01801600B488018C01801600A488018C0182033B3F5C07F01601D
S224015680EAD10432202AE6D1054B00211970704744900020C4910020548C0020D48D002077
S2240156A04493002038B5324D2C780B2C2DED028B59D8B0EB410F56DB01EE101A07EE100A8A
S2240156C0F8EE416ADFED2B1AF8EE477A26EEA12A80EE270AC2EE272AF7EE008AF0EE080A9D
S2240156E012EE900AB0EE688A00EE608AFBF7ECFD41EC100B11F0F4FF51EC100BFCF7FAF84E
S22401570038EE086A03EE100A66EE033A73EE034A38EEE34A08EE084AF0EE005A35EEE45A6D
S224015720154A164984EE057AA300D018CA1801342C70F8EE007A27EE270A80ED007A104891
S22401574060EE030AC118C2ED000A81ED007A0D4A0D4928EE488AD018CB18C0ED003A83EDB7
S224015760008A002000E00120BDEC028B38BD00BF44930020DB0FC940548F0020848F00206E
S224015780B48F0020E48F00201490002070B52DED068B784B1C780B2C9CB000F2E680B0EBAC
S2240157A0410FC0F2E28000EE100A07EE101AF8EE407AF8EE479A9FED701AC9EEA70AB6EECF
S2240157C0009A60EE811A9FED6D8A61EE899AF7EE008A39EE690A8DED058A8DED008A8DEDBB
S2240157E0068A8DED018A8DED088A8DED038A8DED098A8DED048ACDED078ACDED028A12F053
S2240158006BF9B0EE40AA39EE890A12F065F98AEE002A02A807AA00239FED595A9FED591A1E
S22401582062EE053A02EE015ADFED575A03EE825A62EE254ADFED556A24EE827ADFED542A9C
S22401584022EE263A35EEE34A75EE631A77EE636A72EE023A22EE226A73EEA22A46EE022AAB
S22401586036EE280ADFED4B4A12EE426A03EE420A42EE642A9FED482A74EE077A36EEA55AC0
S22401588036EE426AC7EE800A81EE803AC5EE005A82EE801A86EE000A8DED0A8A8DED0B8A18
S2240158A08DED138A8DED148A0AA9CD1813AEF11895ED017A90ED004AD2ED007A91ED015A7B
S2240158C063EE071AC1ED027A40EE841A41EE457AD5ED006AD1ED003A45EEA61A40EE637A4A
S2240158E004330C2B85ED024AE0EC011AE2EC017ADAD1DDED020ADDED082A9DED033A9DED78
S224015900091A70EE885A38EE628ADDED044A35EE832A38EE418A32EE246A78EEC88A1F4A64
S2240159201F4B86EE280AA00011181A180134B1EE627A80EE804AC3EE007AC4EE808A81ED19
S224015940004A1849C2ED007A0B18174AC3ED008A164B1118074A1818F1EE411AC0ED001AA3
S22401596081ED007A1470002000E001201CB0BDEC068B70BD44930020DB0FC9400000000077
S2240159804290933E429093BE4290133E980082BE0B702D3F980002BF9800823E548F0020A5
S2240159A0848F0020B48F0020E48F0020149000202DE9F041364B93F8008005460024288802
S2240159C001B207EE901A0023B8EEE77A1A461946414545DADFF8CCC02E4F2F489444DCEDE9
S2240159E0005ADFF8C4C03E19F718944497ED006A9CED001ADFF8B4C0284E00EB040E66EE0B
S224015A00011A9E44944447EE251A9CED005A9EED002ADFF89CC03019C0189444204E45EED2
S224015A20021AD0ED006ADCED002ADFF888C03619F618944446EEA21AD6ED003A9CED003A26
S224015A4043EE231A87ED007A8EED006AC6ED006AC0ED001A013104322033B0EE617AB7E749
S224015A60B6EE000A77EE000A043410EE900AFBF72BFC41EC100B11F0EFFE51EC100BFBF79A
S224015A8011FF202C25F8020B99D1BDE8F08100BF4493002044900020C4910020548C0020DB
S224015AA0D48D0020548F0020848F0020B48F0020E48F002014900020384B5A6910B5384CE0
S224015AC042F48010812158616170354B5A7802F00400C1B20029F8D0324C0A2000F03CFA54
S224015AE00BF010F82378012B03D902202E49FFF747FD2278012A06D92C482D490278437864
S224015B000220FFF73DFD25492A484B6923F480244C610146FFF786FC04F0BCF8FEF7DEFCFB
S224015B20FFF7A2FB0120FFF71FFDFDF7A3FDFCF7EBFFFDF713F9FDF7BDFFFCF7B7FBFCF7E0
S224015B40CBFEFEF7A9FFFDF72FFAFEF7A7FC154A1078022803D903201749FFF711FD002090
S224015B60FFF702FDFCF7C2FE0446FDF783F80443FFF750F80443FEF749F80443FCF706FC80
S224015B800443FFF7CDFB044300F036F8044300D130BF0A49C8690BF03BF8E3E7208004402E
S224015BA000400740EE00FF1F3814030000F0074050140300E013030082140300409C0020D4
S224015BC0064B684620F007011A698D46044901B590B20880BDE801408546704700B00B4022
S224015BE046930020024B03481A680260704700BF84C200204C9300207FB52B4B18780128EC
S224015C004ED02A492A4B0A681868111A0A22514347F22F53994243D926480178022903D9FB
S224015C2003202549FFF7ACFC684603A905F068FB83070DD41F4C25781DB101201F49FFF7BD
S224015C409FFC1F481F49FFF7EDFBFFF769FBFCE7FEF7ECFE1B480146FFF7E4FBFCF756FD15
S224015C60FDF7F8FE01210A46174803F0B5FF0AF053FF0E4B19681A68501A092801D830BFB1
S224015C80F9E70C4B1978012903D902200F49FFF777FC002104200A4609F008FE012000E0B8
S224015CA0002007B000BD00BF4893002084C200204C930020EE00FF1FA5140300C01403008C
S224015CC00C120300E0130300182E0600ED14030010B50446FFF786FF014B1C7010BD00BF69
S224015CE04893002038B52A4B1A78824204464DD01870FDF787F990B3012C17D019D3022C17
S224015D002DD1C820642104F0DFF87820002104F0DBF84FF49670B42104F0D6F8782000212E
S224015D2004F0D2F84FF4FA70FF2116E06420B42113E04FF4FA70FF2104F0C6F87820002158
S224015D4004F0C2F84FF49670B42104F0BDF87820002104F0B9F8C820642104F0B5F80C4808
S224015D60017871B90B4D2B683BB10B4A1078012803D902200949FFF703FC00202860FFF7BA
S224015D80ADFB2046BDE83840FFF7AEBB38BD00BF5093002054930020EE00FF1FF914030099
S224015DA0024B1878003018BF0120704750930020014B1868704700BF54930020054B186805
S224015DC0016829B100F580500268002A18BF0020704700BFB42D06001E4B70B51C6806466F
S224015DE004F58050026812B92546044600E0054619490B78022B03D903201849FFF7C0FB9C
S224015E0028460121FEF7AEFB08B114491DE012480278022A03D903201149FFF7B1FB2846D2
S224015E2031461022FEF772FB08B10D490DE00A490B78022B03D903200A49FFF7A1FB204608
S224015E400121FEF78FFB20B10649FFF7E9FB012070BD70BDB42D0600EE00FF1F29150300F2
S224015E603F150300661503000B4B68461A6820F007018D4601B5094942F0800018600B6831
S224015E805A1C0A6004F044F8FFF766FBFDF784FFBDE80140854670470000044084C200200C
S224015EA0014B186808307047BC2D0600094B0A4A196801F10803283153F8040B8B4242F852
S224015EC0040BF9D11988054B118001221A600248704700BFBC2D06005893002080930020D7
S224015EE073B5174E306808B9164924E0164B1C682068012100902046FEF734FB28B1134876
S224015F0001780120D1B1124915E004F1080011492822FEF7FBFA05460028F0D1009902AB0A
S224015F204A1C43F8082D204669460822FEF7EEFA3560284602E0FFF723FB01207CBD00BF57
S224015F408093002090150300BC2D0600EE00FF1FE61503005893002038B50A4B05469868CF
S224015F600AF062FD0446074880680AF05DFDA04204EB050201D99042F5D391B28842F2D3CF
S224015F8038BD00BF409C0020034B10B5044698680AF04AFD206010BD409C0020F0B52DEDA5
S224015FA0028B0023044689B00F4616461846E218D2ED007AF4EEC07AF1EE10FAA8BF0130C9
S224015FC00433202BF3D1012826DD2046082101F0ABF90022A018D0ED000A80EE801A08A9CB
S224015FE08D180432202A05ED081AF3D19FED0D8A00250124B44210DA07EB44100822694632
S22401600001F0A4F9B4EEC80AF1EE10FAC4BFB0EE408A25460134EDE70025284609B0BDEC3B
S224016020028BF0BD00000000F8B504460F46002304F5385000F1080681688B4212DA03F19B
S224016040700503F1F00604EB461604EB4511301D0D1D243650F8041BB04245F8041BF9D1FB
S2240160600133E5E7022A05D087EAE772A2EBE7726AB9F8BD002533689D42F5DA05F17002BB
S22401608004EB4210043001F0BBFF0135F3E7C2F1080700253068854209DA05F1700104EB4B
S2240160A04113181D394601F0B8FF0135F2E7F8BD30B5002300F5385291688B4212DA03F139
S2240160C0700403F1F00200EB441500EB4214221D291D243452F8045BA24241F8045BF9D10F
S2240160E00133E7E730BD00002DE9F0472DED028B91461C460A9F0E46002932D103F53853D2
S22401610004F604619A689FED1A0AFFF747FF07F10C05804604EB800A04F538500435416881
S2240161208E4213DA15ED018ADFED127A28EE278A0AEB462205ED018A92ED010A01F098F90A
S22401614038EE000A013605ED010AE5E7204639464A46C7F80080BDEC028BBDE8F04700F053
S22401616047B84FF6FF70BDEC028BBDE8F08700BF000048436666663FF0B501294FF0000447
S224016180146001DC1C60F0BD01251D60146800EB840696ED007AD0ED017AB4EEE77AF1EED4
S2240161A010FA44BF15601C6002291FD0051D02241668043500EB860795ED000AD7ED000AF0
S2240161C0B4EEE00AF1EE10FA02DD1E6014600AE01E6800EB860696ED001AB4EEC10AF1EEA3
S2240161E010FAC8BF1C6001348C42E1DBF0BD00002DE9F0432DED028B8BB002ACDFED328ABF
S22401620081460E4690462746002509F5385359688D420FDA06EB8501B0EE000AD1ED030A09
S22401622011F0BAFC10EE103A78EE808A47F8043F0135EAE700258D4208DA043494ED001AB7
S224016240C1EE281A0135C4ED001AF4E7002202AB0192029206F10C0001AAFFF78DFF019CA8
S2240162600AA800EB840111ED070A01F001F9029B0AAA02EB8300B0EE408A10ED070A01F0D4
S224016280F7F8F2EE0E0AF0EE408AB0EEC80A11F03FF978EE680AB0EEC00A80EE808A0721E0
S2240162A00A4B01FB084803EB8802D2ED007AB4EE678AF1EE10FA54BF204600200BB0BDEC0D
S2240162C0028BBDE8F08300BF00000000101603002DE9F0418D6800F53853072D5D6002DD9F
S2240162E00020BDE8F081CC68802C9C60F8DC0022AA4211DA530201EB030CC7180023A34282
S22401630008DA9E0007EB0608664401333669C8F80460F4E70132EBE70022A24213DA55012D
S2240163204E190023451906EB030C0CF5616CEF1807F5F057DCF800C00433202BC7F804C0BE
S224016340F1D10132E9E7496801600120BDE8F08100210160416081601C220C300FF046BEA8
S22401636038B501230446036000F5385000254560856004EB4521081D4FF4007200210135A7
S2240163800FF034FE072DF4D1002505F1700204EB4213181D002120220FF028FE05F1F00059
S2240163A004EB4011081D2022002101350FF01EFE802DEAD138BD10B5044698B111B14FF008
S2240163C0FF33436004F1080004F596541C3401F07EF9204601F09CFC2046002101F00BFDDB
S2240163E0002010BD012010BD38B505460C46B9B101F108001022192101F07FF990B104F5BF
S22401640096520A20691E1C3201F097FC60B920460121FFF7D0FF002814BF0420002038BD71
S224016420012038BD022038BD032038BD32B14B1E012B05D882E803000020704701207047A0
S2240164400220704710B5B8B1002915DB002A13DB8A4211DA041F002310460434D4ED007A38
S224016460F4EEC07AF1EE10FAC4BFB0EE670A184601338B42F1DB10BD4FF0FF3010BD2DE936
S224016480F043ADF2FC7D8146DDF8184888461546002C58D0002950D0002A4ED004F59F52B7
S2240164A011686A6801318A4247D1002B45D01E68009659689A68102301F0E2F806460028E4
S2240164C03BD104F108073846494601F028F9384601F08BF9182828DD384619216EAA01F08E
S2240164E0BEFB50BB6EA841460AAA00F0DBF820BB0AA8294603AA00F075F8F0B9696800221C
S22401650003A8B6EE000AFFF79DFF011E15DB04F596541C34204601F02AFC204601F081FCF7
S224016520431C13D040EAE07011E004F596501C30314601F01CFC304609E004F596501C3073
S224016540002101F014FC4FF0FF3000E000200DF57F7D0DF5806DBDE8F0832DE9F04192B017
S2240165600D461A9C9846002C36D06368591E01292CD85ABB06460DF1080E00F1200230686C
S2240165807168774603C708369642BE46F7D10AAF05F12002286869683E4603C60835954220
S2240165A03746F7D102A821681A4601F058FD68B90AA894E8060001F052FD38B9009402A8F3
S2240165C04146189A199BFFF75AFF07E004F596501C30002101F0CBFB4FF0FF3012B0BDE8BA
S2240165E0F08100002DE9F04180462DED028B0C4600293DD08B68002B3AD0C868C0B39FED91
S2240166001F8A1646174600256268954223DA2268A36802FB05F1404603EB810100F0ACFE37
S224016620E06887ED000A00EB8502D2ED000A30EE201A0135A7EC011AB1EE410A11F0A4FA8E
S224016640F7EE001A30EE212AC1EE822A47ED012A38EE228AD8E70021914207DAD6ED007A6F
S22401666087EE880A0131A6EC010AF5E7002000E00120BDEC028BBDE8F08100BF0000000036
S22401668048B10523642280E80C000449044BC1608360002070470120704700BFA41E030006
S2240166A0D41603002DE9F0412DED028B8046E4B016460C4600293FD0CB68002B3CD00869DE
S2240166C0002839D08968642938DC6268B2F5C87F34DCADF104070025A3689D4217DA6368B5
S2240166E0E16803FB05F2404601EB82011A4694ED008A00F0ADFFB1EE488A28EE000A11F0C8
S22401670043FA10EE100A013547F8040FE4E7043E0025A26895420DDA236902FB05F168466F
S22401672003EB810100F028FE10EE100A013546F8040FEEE7002002E0012000E0022064B020
S224016740BDEC028BBDE8F08160B1074B4FF4C87103604160054B0649C36064228260016178
S22401676000207047012070470AD7233BB81E0300B88F050038B10549054A41601023036043
S2240167808260002070470120704700BFF82B0600382C060070B5002405462026046044602E
S2240167A08460C4622146324600F10C000FF01EFC214650222C636C63AC6305F13C000FF05D
S2240167C015FC05F1B40021463246BDE870400FF00DBC002310B500210446C0F88C30C0F87D
S2240167E09030202200F194000FF000FC04F1D4003221082200F081FF2046BDE81040FFF70A
S224016800C9BF0000144B33F81000642812D005D801280FD017D32A2809D119E0B0F5987F32
S2240168200ED04FF6FF72904212D0652805D0DFED0B7A0AE0DFED0A7A07E0DFED0A7A04E002
S224016840F6EE007A01E0F7EE007A20EE270A70479FED020A704700BF782C060000000000E6
S2240168609A99193F6666663F70B506462DED028B10460C461546FFF7C5FF08213046B0EE04
S224016880408A00F051FDB4EEC80AF1EE10FA02D90123236000E0002504F1D40000F017FF37
S2240168A02846BDEC028B70BD70B59FED150A05460C4601F016FC134BD3ED006A03281DDDE4
S2240168C0F0EE667A00234FF0FF3254F823109E0051B1A91991ED007AB4EEE77AF1EE10FA9C
S2240168E044BF1A46F0EE477A0133082BEDD1531C04D0002144F822100138DFE770BD00BFAE
S224016900CDCCCC3E2402FF1FF0B501F59C532DED028B0746D86989B00C46154610B901F12A
S224016920B4000AE00021202268460FF05FFB04F1D400694601F00BF96846082100F0F4FC25
S22401694004F1D40630463946B0EE408A00F0E7FE0821384600F0E8FC30EE480ADFED1C7AE3
S22401696080EE088AB4EEE78AF1EE10FA08DD626B184B33F81200002814BF2846002022E038
S224016980012104F59C5761602022002168460FF02DFB04F59D50FA694168BB69052AA8BF3E
S2240169A005228F1A781CC11891FBF3F703FB171130466B4601F00EF9684604F10C01FFF733
S2240169C073FFE062284609B0BDEC028BF0BD00BFCDCCCC3D782C06002DE9F0432DED028BF8
S2240169E01F469368556B89B08046894614462BB1AF4203D017B1002090603D46002609EB34
S224016A00060191ED000ADFED327ADFED320A20EE270A10F07DFDDFED300A10F092FD08AA61
S224016A2093190436202E03ED080AE8D12B4830F81510DFED2B0ADFED2B8A012918BFF0EE40
S224016A40608A00221646134608EB020008A990ED007A881810ED081AA118B4EEC17AC8684D
S224016A60F1EE10FA98BF013328B1B4EEC17AF1EE10FA98BF01360432202AE5D1082B1DD019
S224016A800821404600F050FC082104F1B400B0EE408A00F049FC70EE281AB4EEE18AF1EE0A
S224016AA010FA0ADD40F2E7339D4206D00025012125606560A1603D4604E01EB1002525606C
S224016AC06560A560284609B0BDEC028BBDE8F0836666A63F000048420000F042782C06005A
S224016AE0000048430000AA432DE9F0411D468B6B0C46174603F11301142291FBF2FC02FB14
S224016B001C1104EB810204EB83032DED028BD2F83CC0616BDD63684B33F8112084B0064653
S224016B20DAB933F81510C1B133F81C308B4210D1082100F0F9FB082104F19400B0EE408AAE
S224016B4000F0F2FBB4EEC08AF1EE10FA98BF002500E0154600202060606022683AB92A4679
S224016B603046214694ED230AFFF77EFE0546216839B163682BB92A4630462146FFF7C4FEA0
S224016B800546606830B3A26B1423103292FBF3F103FB11220521002304EB8200C06BA84202
S224016BA008BF01330132142092FBF0FC013900FB1C22F1D1042BD8BF00253F48636B30F857
S224016BC013203AB12B46304604F194012246FFF703FF0546384931F8153033B9606B31F8A6
S224016BE0102012B10A2323630BE0236B002B08DD581E20632DB1A56B0E3504EB850200259B
S224016C00556031F81510B1F5987F3DD1606B2A4A32F81030002B37D13846694601F038F975
S224016C2090BB4FF00F080746684601F035F90028C8BF0137B8F1010802D1DFB90A2703E07B
S224016C400028F1DAF9E720B9684601F025F9013FF9D1002818DD4FF019080127684601F077
S224016C601BF90028C8BF0137B8F1010809D1023F022F09D8A56B0E3504EB850100254D609A
S224016C8002E00028EADAF2E7A06B1423421C92FBF3F103FB1120A06306F12003B43456F8B4
S224016CA0042B9E4244F8042BF9D1284604B0BDEC028BBDE8F08100BF782C060010B54B2182
S224016CC00446082200F019FD04F5975204F59651002342F8043B4B618B61CB61322001219E
S224016CE0BDE8104001F029B800F59753012210B51A6000F59653DC690A1BB2F5FA7F01D944
S224016D000024DC61DC6954B14A2A08D95C6934B919245C611424B2FBF4F201329A6100F5D3
S224016D209650C16110BD10B500F59754201D216801F01DF80023236010BD00F0F0BC70B5D3
S224016D400C460646154610463146A2000FF02DF9022C19DD33460121621E0433914213DA6A
S224016D6013ED017AD3ED007AD3ED010A37EE270AF0EE081A30EE201A013181EE212A12EEF3
S224016D80100A45F8040FE7E770BD2DE9F04788B0804617460E462022002168460FF026F95D
S224016DA000214FF4807238460FF020F908AD6A464146002042F8040B0024B4420BDA01EBA1
S224016DC0441312ED015AD3ED007A35EE277A013402ED017AF1E707EE906A12ED010AB8EEE8
S224016DE0E77A0431C0EE070AAA4242ED010AE0D1B7EE001A77EE411A002581EE212AB5420C
S224016E002CDA08EB4512002308ACE11851ED086A07EBC300002402EB030CDCED005A0DF1A6
S224016E20200A02EB04090AEB040C99ED006A75EEE62A5CED083A0119D1ED004A22EE223AA7
S224016E4036EE634A043443EE044A202CC1ED004AE1D10433202BD7D10135D0E708B0BDE83A
S224016E60F0872DE9F84F2DED028B06468B46074600250BEB050A06EB0509B046002440465E
S224016E8097ED000AD0ED007A09EB040320EE270A93ED008A10F084FEC8EE000A0AEB0401A7
S224016EA00434202C08F12408C1ED000AE7D120352437B5F5807FDCD1BDEC028BBDE8F88F4B
S224016EC0F0B5061D85B0012500244F1EBD4224DA374657ED012AB6EC012AF4EEC22AF1EE95
S224016EE010FA18D596ED003AB4EEC32AF1EE10FA11DDB4EEC02AF1EE10FA0CDB022C05DC07
S224016F000DF1100C0CEB840747F80C5C0134032C01DD002064E00135D7E7012CF9DD0199F1
S224016F20029E00EB810500EB860195ED007AD1ED007AB4EEE77AF1EE10FAD4BF00250125CA
S224016F4085F001060221A14238D001AF0DF1100C57F8217000EB870797ED000A0CEB86076C
S224016F6057F80C7C00EB8707D7ED000AB4EEE00AF1EE10FA4FEA85070DDD674457F80C7C47
S224016F8000EB8707D7ED001AF4EEE10AF1EE10FA11DD35460FE00DF1100C674457F80C7CEA
S224016FA000EB870797ED001AB4EE410AF1EE10FAC8BF0D4600E00E460131C4E704A800EB5C
S224016FC0860600EB850556F80C1C55F80C0C8842D4BF106011608842ACBF1860196001204A
S224016FE005B0F0BD2DE9F04F00F59E532DED068B1A68042AADF60C4D064601DD002046E126
S22401700000F59655AB68042BF8DD4B2BB4BF1C464B241E318C42A8BF0C4629696B68C4F1C9
S224017020010808EB0102D21892FBF3F103FB112104AB224600F070FC04AB03EB800090EDB3
S224017040007ADFED967AB4EEE77AF1EE10FAD5DC2A696B6808EB0201CA1892FBF3F103FB8A
S2240170601121304622460CAB00F0FAFC0BAB13AA043393ED000ADFED8A0AB4EEE00AF1EE5E
S22401708010FABBDC9342F3D10025A94606F596510A694B6808EB0200C11891FBF3F203FB57
S2240170A0121113A80022A2420DDA05EB011706EB870701313F6840F8047F91FBF3F703FB70
S2240170C017110132EFE721465FAA14A8FFF737FE0DF5BC7AAAAB03EB850152460023A34281
S2240170E006DA01EB431052F8047F01330760F6E700200290039021465FA89FED6A0A02AAC7
S22401710003ABFFF7DDFE002800F09380029FDDF80CB07A1CBB1C5B4510DA5FA901EB83001F
S22401712001EB8201D0ED004A91ED005AF4EE454AF1EE10FA48BF1A460133ECE701230021EE
S224017140BB4210DA5FA800EB830C00EB8100DCED003A90ED004AF4EE443AF1EE10FA48BF3B
S22401716019460133ECE70DF5BE7C0CEB81010CEB8B000CEB82020CEB870391ED00AA90EDCB
S224017180008AD2ED009A9FED489AD3ED008A0023A3420EDA0AF1040A514691ED003AB4EE64
S2240171A0C93AF1EE10FA03F10103A8BFB0EE439AEEE79FED3C1AF4EEC18AF1EE10FA04DA58
S2240171C0B4EEC18AF1EE10FA33DBDFED381AF4EEE18AF1EE10FA2CD5B4EEE18AF1EE10FA7A
S2240171E027D5B0EE680AF0EE480A10F091F9B4EE409AF1EE10FA1CD1CBEB0707002FB8BF07
S2240172007F42112F15DC032F13DD78EECA8A9FED282AF4EEC28AF1EE10FA0ADD38EE698AA5
S224017220F2EE0E2AB4EEE28AF1EE10FAC8BF09F101090135082D7FF429AFB9F1010F7FF7C8
S224017240DDAEAAA8214614AAFFF79FFD14A85FA9FFF707FE002318465FAA02EB43110022E8
S2240172609A420DDA01EB8204D4ED005A9FED116AF4EEC65AF1EE10FAA8BF01300132EFE725
S2240172800133082BE8D11428D4BF0020012003B00DF5406DBDEC068BBDE8F08F0080A24492
S2240172A00000164400008C42000000000000484400002042CDCCCC3E70B504460D46FFF757
S2240172C032FD294604F596552046FFF736FD6E69012E01D0002008E02046A969FFF782FECA
S2240172E00028F7D000236B61304604F596546169002901DD4A1E626170BD0000DFED097AD9
S224017300043800238B4206DA0430D0ED000A013377EEA07AF6E707EE101AB8EEC70A87EEC5
S224017320800A7047000000009FED070A043800238B4206DA0430D0ED007A013307EEA70A18
S224017340F6E710F02DBC00BF0000000010B59FED090A04380439002393420ADA0431043080
S22401736090ED007AD1ED007A0C4607EE270A0133F2E710BD0000000010B5DFED107A04382F
S22401738004390023B0EE670A934213DA04310430D0ED006A91ED007A66EE870A0C46F5EE14
S2240173A0C00AF1EE10FA4CBF77EEA07A30EE200A0133E9E730EE270A10BD00BF0000000063
S2240173C090ED000A01238B420CDA0430D0ED007AB4EEE70AF1EE10FA03F1010348BFB0EEC5
S2240173E0670AF0E7704710B5D0ED007A0246012300208B420FDA043292ED007AF4EEC77AF8
S224017400F1EE10FA54BFB0EE677A184614460133F0EE477AEDE710BD90ED000A01238B4247
S2240174200CDA0430D0ED007AB4EEE70AF1EE10FA03F10103C8BFB0EE670AF0E7704710B598
S224017440D0ED007A0246012300208B420FDA043292ED007AF4EEC77AF1EE10FAD4BFB0EE41
S224017460677A184614460133F0EE477AEDE710BD08B510F08FFBDFED027A20EE270A08BD66
S2240174803BAAB83FD0ED010AD0ED007A90ED020A60EEA01A90ED037A47EEA71A20EE801AE2
S2240174A007EE871A31EEA12AF7EE002A31EE010A72EEC20A10F066BB90ED020AD0ED006A10
S2240174C090ED037AD0ED017A60EE260A57EE270A30EEA00A10F054BBD0ED020AD0ED017AA8
S2240174E090ED000A60EEA01A90ED037A47EEA71A27EE801A00EE871A31EEA12AF7EE002AD0
S22401750031EE010A72EEC20A10F03CBBDFED047A9FED047A20EE270A80EE070A704700BF90
